:020000040800F2
:10000000008000209501000821B100081DB1000802
:1000100019B1000815B1000811B100080000000076
:10002000000000000000000000000000F9BA000815
:100030000DB1000800000000F9BA0008FDB000088A
:10004000F9BA0008F9BA0008F9BA0008F9BA0008C4
:10005000F9BA0008F9BA0008F9BA0008F9BA0008B4
:100060005DB10008F9BA0008B5B00008F9BA000897
:10007000F9BA0008F9BA0008F9BA0008EDB00008AA
:10008000F9BA0008F9BA0008F9BA0008F9BA000884
:10009000E9B00008F9BA0008F9BA0008F9BA00088E
:1000A000F9BA0008F9BA0008F9BA0008F9BA000864
:1000B000F9BA000895AF0008F9BA0008F9BA0008C3
:1000C000F9BA0008F9BA0008F9BA0008F9BA000844
:1000D000F9BA0008F9BA0008F9BA0008F9BA000834
:1000E000F9BA0008F9BA0008F9BA000800000000DF
:1000F0000000000000000000000000000000000000
:10010000000000000000000000000000F9BA000834
:10011000F9BA0008F9BA0008F9BA000800000000AE
:10012000D9B00008C9B00008F9BA0008F9BA000847
:10013000F9BA000800000000000000000000000004
:10014000F9BA0008F9BA0008000000000000000039
:10015000000000000000000000000000000000009F
:100160000000000000000000F9BA0008F9BA000819
:10017000F9BA0008000000000000000000000000C4
:1001800000000000F9BA0008FEE700BFFEE700BF6C
:10019000FEE700BF5948004708B506F0BFF9474BD6
:1001A000474A9A60474B484A9A421FD214461D4616
:1001B000226863680C3454F8040C984205D952F84C
:1001C000041B43F8041B9842F9D8AC42F0D30DE06D
:1001D00050F8083C50F8042C934203D243F8041B17
:1001E0009A42FBD80830A042F2D10DE0374B384A92
:1001F0009A4209D202F10800DC1D241A24F00704F7
:10020000044408340021E3E7324B5B6803F00C033D
:10021000042B06D0082B08D01BBB2F4A2F4B1A608B
:1002200022E02D4A2D4B1A601EE02A4A536852687C
:10023000C3F38343023312F4803F05D1284A02FB03
:1002400003F3264A13600FE0224AD26A02F00F023B
:1002500001322149B1FBF2F203FB02F31F4A1360A2
:1002600002E01D4A1D4B1A601A4B5B681B4AC3F320
:1002700003131C49C95C1368CB4013601A4E1B4B17
:100280009E1BB610002E07DD174D002455F8043BC9
:1002900098470134A642F9D1154E164B9E1BB61055
:1002A000002E07DD124D002455F8043B9847013419
:1002B000A642F9D11049012000F03AF800ED00E023
:1002C00000000008180300080003000828030008C5
:1002D000180300080010024000127A0008000020F5
:1002E00000093D00C863010828030008280300082E
:1002F000280300082C0300080C00002099010008C6
:10030000146E0108000000207C000020146E01081B
:100310000000001000000010800000204855002060
:100320000000001000000010ADAD000881AD000815
:100330002DE98048B9B008F0DDFE08F0DBFE08F0DA
:10034000D9FE02F03FFD012312934FF48033139343
:1003500000221492022219921A934FF480131B93D5
:1003600012A801F09BFC00B1FEE70F230D930223BE
:100370000E9300230F934FF480621092119301218A
:100380000DA808F047FC00B1FEE74FF400332093BE
:100390004FF480032C9320A808F08AFA00B1FEE7FE
:1003A000914B1B68914AA2FB03239B09013BB3F1CC
:1003B000807F09D28E4A5360F0218E4B83F8231040
:1003C0000023936007231360042002F055FC0022F1
:1003D00011464FF0FF3002F07FFC874D6B6943F40C
:1003E00000236B616B6903F400230A930A9B6B691A
:1003F00043F480036B616B6903F480030993099BE9
:100400006B6943F400336B616B6903F40033089349
:10041000089B6B6943F480236B616B6903F4802351
:100420000793079B6B6943F480136B616B6903F45B
:1004300080130693069BDFF8E08100224EF2CF3155
:10044000404602F031F8DFF8D4A1002210215046D6
:1004500002F02AF800224FF4F0614FF0904002F0D1
:1004600023F8664F002245F22041384602F01CF87E
:100470004EF2CF3320930126219600242294239418
:1004800020A9404602F028F84FF01009CDF88090DE
:1004900021962294239420A9504602F01DF84FF48F
:1004A000F063209321962294239420A94FF090404A
:1004B00002F012F8CDF88090DFF86491CDF88490C6
:1004C000229420A9404602F007F80A2002F0EEFB31
:1004D00045F22043209321962294239420A9384664
:1004E00001F0FAFF4FF400632093CDF8849022943A
:1004F00020A9384601F0F0FF04232093404B2193BC
:10050000229420A93F4801F0E7FF22462146082017
:1005100002F0E2FB082002F0C9FB4FF40078CDF8AE
:100520008080219622940323239320A9384601F04A
:10053000D3FF6B6933436B616B6933400593059B54
:100540006B6943F002036B616B6903F00203049370
:10055000049B224621460F2002F0BEFB0F2002F032
:10056000A5FB22462146382002F0B6FB382002F0D7
:100570009DFB22462146392002F0AEFB392002F0D5
:1005800095FB2148214B03604FF4827343604FF485
:10059000004383604FF4E063C36004614461C0F8CA
:1005A0001880C4610462446284620723C3620463E6
:1005B0000823436307F0CEFF00B1FEE71448154B54
:1005C00003600023436083604FF49E62C260036156
:1005D0004361836106F0A4F900B1FEE70C4806F020
:1005E000C3F8F8B1FEE700BF08000020D34D621049
:1005F00010E000E000ED00E00010024000040048C0
:1006000000003110000C00480408002000380040B1
:10061000D4000020004401400008004800140048B5
:1006200000001110602312934FF41E7313930023E4
:100630001493159316931793189340F27B614B48CC
:100640000AF070FD149B33F0020304D040F27C6189
:1006500046480AF067FD464B93F83C30012B36D0F4
:10066000434B012283F83C20022283F83D201B6883
:10067000404A93421BD0B3F1804F18D0A2F5943278
:10068000934214D002F58062934210D002F59C325E
:1006900093420CD002F58062934208D002F580624A
:1006A000934204D04FF4D16130480AF03BFD304C06
:1006B00012A9206805F0C4FF012384F83D3000230F
:1006C00084F83C3023682B4A934201D115E0FEE7C1
:1006D000294A934211D002F5806293420DD002F56F
:1006E0008062934209D040F2DC7120480AF01AFD82
:1006F0001F4B93F83C30012B37D01D4B012283F860
:100700003C201A681B4B9A4223D1279C34F08073FB
:1007100004D040F2F97115480AF004FD289E36F025
:10072000007304D040F2FA7110480AF0FBFC299DD6
:100730000F2D04D940F2FB710C480AF0F3FC2B0595
:1007400023F0807344F40054234323F000733343B5
:1007500001E04FF4005306490A685364002381F80E
:100760003C30064B9A4219D10AE0FEE7445B01088F
:10077000D4000020002C0140004001400044014012
:100780004FF480730D9302230E9300230F93109365
:10079000012311930DA9684801F09EFE674B684A3A
:1007A0001A604FF080525A604FF080729A600022B7
:1007B000DA60012119615A614FF4C0419961DA612F
:1007C0001A625A629A625F4A1A635F4A9A63DB6AE4
:1007D000012B03D9E9215D480AF0A4FC574B93F89B
:1007E0003C3013F0FF0F03D10022544B83F83D201F
:1007F000524B022283F83C201A68514B9A4243D153
:10080000A3F540535A6942F080725A615B6903F064
:1008100080730B930B9B3723209302262196002491
:10082000229423940325249520A94FF0904001F0B1
:1008300053FE482320931227219722942394249532
:1008400020A94FF0904001F047FE202320932196ED
:1008500022942394249520A93D4801F03DFE5B237A
:1008600020932196229423942495334E20A9304638
:1008700001F032FE8423209321972294239424951F
:1008800020A9304601F028FE2C4B1A680121116086
:10089000186801685A6811439A6811435A691143EC
:1008A0009A691143DA6911435A6A11439A6A0A43F1
:1008B000196942EA41420260DB68012B05D11F4BF6
:1008C0001A68136843F4803313601C4C2568226B4C
:1008D000636B1A43A36B1343DB432B61226B636B84
:1008E0001343AB62A36B2B62206B05F06FFE286392
:1008F0006B6823F003036B600323AB60012384F870
:100900003C301448144B03604FF48273436000235F
:1009100083604FF4E062C260036143614FF4802260
:100920008261C3610362436283620A23C36207F088
:1009300011FE98B1FEE700BF00040048FC51002002
:10094000004002403707070048080800745B0108B0
:100950000008004868080020003C004000224FF4D6
:100960000071B34801F0A0FD00221146082002F0FA
:10097000B3F9082002F09AF90023AE4A1370AE4A88
:10098000D16941F00201D161D26902F002020C92F8
:100990000C9AAA4CAA4A226020226260A3604FF4FB
:1009A0008052E2602361204605F0BAFF94F83C30A3
:1009B000012B3BD0012284F83C20022284F83D2008
:1009C000236899689F4A0A409A609F4A93421FD0C1
:1009D000B3F1804F1CD0A2F59432934218D002F5A7
:1009E0008062934214D002F50062934210D002F567
:1009F000983293420CD002F58062934208D002F5FF
:100A00008062934204D040F6537190480AF08AFB0A
:100A10008A4A11688B6823F4803323F007038B60C4
:100A2000012382F83D30002382F83C30834B1B6861
:100A30006FF001021A61002211461D2002F04CF9EC
:100A40001D2002F033F9824B1C687F4B9C423CD046
:100A5000B4F1804F39D0A3F594339C4235D003F5DF
:100A600080639C4231D003F59C339C422DD003F52A
:100A700080639C4229D003F580639C4225D040F2DC
:100A8000454172480AF04EFB714B1C686E4B9C420C
:100A90001BD0B4F1804F18D0A3F594339C4214D0EE
:100AA00003F580639C4210D003F59C339C420CD02C
:100AB00003F580639C4208D003F580639C4204D018
:100AC00041F2F24161480AF02DFB236A23F0010351
:100AD0002362236A43F0010323625D4B1B685A4A79
:100AE00093420BD002F5A052934207D002F58062E8
:100AF000934203D002F58062934203D15A6C42F4D0
:100B000000425A641A6842F001021A6025AB39ADFE
:100B100000224FF47A7423F8142C43F8102C13F8A5
:100B20000C0C62F3000003F80C0C33F80C0C64F3AB
:100B30004C0023F80C0C43F8082C03F8042C143355
:100B4000AB42E8D1434B0D9320AB0E9300238DF8BD
:100B50003E308DF83F3080228DF8402040218DF8C6
:100B60004110ADF84230ADF83C303B4C3B4B63613B
:100B70003B4B236101223B4801F096FC646905234D
:100B80008DF80B302379052B0BD0052323713A21E7
:100B9000204609F037FF01220DF10B01204609F034
:100BA00029FF2D4B5C696379202B0AD020236371C8
:100BB0003621204609F026FF0122611D204609F05A
:100BC00019FF01224FF48051194801F06DFC254CAA
:100BD00001228021204601F067FC0A2002F0BEF8C5
:100BE00000228021204601F05FFC0A2002F0B6F8C6
:100BF00001228021204601F057FC0A2002F0AEF8C5
:100C0000194C154D264614F8031C79B3686909F090
:100C1000F9FE14F8012C1AB12146686909F0EAFEC0
:100C200016F8020C08B102F099F81334EAE700BF95
:100C300000040048020800200010024098540020E0
:100C4000000400408800FEFF002C0140A05B01086A
:100C5000D4000020CC5B0108CC08002098000020C4
:100C60000000002000080048A35901089A4C9B4945
:100C7000204603F03DFF204604F05AFB4FF47A7003
:100C800002F06CF80023ADF88030954B2193BDF84D
:100C90003C300133ADF83C3003940DA903A804F0B7
:100CA00047F8204604F044FB642002F057F88D4BCF
:100CB0009B691A884DF6DC439A421CD1894803F09F
:100CC00015FEC0B13022002112A80AF065FF854B45
:100CD0009869854A12A9043005F0F0F858B18249A4
:100CE00012A804F00FFE012805D10223ADF89430BC
:100CF0007E4B269304E00223ADF894307C4B269380
:100D0000BDF83C300133ADF83C30BDF84230013322
:100D1000ADF842300DA903A804F00AF86E4804F0BB
:100D200007FB642002F01AF86E4B9B695D88382639
:100D30003246002112A80AF02FFF01228DF8482028
:100D400004218DF8491002208DF84A0003238DF804
:100D50004C308DF84D008DF84E1040248DF84F40EA
:100D600005218DF850108DF8513006218DF8521064
:100D700033238DF8533007238DF8543008208DF835
:100D8000560009208DF8580019208DF85A0042208D
:100D90008DF85B0025278DF85C708DF85D4026246A
:100DA0008DF85E408DF85F3028238DF86030102478
:100DB0008DF861404FF0290C8DF862C0DC238DF86E
:100DC00063302E238DF864304FF088088DF86580ED
:100DD0002F238DF866302D238DF8673030238DF862
:100DE000683037278DF86A7090278DF86B708DF812
:100DF0006C608DF86D004FF03C0E8DF86EE08F2723
:100E00008DF86F703D208DF8700012208DF8710004
:100E10006F268DF872608DF8733018208DF874008D
:100E20008DF875808DF876C04FF0BE0C8DF877C0C8
:100E30008DF878E08DF879708DF87A608DF87B30D8
:100E40008DF87C008DF87D10FF238DF87E30E42333
:100E50008DF85530C0238DF857308DF869204FF448
:100E600000414FF0904001F01FFB2146214806F061
:100E700055FA242840F044861F4BD3F800801D4EBD
:100E80002F241F46AA222146304606F019FA214691
:100E9000304606F043FAAA2804D03B68C8EB0303A7
:100EA000312BEFD9144BD3F80080124E2F241F465C
:100EB00055222146304606F003FA2146304606F018
:100EC0002DFA55281AD03B68C8EB0303312BEFD914
:100ED000012100231C4614E0CC08002030550020DE
:100EE000D85B0108E007002008540108E45B010812
:100EF000F45B0108BC0500204054002001210023C0
:100F00001C46B54E38AA02EB430313F8972C304623
:100F100006F0D6F90134E4B2234638AA02EB4402C3
:100F200012F8981CFF29EDD1AB4C2368DB6A012134
:100F3000204698473D21204606F0F0F900F0FE02D9
:100F40003D21204606F0BCF923681B69217B204621
:100F500098472368DB6A0121204698479F4B1C680D
:100F6000DFF8748227271E463946404606F0D6F938
:100F700010F0800F03D133681B1B312BF4D9974B32
:100F80001B681B1B312B00F2BB850022944B1A708F
:100F9000944A954B1A609048944B18600581012340
:100FA000ADF8A830924B2B931F210AF095F9BDF8AC
:100FB0003C300133ADF83C30BDF842300133ADF880
:100FC00042300DA903A803F0B3FE8A4C204604F07A
:100FD000AFF9642001F0C2FE874D2946204603F098
:100FE00087FD204604F0A4F960690368DB69834942
:100FF0009847834B96220021204604F071F9204641
:1010000004F096F940F6B83001F0A8FE00227D4BBE
:10101000A3F8CC2008F0A0F87B4A7C4B1A606F4BF9
:101020001A687B4B9A6003217A4808F073F82946C6
:10103000204603F05DFDDFF8D881DFF8EC91CDF8B4
:101040000480664B1B6800930121734805F0D2FAB7
:10105000322001F083FE98F80430002B00F02D813F
:1010600000252F466C4C03E00C35FF2E40F0268106
:10107000D8F800305A1953F805A0D2F804B0236804
:101080004B4504D040F27F2164480AF04BF894F8B5
:101090003D30012B00F07685012384F83D30226835
:1010A000136823F00203136026684AEA0B03DB434C
:1010B0003361C6F828A0C6F820B0504605F086FA7D
:1010C0003063002384F83D304E4509D04FF4C4719D
:1010D00052480AF027F894F83D30012B00F01785AC
:1010E000012384F83D30022384F83C3023685A6899
:1010F00022F003025A6003229A60226A22B91A6817
:1011000022F010021A6003E01A6842F010021A601E
:101110002268136843F002031360002384F83D3013
:1011200023684B4509D04FF40C713C4809F0FAFF95
:1011300094F83D30012B00F0F284012384F83D3017
:1011400023684B4504D040F2D521344809F0EAFF2A
:1011500094F83C30DBB2022B0CD12368DA6812F031
:10116000010F07D0DB6813F0020F14BF0323012324
:1011700084F83C3094F83C30DBB2022BE0D0002302
:1011800084F83D30D8F800302B449E6823684B45E6
:1011900004D04FF41771214809F0C4FF072E04D979
:1011A00040F25D211D4809F0BDFF23680C3603EBBA
:1011B00086067368FB2B39D8FEB238E007F09AFF39
:1011C000174B9E6807F096FF164A0146304607F017
:1011D00073FFFF262BE000BFBC0500204054002019
:1011E00090000020ADB10008C85200202C01002062
:1011F000045C0108CC0800203055002090590108FB
:10120000105C0108CC050020F80600203C520020AC
:101210003001002080000020FC510020745B010898
:10122000F0510020205C010800400240FF262368A6
:101230004B4504D040F2E911A94809F073FF94F836
:101240003D30012B00F07584012284F83D20216897
:101250000B6823F002030B6021680B6823F0100376
:101260000B6023680321996084F83C20002384F8F4
:101270003D3019E007F03EFF9A4BD3F808A007F085
:1012800039FF994A0146504607F016FF0CE007F077
:1012900031FF944B9E6807F02DFF944A014630467B
:1012A00007F00AFF00F06EBC013798F80430BB422B
:1012B0003FF7DAAE02E0FF2600E0FF2600218C486F
:1012C00005F098F998F80530B34211D198F8063036
:1012D000013388F8063098F80730FF2B00F0388487
:1012E000FF2E40F02F84FF2388F8073000F030BC39
:1012F000804B1B68C8F80830D8F80C1061B30B7825
:10130000FF2B06D10A2E1FD00E707A4A12684A604F
:101310001AE0FF2E17D00A2E0CD1764A12684868C0
:10132000121AB2F5FA6F05D2724A12684A60FF22A9
:101330000A7009E09E426F4B1B684B604FF0FF0341
:1013400028BF0B7000E0FF2388F8073088F805609D
:10135000D8F80C205AB92AE0019807F037F888F835
:10136000070088F80560002388F806301FE0FF2B8F
:1013700009D0614A01219170D370002353609360BA
:10138000137353732EE0019E304607F01FF8FF28B9
:1013900028D0594C238803F478452580304607F03F
:1013A00015F80130012383402B4323801AE0019E6E
:1013B000304607F00BF8FF280DD04F4C238803F47C
:1013C00078452580304607F001F80130012383403D
:1013D0002B43238006E0484A138823F4FF6323F05D
:1013E00007031380454B20932193019B2293444B89
:1013F0002393444B2493404B2593434B1C686368D1
:1014000003F58073636013F0010F18D10023A3600C
:1014100023689B6820AA214612A898479DF8483067
:10142000002B40F09B83237943F001032371314B60
:101430001B68E3602546314803F07AFF1DE0A3688E
:101440000133A3602368DB6820AA214634A89847AB
:10145000349D9DF8D460AC420AD023681B692146B4
:1014600036A89847237923F0010323710023E36012
:10147000224803F05DFF002E4AD1234B1C68AC428A
:1014800005D0002388F80630FF2388F805301F4B6D
:101490009C4222D0D8F80830009A93421DD2D61A26
:1014A000239803F0CFF8C0F303604EF6602303FBEC
:1014B00000F39E4211D923681B69214637A898473B
:1014C000237923F0010323710021E1600F4A0E4BC1
:1014D0001A60094807F01EFE27E00B4B1D6024E050
:1014E000745B0108F0510020345C0108485C01087D
:1014F000FC5100204054002080000020CC08002037
:10150000E0070020BC0500203C5200201804002009
:10151000A44CA549204602F049FCA44B63654FF456
:10152000FA63A4F85030A24B1C60A24B93F90C3024
:1015300013B15F2B40F01E839F4B9B78052B00F26D
:101540006E81DFE813F030005D000600C4008A0001
:10155000A7009A4B1B68984A52689B1AB3F5AF7F55
:1015600040F25D810022944B1A800AF0F1FB944B0B
:1015700083FB0034C317C3EB640404EB840304EB64
:101580004304041B002C40F34A818B4B1B88002131
:10159000012000FA01F213439BB201318C42F8D1D1
:1015A000854A13803BE1874B93F8D43213F0800FC8
:1015B00019D0824B1B68804A52689B1AB3F5AF7FE3
:1015C00040F22D81804B5C681D8825B94FF4E47191
:1015D0007E4809F0A7FD63696B406361774B1A6829
:1015E000754B5A601BE1744B1B8813F0010F00F020
:1015F000168101224FF40051754800F055FF0EE1AD
:101600006D4B1D7B28461A8801231C46591E8842B3
:1016100004FA03F1A6BF0A4392B28A4301330B2BAB
:10162000F4D165490A80654B1B6889685B1AC82B31
:1016300040F2F580614B1B685F498B606B1CDBB22D
:101640000B73C978994280F0EA805B4B00211973D3
:10165000997002F478421A80A5E1574B93F90D3046
:10166000002B02DA0A22544B5A73544B1B68524A1D
:1016700051685B1A127B934240F2D1804F4B1A683B
:101680004D4B5A6093F90D20012191401980013A88
:101690005A73C4E0484B93F90D300A2B02DD002247
:1016A000454B5A73454B1B68434A51685B1A127B82
:1016B000934240F2B480414B1A683F4B5A6093F911
:1016C0000D2001219140198001325A73A7E03A4B55
:1016D00093F90D300B2B7DDC032B1FDC374A11688F
:1016E000354A5268891AB1F5AF7F40F29880334A83
:1016F0001168314A5160DAB212F0010F07D12E4958
:101700000B886FEAD3236FEAC3230B8002E000212A
:10171000294B19800132284B5A7380E0274A1168FF
:10172000254A5268891A322979D9244A1168224AED
:101730005160DBB213F0010F19D1147B26461188DA
:1017400000220125B24205FA02F0DABF014389B254
:10175000814301320B2AF5D1174A11800A2C02D19C
:10176000013353735BE00134134B1C7357E0124A8F
:10177000147B2646118800220125B24205FA02F0A8
:10178000DABF014389B2814301320B2AF5D10A4AFB
:10179000118014B90133537341E0013C064B1C73B3
:1017A0003DE000BF9C0600205C5C0108F8060020BC
:1017B0003C520020E0070020800000204054002020
:1017C000E9A28B2E40010020CC520020705C010861
:1017D000000800480D2B1EDC9F4A11689F4A526882
:1017E000891AB1F5AF7F1AD99B4A11689B4A51609B
:1017F000DBB213F0010F07D1114612886FEAD22233
:101800006FEAC2220A8002E00021944A118001336B
:10181000924A537303E00021904807F07BFC8F4B02
:101820001B8803F002039BB233B18D4B012219894F
:10183000D86800F039FE05E0894B00221989D86884
:1018400000F032FE854B1B8803F004039BB233B1DA
:10185000834B0122198A586900F026FE05E0804B6F
:101860000022198A586900F01FFE7C4B1B8803F088
:1018700008039BB233B17A4B0122198BD86900F06F
:1018800013FE05E0764B0022198BD86900F00CFEA0
:10189000724B1B8803F010039BB233B1704B0122D3
:1018A000198C586A00F000FE05E06D4B0022198C7F
:1018B000586A00F0F9FD694B1B8803F020039BB2C6
:1018C00033B1674B0122198DD86A00F0EDFD05E0B8
:1018D000634B0022198DD86A00F0E6FD5F4B1B8830
:1018E00003F040039BB233B15D4B0122198E586B5C
:1018F00000F0DAFD05E05A4B0022198E586B00F01B
:10190000D3FD564B1B8803F080039BB233B1544B7D
:101910000122198FD86B00F0C7FD05E0504B002263
:10192000198FD86B00F0C0FD4C4B1B8803F48073FB
:101930009BB23BB14A4B0122B3F84010586C00F007
:10194000B3FD06E0464B0022B3F84010586C00F09F
:10195000ABFD424B1B8803F400739BB23BB1404B81
:101960000122B3F84810D86C00F09EFD06E03C4B15
:101970000022B3F84810D86C00F096FD374B1B8856
:1019800003F480639BB23BB1354B0122B3F8501096
:10199000586D00F089FD06E0314B0022B3F850107D
:1019A000586D00F081FD2F4B1B68009AD31A082B4D
:1019B0007FF647AB2C4B1A682C4B9A423FF441AB55
:1019C000284B009A1A602A4805F030FC00283FF4A2
:1019D00038AB284B1B889BB24FF6FF72934253D112
:1019E000254B1E78F6B2254B1C8824B2244D95F861
:1019F000D43203F07F0303EB431305EB43003D2296
:101A0000002110300AF0C8F895F8D40200F07F00E9
:101A100000EB401005EB400032463C2E28BF3C2234
:101A2000184910300AF0ADF895F8D43203F07F036E
:101A30005A01D01805EB400080F8504002464FF69E
:101A4000FF70A2F84E00013303F0070343F0800358
:101A500085F8D432FFF7F5BA40540020800000200A
:101A6000CC520020940000203C52002014010020A1
:101A7000BC05002078050020B9050020D00000201A
:101A8000400100207C050020424B1F78FFB2424BF2
:101A90001C88A4B2414B1D882DB2414E96F8D43219
:101AA00003F07F0303EB431306EB43003D220021C9
:101AB00010300AF071F896F8D40200F07F0000EBC5
:101AC000401006EB40003A463C2F28BF3C223549E7
:101AD00010300AF056F896F8D43203F07F035A011A
:101AE000D01806EB400080F85050A0F84E4001336B
:101AF00003F0070343F0800386F8D432FFF7A1BA5E
:101B00000123ADF8A830284B2B93FFF750BA07F00C
:101B1000F1FA264B9B68002B7FF4B9AB32E007F05B
:101B2000E9FA224B9B68002B7FF448ABFF26FFF7B6
:101B30007EBB07F0DFFA1D4B9B68002B7FF49AAB4E
:101B4000FFF7B2BBD8F80C20002A7FF412AC2EE4C9
:101B5000D8F80C30002B7FF416AC28E4144D15494E
:101B6000284602F023F9144B6B6542F21073A5F876
:101B7000503060E420A9114807F04CFCDCE40C353F
:101B8000FFF776BA013798F804309F42F7DBFFF78A
:101B900092BB00BFB905002000080020D000002043
:101BA000400100207C050020A05C0108F0510020CD
:101BB0009C060020B05C0108F8060020CC0500203F
:101BC00010B4244B1C68244A194608E0B0F1FF3FCA
:101BD00005D0002836D00B681B1B984234D3D3683D
:101BE00013F0010FF2D11C4BDB6813F0200F02D071
:101BF0002022194BDA60184BDB6813F0100F04D168
:101C0000154BDB6813F0040F20D0134BDB6813F087
:101C1000100F06D0114AD36943F00203D361102399
:101C200000E000230C4AD26812F0040F06D00B49E2
:101C3000CA6942F00102CA6143F00403064AD36054
:101C4000012004E0032002E0032000E0002010BC9B
:101C5000704700BF4054002000200240E8080020E8
:101C600010B50446C31E042B03D9BE21094809F050
:101C700059FA094AD36823F4E0631B041B0C43F0B0
:101C8000BF6343F40033240204F4E0642343D360CD
:101C900010BD00BFC45C010800ED00E0F0B583B0EA
:101CA000044620B940F21B11A34809F03BFA23680F
:101CB000002B00F0598113F00F0F04D14FF48E71F7
:101CC0009D4809F02FFA236813F0010F00F0A3805C
:101CD000636833F4803207D0B3F5A02F04D04FF4FB
:101CE0009171954809F01EFA944B5B6803F00C0360
:101CF000042B0AD0914B5B6803F00C03082B1BD11B
:101D00008E4B5B6813F4803F16D04FF4003393FA88
:101D1000A3F38A4B19684FF4003393FAA3F3B3FA91
:101D200083F303F01F03012202FA03F30B4272D084
:101D30006368002B6FD1F3E26368B3F5803F05D190
:101D40007E4A136843F48033136026E063B903F1DD
:101D5000804303F504331A6822F480321A601A684B
:101D600022F480221A6018E0B3F5A02F0CD103F101
:101D70008043A3F53C331A6842F480221A601A6843
:101D800042F480321A6008E06C4B1A6822F4803208
:101D90001A601A6822F480221A606849CB6A23F01C
:101DA0000F02A3681343CB626368D3B1644B1F680F
:101DB0004FF400320D4601201E4604E03368DB1B61
:101DC000642B00F2AF8292FAA2F3296892FAA2F38E
:101DD000B3FA83F303F01F0300FA03F30B42EDD0D1
:101DE00019E0574B1F684FF40032544D01201E4636
:101DF00004E03368DB1B642B00F2968292FAA2F3B4
:101E0000296892FAA2F3B3FA83F303F01F0300FAEE
:101E100003F30B42EDD1236813F0020F00F0A4800E
:101E20002369012B04D94FF4AD71434809F07AF9C5
:101E300063691F2B04D940F25B113F4809F072F926
:101E40003E4B5B6813F00C0F0AD03C4B5B6803F011
:101E50000C03082B28D1394B5B6813F4803F23D146
:101E6000022393FAA3F3354B1968022393FAA3F3E1
:101E7000B3FA83F303F01F03012202FA03F30B42C8
:101E800003D02369934240F051822C480368F82222
:101E900092FAA2F2B2FA82F2616901FA02F223F036
:101EA000F803134303605FE0236993B3012292FABE
:101EB000A2F3B3FA83F303F1845303F584139B0075
:101EC0001A601F4B1F6802221C4D01201E4604E0B1
:101ED0003368DB1B022B00F22B8292FAA2F32968F3
:101EE00092FAA2F3B3FA83F303F01F0300FA03F3A9
:101EF0000B42EDD011480368F82292FAA2F2B2FA2E
:101F000082F2616901FA02F223F0F80313430360DD
:101F10002AE0012393FAA3F3B3FA83F303F1845382
:101F200003F584139B0000221A60054B1F680222F0
:101F3000024D01201E460AE0F45C01080010024038
:101F4000405400203368DB1B022B00F2F38192FA2D
:101F5000A2F3296892FAA2F3B3FA83F303F01F0302
:101F600000FA03F30B42EDD1236813F0080F57D0AA
:101F7000A369012B04D940F29B11AF4809F0D2F8B4
:101F8000A36933B3012191FAA1F2B2FA82F2AB4B09
:101F900013449B001960AA4B1F680222A94D0846F2
:101FA0001E4604E03368DB1B022B00F2C58192FA67
:101FB000A2F392FAA2F392FAA2F3696A92FAA2F356
:101FC000B3FA83F303F01F0300FA03F30B42E9D0E3
:101FD00026E0012292FAA2F2B2FA82F2974B13445F
:101FE0009B0000221A60964B1F680222954D01202B
:101FF0001E4604E03368DB1B022B00F29F8192FA3D
:10200000A2F392FAA2F392FAA2F3696A92FAA2F305
:10201000B3FA83F303F01F0300FA03F30B42E9D191
:10202000236813F0040F00F0B480E368012B06D995
:10203000052B04D040F2C7117F4809F073F8814B9B
:10204000DB6913F0805F0CD17E4BDA6942F080527D
:10205000DA61DB6903F080530193019B4FF0010CBF
:1020600001E04FF0000C784B1B6813F4807F11D116
:1020700075490B6843F480730B60714B1D681846FB
:1020800004E003685B1B642B00F25A810B6813F4B5
:10209000807FF6D0E368012B05D16A490B6A43F0D3
:1020A00001030B6222E063B903F1804303F50433BB
:1020B000196A21F001011962196A21F004011962FB
:1020C00014E0052B09D15F4B196A41F00401196234
:1020D000196A41F00101196208E05A4B196A21F0AE
:1020E00001011962196A21F004011962E36823B33E
:1020F000534BD3F800E00221524D01201F4641F21C
:10210000883605E03B68CEEB0303B34200F21A8148
:1021100091FAA1F391FAA1F30BB12A6A02E091FAC4
:10212000A1F36A6A91FAA1F3B3FA83F303F01F03F0
:1021300000FA03F31342E5D023E0414BD3F800E06B
:102140000221404D01201F4641F2883605E03B68E0
:10215000CEEB0303B34200F2F78091FAA1F391FAB8
:10216000A1F30BB12A6A02E091FAA1F36A6A91FA2B
:10217000A1F3B3FA83F303F01F0300FA03F313424E
:10218000E5D1BCF1000F04D02E4AD36923F080536F
:10219000D361E369022B04D940F20B21264808F0F1
:1021A000C1FFE369002B00F0D180264A526802F09B
:1021B0000C02082A00F0CC80022B40F08980236AB0
:1021C00033F4803304D04FF405711B4808F0AAFFA4
:1021D000636A33F4802219D0B2F5002F16D0B2F51D
:1021E000801F13D0B2F5C01F10D0B2F5001F0DD064
:1021F000B2F5201F0AD0B2F5401F07D0B3F5601F1B
:1022000004D040F215210C4808F08CFF4FF0807389
:1022100093FAA3F3B3FA83F303F1845303F584131E
:102220009B0000221A60064B1F684FF00072054D9C
:1022300001201E460EE000BFF45C010820819010D2
:102240004054002000100240007000403368DB1B47
:10225000022B7FD892FAA2F3296892FAA2F3B3FA7A
:1022600083F303F01F0300FA03F30B42EED13D4961
:102270004B68606A226A024323F4741313434B6071
:102280004FF0807393FAA3F3B3FA83F303F184530B
:1022900003F584139B0001221A60334B1E684FF034
:1022A00000720C4601201D4603E02B689B1B022B8D
:1022B00052D892FAA2F3216892FAA2F3B3FA83F306
:1022C00003F01F0300FA03F30B42EED0002046E0B8
:1022D0004FF0807393FAA3F3B3FA83F303F18453BB
:1022E00003F584139B0000221A601F4B1E684FF0F9
:1022F00000721C4C01201D4603E02B689B1B022B27
:102300002CD892FAA2F3216892FAA2F3B3FA83F3DB
:1023100003F01F0300FA03F30B42EED100201EE08E
:1023200001201CE003201AE0032018E0012016E041
:10233000032014E0032012E0032010E003200EE04D
:1023400003200CE003200AE0032008E0002006E060
:10235000012004E0032002E0032000E0032003B09A
:10236000F0BD00BF001002404054002038B5474B7C
:102370005B69034200F08980444B586100F004001F
:1023800080B2002800F08180414B1B78002B7CD06C
:10239000404B5D6A03F108231B6903F004043E48C7
:1023A00004F048FAC8353D4B1B785BB2042B64D867
:1023B000DFE803F0030B1C274C00002C5DD107F075
:1023C0005BF90122354B1A7057E05CB1B5F5487FD7
:1023D00008D90023324A1360324A136002222F4B7D
:1023E0001A704AE000222D4B1A7046E02CB907F013
:1023F00043F90322294B1A703FE0FF22274B1A7042
:102400003BE01CB9FF22254B1A7036E0B5F5487F3A
:102410000FD9244B1A681A601B681BB905221F4B81
:102420001A7002E0FC221D4B1A700022184B1A7021
:1024300023E0B5F5C87F05D907F01EF90422174B34
:102440001A701AE0FF22154B1A7016E0ACB907F0AB
:1024500013F90322114B1A70B5F5966F03D90120B9
:1024600007F0D0F809E0B5F5C87F03D9002007F0E0
:10247000C9F802E0FF22094B1A70084B1B7813F0D1
:10248000800F02D00022024B1A7038BD00040140B8
:10249000020800200004004098540020F45300205B
:1024A000D0510020C850002070B5054614460E4695
:1024B00021B94FF4D971074808F034FE012C04D932
:1024C00040F2B311034808F02DFE0CB1AE6170BDAF
:1024D000AE6270BD705C01082DE9F04F83B0064616
:1024E0000C46B0F1904F16D09C4B984213D003F598
:1024F000806398420FD003F5806398420BD003F5B8
:102500008063984207D003F58063984203D0C521C9
:10251000934808F007FE23689AB212B11B0C1B0403
:102520001BB1C6218E4808F0FDFD6368032B17D947
:10253000A3F11102012A13D923F4001289498A4216
:102540000ED001F580118B420AD0A1F570218A428C
:1025500006D0854A934203D0C721814808F0E2FDA6
:10256000A368022B03D9C8217D4808F0DBFD25684C
:10257000002D00F0F0800027DFF8F8B14FF00108DF
:1025800008FA07F818EA050500F0DF80636823F011
:102590001003022B35D1B6F1904F16D06F4B9E42EF
:1025A00013D003F580639E420FD003F580639E42F3
:1025B0000BD003F580639E4207D003F580639E42F3
:1025C00003D0D721664808F0ADFD23690C2B06D94E
:1025D0000E3B012B03D9D821614808F0A3FDF80870
:1025E00006EB8000016A07F0070E4FEA8E0E0F23FC
:1025F00003FA0EF321EA0302236903FA0EF31343ED
:10260000036233684FEA470A4FF0030909FA0AF9EF
:102610006FEA090903EA0902636803F0030303FA96
:102620000AF313433360636823F01003013B012B6B
:102630001AD8E368012B05D9032B03D0EC214848B5
:1026400008F070FDB36809EA0302E36803FA0AF3CD
:102650001343B360736823EA08086368C3F3001385
:10266000BB4043EA08037360F36809EA0309A368FF
:1026700003FA0AF343EA0903F360636813F0805F27
:1026800063D03A4B9B6943F00103384A93619369E5
:1026900003F001030193019B27F0030303F180433F
:1026A00003F58033996807F003024FEA820E0F208A
:1026B00000FA0EF221EA0200B6F1904F10D0274A3C
:1026C00096420FD002F5806296420DD002F58062EC
:1026D00096420BD026498E420CBF0421052106E00C
:1026E000002104E0012102E0022100E0032101FABF
:1026F0000EF202439A60DBF80030EA43616811F49D
:10270000803F0CBF13402B43CBF80030DBF8043084
:10271000616811F4003F0CBF13402B43CBF8043029
:10272000DBF80830616811F4801F0CBF13402B43A5
:10273000CBF80830DBF80C30616811F4001F0CBFD7
:1027400002EA03051D43CBF80C500137256835FA22
:1027500007F37FF413AF03B0BDE8F08F0004004827
:10276000705C0108000011100000221000100240EF
:1027700000100048000401405D4B1B7E012B00F05F
:10278000B4802DE9F0478A4606460122584B1A7656
:102790000368934203D9BA21564808F0C3FC336852
:1027A000012B1CD14CF25030FFF70AFA002840F000
:1027B000918000224E4BDA614F4C236943F00403B1
:1027C0002361236943F0400323614CF25030FFF74B
:1027D000F7F90246236923F0040323617FE073685D
:1027E000B3F1006F11D3454A1288B2F5807F03D14F
:1027F000434A934209D811E0802A03D1414A9342C7
:1028000003D818E0404A934220D9D021394808F033
:1028100089FC3A4B1B88B3F5807F0AD1B368726894
:10282000013A02EBC322364B9A428CBF00230123AC
:1028300016E0802B0AD1B3687268013A02EBC3221A
:10284000304B9A428CBF0023012309E07368013B9F
:10285000B26803EBC2232C4A93428CBF00230123AE
:102860001BB9D121234808F05DFC4CF25030FFF732
:10287000A7F988BB4FF0FF33CAF800307568B3681A
:1028800005EBC3239D4229D2DFF8649000271A4C40
:102890004CF25038C9F81C70236943F002032361DD
:1028A0006561236943F0400323614046FFF788F9DF
:1028B000236923F002032361024610B1CAF80050D5
:1028C0000DE005F50065B168736803EBC123AB4209
:1028D000E0D804E0012202E0012200E00122002110
:1028E000034B19761046BDE8F0870220704700BF01
:1028F000E8080020205D010800200240CCF7FF1FFF
:10290000FFFF0308FFFF0108FFFF0008034A1369E8
:1029100043F0800313610020704700BF0020024095
:10292000074B1B6913F0800F07D0054B054A5A600F
:1029300002F188325A60002070470120704700BFC2
:1029400000200240230167452DE9F84F374E367EBF
:10295000012E5FD01F4690460C4605460122334BA0
:102960001A76431E022B03D9C421314808F0DAFB42
:10297000B4F1006F11D32F4B1B88B3F5807F03D1C7
:102980002D4B9C4209D80CE0802B03D12B4B9C4251
:1029900003D806E02A4B9C4203D9C521244808F0FD
:1029A000C1FB4CF25030FFF70BF9034660BB012D21
:1029B00033D0022D0CBF4FF0020B4FF0040B2EE072
:1029C0003301C3F12001A3F1200228FA03F307FA2F
:1029D00001F10B4327FA02F213439BB2CAF81C9091
:1029E0002A6942F001022A6123804CF25030FFF73D
:1029F000E7F82B6923F001032B61034620B9013668
:102A00000234F2B29345DBD80021084A1176184609
:102A1000BDE8F88F0220BDE8F88F4FF0010B0026CB
:102A2000DFF808A0B146074DCAE700BFE80800205C
:102A3000545D0108CCF7FF1FFFFF0308FFFF0108EB
:102A4000FFFF00080020024038B5C36B1A68046815
:102A50002568016C04238B40134214D015F0040F39
:102A600011D0236813F0200F03D1236823F004034F
:102A70002360C26B016C04238B405360C36A002B3C
:102A80003AD0984738BD02238B40134219D015F035
:102A9000020F16D0236813F0200F06D1236823F00D
:102AA0000A032360012380F82130C26B016C0223EA
:102AB0008B405360002380F82030836AE3B198474D
:102AC00038BD082303FA01F1114215D015F0080FA3
:102AD00012D0236823F00E032360C16B0123026C24
:102AE00003FA02F24A60836380F82130002380F801
:102AF0002030036B03B1984738BD00BF002800F0B9
:102B0000AB8010B504460368544A934225D0143272
:102B1000934222D0143293421FD0143293421CD0DD
:102B20001432934219D01432934216D01432934285
:102B300013D002F5627293420FD0143293420CD03C
:102B40001432934209D01432934206D01432934285
:102B500003D0A621424808F0E5FA636833F010027A
:102B600006D0B3F5804F03D0A7213D4808F0DAFA2C
:102B7000A36833F0400303D0A821394808F0D2FA03
:102B8000E36833F0800303D0A921354808F0CAFA7E
:102B9000236933F4807206D0B3F5007F03D0AA21F5
:102BA0002F4808F0BFFA636933F4806206D0B3F5AA
:102BB000006F03D0AB212A4808F0B4FAA36933F0C0
:102BC000200303D0AC21264808F0ACFAE36933F4C3
:102BD000805306D0B3F5005F03D0AD21204808F044
:102BE000A1FA022384F821302068036823F47F537C
:102BF00023F030036168A2681143E268114322693F
:102C0000114362691143A2691143E2690A43134304
:102C100003602268134B9A4209D8134B13441422C1
:102C2000B3FBF2F39B002364104BE36308E0104B0B
:102C300013441422B3FBF2F39B0023640D4BE363B4
:102C40000020A062E06220636063A063012384F837
:102C5000213084F8200010BD012070470800024098
:102C6000845D010807040240F8FFFDBF0000024038
:102C7000F8FBFDBF0004024008B504280BD020B1CA
:102C800040F2E311074808F04DFA074A136823F0B1
:102C90000403136008BD044A136843F0040313607F
:102CA00008BD00BFC45C010810E000E010B5041EC0
:102CB00003DAEA21064808F035FA620904F01F0435
:102CC000012303FA04F4034B43F8224010BD00BF74
:102CD000C45C010800E100E070B505460E461446EC
:102CE0000F2A03D9D6211A4808F01CFA0F2E03D94F
:102CF000D721174808F016FA164BDB68C3F30223F6
:102D0000C3F10702042A28BF0422191D06298CBF1B
:102D1000033B0023012101FA02F2013A32409A40BA
:102D200001FA03F3013B1C401443002D06DA05F0C1
:102D30000F052401E4B2084B5C5570BD2401E4B2D8
:102D400005F1604505F5614585F8004370BD00BF9C
:102D5000C45C010800ED00E014ED00E082B00190D9
:102D6000044B186819460B68019A1B1A9342FAD350
:102D700002B070474054002008B501460D4B1B6857
:102D80000D4AA2FB03239B09013BB3F1807F09D2CB
:102D90000A4A5360F0200A4B83F823000023936013
:102DA0000723136000224FF0FF30FFF795FF00204C
:102DB00008BD00BF08000020D34D621010E000E005
:102DC00000ED00E000B583B0224A136843F0100321
:102DD00013600320FEF744FF0020FFF7CDFF1E4BDA
:102DE0009A6942F001029A619B6903F00103019321
:102DF000019B0320FEF734FF002211466FF00B0009
:102E0000FFF76AFF002211466FF00A00FFF764FF28
:102E1000002211466FF00900FFF75EFF0022114605
:102E20006FF00400FFF758FF002211466FF0030017
:102E3000FFF752FF002211466FF00100FFF74CFF31
:102E4000002211464FF0FF30FFF746FF002003B08D
:102E50005DF804FB0020024000100240704700BFF4
:102E600000220270704700BF9368DA79034B092A89
:102E700008BF19460160002303717047F80600205F
:102E800000220270704700BF2DE9F04F85B001901D
:102E90000C46154601F1980678220021304608F0CC
:102EA0007BFE666204F1AC0BC4F838B004F1C00AD2
:102EB000C4F84CA004F1D409C4F8609004F1E8030C
:102EC0000093636704F1FC08C4F888802F69072128
:102ED000384604F023FA02900821384604F01EFA1E
:102EE00003900921384604F019FA029B00EB0340D5
:102EF000039B00EB03200AF00BF932490AF060F95A
:102F00000AF060FB304AA2FB0032920C2F49304697
:102F100008F068FF0021286904F03CFA02462C49B9
:102F2000584608F05FFF2921286904F0F7F90246A6
:102F30002849504608F056FF1821286904F0EEF998
:102F400000F038022449484608F04CFF2E693368E7
:102F5000DB6A01213046984708224E21304604F0B2
:102F6000AFF94E273946304604F0D8F910F0040F77
:102F7000F8D14F21304604F0D1F9C0F1A502D2B208
:102F80001649009808F02EFF1821286904F0C6F9A8
:102F900040B20028ACBF3222C8221149404608F096
:102FA00021FF104955F8040B01F0A2FD04F11001B6
:102FB000284601F0BDFE00230198037005B0BDE86E
:102FC000F08F00BF0024744283DE1B43905E010833
:102FD000A05E0108AC5E0108C05E0108CC5E01087D
:102FE000D85E01083055002010B5044608F09EFD5B
:102FF000204610BDF8B505460C4616460F469368A8
:10300000DB790A2B17D8DFE803F00616161608102E
:103010001616161606001A4F0DE0CB8B13B90823AF
:10302000CB8308E0013BCB8305E0CB8B082B0CBFA7
:1030300000230133CB83B368DB79FF2B15D1E38BFE
:1030400003EB830304EB8303586A08F0F7FE00EBFD
:103050004000400078280DD9A2680A4BA3FB021358
:103060009B0803EB83039A4204D104F11001301D45
:1030700001F05EFE2F6000232B712846F8BD00BFD3
:10308000F8060020CDCCCCCC2DE9F043BFB0814672
:103090000F46904601F1D4044FF4107200212046EF
:1030A00008F07AFDD8F80C200C326749204608F069
:1030B00099FED8F80C0001F0C5FAC0F30722634965
:1030C00007F58A7008F08EFE07F5AA7497F9143395
:1030D000002B32D1D8F80C5022A806F08BFDA9693C
:1030E0001822043122A806F049FCAB695B883EA98E
:1030F00021F8923D022222A806F040FC1AA922A83B
:1031000006F01AFD9DF869309DF868209DF86F1053
:1031100005919DF86E1004919DF86D1003919DF836
:103120006C1002919DF86B1001919DF86A1000914E
:10313000474907F5457008F055FE07F545724549C2
:10314000204608F04FFED8F80C309B695A88424957
:1031500007F5CA7008F046FED8F80C00183001F0E8
:10316000CBF943780278017E1691C17D1591817D5E
:103170001491417D1391017D1291C17C1191817C4B
:103180001091417C0F91017C0E91C17B0D91817B4F
:103190000C91417B0B91017B0A91C17A0991817A53
:1031A0000891417A0791017A0691C1790591817957
:1031B00004914179039101790291C178019181785B
:1031C0000091264907F5EA7008F00CFE244C2268AD
:1031D000C2F30B02234907F5057008F003FE2268CD
:1031E000120C214907F5157008F0FCFD4FF08272B2
:1031F0001E4907F5257008F0F5FD1D4A1D4907F524
:10320000357008F0EFFD07F1D40607F12004002522
:1032100066602580204601F031FC013540361434CB
:10322000092DF5D1144958F8040B01F061FC07F1A0
:103230001001404601F07CFD002389F8003048462B
:103240003FB0BDE8F08300BFE85E0108F45E01080E
:10325000605F0108085F0108105F0108185F01083E
:10326000002004E0845F0108905F01089C5F010872
:10327000B05F0108BC5F010830550020012840F014
:103280007F82F8B54FF6FF73994240F07882C64CC2
:10329000204600F01BFEC54B236040F6B833A4F86F
:1032A000503000256565C24C204600F00FFEC14B32
:1032B0002360C14B236104F120036361A576E576A9
:1032C00080222277A0226277E5830A2222832A467F
:1032D0004FF47A7403F1C8001A805A60197A62F3C5
:1032E00000011972198964F34C011981DA601A74AA
:1032F00014338342F0D1B14C204600F0E7FDB04BCF
:103300002360B04B236104F1200363610022A276A5
:10331000E27680212177A0216177E2830322228354
:1033200000224FF47A7403F13C001A805A60197A33
:1033300062F300011972198964F34C011981DA6092
:103340001A7414338342F0D19C4C002584F86850E1
:1033500084F869500C22294604F15C0008F01CFC3A
:103360002584994B63620123A386984BA36304F1E0
:10337000340001F083FB0223A4F84830944BE3644B
:1033800004F1480001F07AFB924C204600F09EFDCB
:10339000914B2360914B236104F120036361A57677
:1033A000E57680222277A0226277E58309222283B4
:1033B0002A464FF47A7403F1B4001A805A60197ADD
:1033C00062F300011972198964F34C011981DA6002
:1033D0001A7414338342F0D1814B002103F112029D
:1033E00003F8011B9342FBD1122200217C4808F014
:1033F000D3FB7C4C204600F069FD7B4B236000250D
:10340000258265822575032384F85831C4F85C5100
:10341000764C204600F05AFD754B2360FF23237441
:103420006574A574E57425756575A575E5752576CE
:1034300004F11903294603F1110203F8011B934219
:10344000FBD16A4B002283F82A20FF2183F82B103E
:1034500083F82C20674D284600F038FD664B45F870
:10346000103B00242746654E284605F13D022B46B9
:1034700003F8014B9A42FBD1EC8785F840403D228E
:10348000394608F089FB4235B542EDD1594A002151
:1034900082F820125A4BC2F8243202F50D73C2F89A
:1034A000283282F82E1282F82F12802082F8300201
:1034B000402082F83102A2F832120821A2F82C1220
:1034C00000224FF47A7403F1A0001A805A60197A2E
:1034D00062F300011972198964F34C011981DA60F1
:1034E0001A7414338342F0D1424890F8D43203F076
:1034F00080036FF3C71380F8D4324FF404720021B5
:10350000103008F049FB3F4C204600F0DFFC3E4BFA
:1035100023603E4B236104F1200363610022A27605
:10352000E27680212177A0216177E283062222833F
:1035300000224FF47A7403F178001A805A60197AE5
:1035400062F300011972198964F34C011981DA6080
:103550001A7414338342F0D100202A4C014600F142
:10356000980300F1AC022244234403F8011B934268
:10357000FBD114307828F2D1254C204600F0A6FC6F
:10358000244B23604FF4FA6323820523A3740025A0
:10359000E57465610323A4F8CA30A4F8CC501E4C2E
:1035A000204600F093FC39E09C060020D86001081A
:1035B000F8060020A0600108C85F0108380F00204D
:1035C000F05D0108D45F0108DC5F0108EC5F0108D1
:1035D00000600108E00B0020445E0108186001084B
:1035E000F40E002018040020D45D0108080F00200C
:1035F000B85D0108400100200C5E01086003002056
:103600002460010808090020686001083060010892
:10361000CC050020285E0108A40F0020594B236030
:103620002582656104F11803294603F13C0203F881
:10363000011B9342FBD10025534B83F85450534C4C
:10364000204600F043FC524B2360524B236104F1AF
:1036500020036361A576E576802222774022627797
:10366000E583042222832A464FF47A7403F1500042
:103670001A805A60197A62F300011972198964F389
:103680004C011981DA601A7414338342F0D13F4A35
:103690000021116751679167D1673F4BC2F88030B5
:1036A00002F19003C2F8843082F88A1082F88B10FD
:1036B000802082F88C00402082F88D00A2F88E10C5
:1036C0000521A2F8881000224FF47A7403F16400F7
:1036D0001A805A60197A62F300011972198964F329
:1036E0004C011981DA601A7414338342F0D1274BEC
:1036F000002583F8C051C3F8C451284C204600F07F
:10370000E5FB274B23602561A582A561257704F1A0
:1037100030037034002243F8042C43F8082C43F89B
:103720000C2C43F8102C10339C42F4D11B4B4FF05F
:103730007E51D96500229A655A651A65DA649964E2
:103740005A641A64DA639A6359631A63DA629A6292
:103750005A621962002483F860405A669A66DA66F3
:103760001A675A679A6783F87C4083F87D400D4D4D
:10377000284600F0ABFB0C4B2B602C746C61F8BD41
:10378000704700BF84600108A40F0020180A0020C1
:10379000F46001083C6001084C600108FC0F002047
:1037A000BC600108140100207C5E01080023CB836B
:1037B0000370704700220270704700BF2DE9F04788
:1037C000AAB006460D46144688469368DA68002A71
:1037D00000F0428191F82A30072B0ED091F92B008E
:1037E000B0F1FF3F76D0C0EBC000B14B184408F0F9
:1037F00025FB95F82A3098426CD1AE4B642200210B
:10380000206801F06DFD95F91930002B48D195F92C
:103810002B30B3F1FF3F63690CBF052204229A707D
:103820004B22DA7000225A609A601A735A7320226F
:10383000002106A808F0B0F90EA806F0DBF9E3684D
:103840009969182204310EA806F098F805F11107BD
:10385000384608F0F3FA024639460EA806F08EF80C
:1038600006A90EA806F068F99DF819309DF81820F1
:103870009DF81F1005919DF81E1004919DF81D10D4
:1038800003919DF81C1002919DF81B1001919DF869
:103890001A100091884905F1190008F0A3FA0CE00C
:1038A000864B78220021206801F01AFD05F11903EA
:1038B00082220021206801F013FDA3685B79002BB0
:1038C00052D10021606905F025FC2B7923F001031A
:1038D0002B7149E0A3685A790A2A42D195F82C2025
:1038E00082BB07E134220EE035220CE036220AE0EA
:1038F000372208E0382206E0392204E0302202E0D4
:103900002A2200E033222B445A74FF2385F82B30FF
:10391000674F4FF0000905F1110A5146384608F08B
:10392000A8FA874202D185F82B9005E009F1010938
:103930000737B9F1070FF0D195F82A30013385F830
:103940002A3011E05E4A12689968521AB2F5FA6F8D
:103950000AD90021D960606905F0DCFBDFF89081AD
:1039600002E0002385F82C30A3685F79554B019362
:103970001422009280230021206801F099F82A7C0B
:10398000FF2A04D150490EA808F02CFA07E0092AB2
:1039900014BF013200224D490EA808F023FA0EABE5
:1039A00014220021206801F09BFC464B01930A235E
:1039B000009380231E220021206801F079F80A2F4D
:1039C00004D143490EA808F00DFA0EE0FF2F04D1F0
:1039D00040490EA808F006FA07E0092F14BF7A1C28
:1039E00000223D490EA808F0FDF90EAB1E22002171
:1039F000206801F075FC39490EA808F0F3F90EAB08
:103A000032220021206801F06BFC05F111023449DB
:103A10000EA808F0E7F92B4B01930A2300938023AB
:103A200046220021206801F043F895F92B30B3F1CC
:103A3000FF3F20684FF0000103914FF00103029314
:103A400000F10C03019314BF264B274B00930EABE0
:103A5000462201F00DF98BE05F790B7C0A2B01D136
:103A6000002F6FD0BB4200F083802F74154D01955D
:103A70001422009280230021206801F019F801959A
:103A80000A23009380231E220021206801F010F8F1
:103A9000092F01D07A1C00E0002214490EA808F07A
:103AA000A1F90EAB1E220021206801F019FC5FE095
:103AB0007C10002008610108605F0108186101089E
:103AC00040540020305500202C610108406101085D
:103AD000546101086C61010880610108946101086A
:103AE000A0610108F8530020A4530020AC61010834
:103AF000F8060020012385F82C30A368DB792B74AD
:103B000095F82A30A268D279092A3FF6F9AE01A1C8
:103B100051F822F0413B00083D3B00080539000800
:103B2000E5380008E9380008ED380008F1380008E9
:103B3000F5380008F9380008FD3800083222E2E6BE
:103B40003122E0E60F740E4D01951422009280237D
:103B50000021206800F0ACFF01950A230093802328
:103B60001E220021206800F0A3FFDFF8188091E7F3
:103B7000C6F800800023337130462AB0BDE8F087D4
:103B800030550020F806002030B585B005460C46BB
:103B900010680123039302930C4B01930C4B009389
:103BA00001F110030A22002101F062F8094B1B68A1
:103BB000B4F85020E1685B1A9A423ABF064B2B607A
:103BC0002C6000232B71284605B030BD30550020F5
:103BD0004052002040540020F8060020F8B5074667
:103BE0000D461646FF230B741D49106800F080FF38
:103BF0000822002105F1110007F0CEFF112200215B
:103C000005F1190007F0C8FF164C312200212046AB
:103C100007F0C2FF144A204602F1310ED41D0146BE
:103C200012F9013B643B01F8013BA242F8D1073095
:103C30002246A645F2D1002385F82A30FF2285F8D6
:103C40002B2072691380B368DB682BB9074B0A22FB
:103C50000021306801F044FB00233B703846F8BD7A
:103C6000305500207C1000207C620108B8610108FA
:103C700010B504460349106800F03AFF0023237092
:103C8000204610BD3055002010B5044607F04EFF09
:103C9000204610BD10B5044607F048FF204610BD71
:103CA00010B5044607F042FF204610BD10B504468B
:103CB00007F03CFF204610BD70B506460C460023B9
:103CC0000B84D36893F90C30C3B15F2B19D115E085
:103CD0000123A386254BA3630223A4F84830244B79
:103CE000E3640323A4F85C30224B93F8D43213F03E
:103CF000800F14BF204B214B236605E0204B6362ED
:103D0000E6E7204B4B62E3E70423A4F870301E4B38
:103D100063670523A4F884301C4BC4F8883006235D
:103D2000A4F898301A4BC4F89C300723A4F8AC30A0
:103D3000184BC4F8B0300823A4F8C030164BC4F8B0
:103D4000C4300923A4F8D430144BC4F8D830154635
:103D5000134955F8040B00F0CBFE04F1100128467E
:103D600000F0E6FF00233370304670BDCC610108DF
:103D70003C60010840010020D4610108E4610108B1
:103D8000406201084C620108F4610108F861010811
:103D9000086201081462010820620108306201080B
:103DA00030550020704700BF704700BF08B5402263
:103DB000103008F04BF808BDF8B504460D4616461D
:103DC0000F469268D3790A2B46D8DFE803F01545F1
:103DD0004545060E454545451800EB8B13B90923AB
:103DE000EB834BE0013BEB8348E0EB8B092B0CBFF3
:103DF00000230133EB8341E00023EB833EE0E98BBA
:103E00000A2929D8DFE801F034080636181A1C1EE2
:103E1000202226001E4F25E0F36893F90C305BBB8F
:103E20001C4F1D493846FFF7C1FF1C4B7B6540F610
:103E3000B833A7F8503021E0194F13E0194F11E0C3
:103E4000194F0FE0194F0DE0194F0BE0194BD360DC
:103E5000174F13E0184F05E0B268D279FF2A11D04E
:103E6000092B0FD005F11001301D00F061FF09E0B2
:103E7000124FF7E7124FF5E7124FF3E7B368DB791C
:103E8000FF2BEFD12760002323712046F8BD00BF30
:103E9000180A00209C06002058620108F80600203D
:103EA000FC0F002018040020E00B0020080900206F
:103EB000080F0020B010002014010020380F00204F
:103EC00040010020CC050020704700BF054A026079
:103ED00000220271416862F31F2141608260C2606A
:103EE000704700BF605E010800220270704700BF8B
:103EF000002381F858310370704700BF2DE9F04F5F
:103F0000ADF2244D05900491924691F85831032B5F
:103F100000F2C681DFE803F0028397A9AB49DAF823
:103F2000000000F0E5FDAA4A136803F6B8330498D0
:103F30000146C0F85C3113681C4606930023438297
:103F4000204604F00103002B0CBF6D2376230C46A2
:103F50000B7507F0D5FE07F0FBFE9E4B83FB00368A
:103F6000C317C3EB2613322606FB130636B204F141
:103F700018054FF480720021284607F00DFE04F565
:103F80008C7BDFF85082642700244FF0010907F092
:103F9000DFFE88FB0032C317C3EB621307FB13007D
:103FA000B04204DA09FA04F32A6813432B6001349F
:103FB000202CECD10435AB45E6D107F0C9FE864A8A
:103FC00082FB0032C317C3EBE20202EB8202C2EBB8
:103FD0000212821A643292B204980282012380F89B
:103FE0005831069B03F6B833C0F85C317B4900F5C5
:103FF0008C7007F0F7FE07F0ABFE794B83FB0023D4
:10400000A3EBE07303EB4303A0EB4301C9B2DAF87F
:10401000140005F07FF80022724B1A7040E1012372
:1040200003930293704B0193684B0093049C04F537
:104030008C730A220021DAF8000000F019FE022336
:1040400084F858312CE1624B1A68049BD3F85C3138
:104050009A42C0F025810323049A82F858315B49C3
:10406000DAF8000000F044FD1AE104994A8A0B8A4C
:104070009A4203D3002381F8583111E1049B03F1E4
:1040800018070A260025DFF860B1DFF84091002408
:104090004FF0010808FA04F33A6813420AD0A1006D
:1040A00089B25B463246DAF8000000F03FFD013588
:1040B000ADB207E0A10089B24B463246DAF8000003
:1040C00000F034FD0134202CE4D10236B6B20437BE
:1040D0008A2EDCD1C5B9049C628A444904F58C70EF
:1040E00007F080FE238A01336382012384F858316C
:1040F000374B1B6803F6B833C4F85C313349DAF840
:10410000000000F0F5FCC7E0049C23461833194674
:10411000069394F914504FF4807208A807F031FD0B
:104120000DF1240B234604F11C090127CDF81CA036
:104130004FF0FF3A4FF0010C0CF1FF326D2D57D1CB
:1041400059F8040C07FA02F207FA0AFED9F80040FF
:10415000D9F8046007FA0CF110EA0E0F14BF01231E
:10416000002300EA0208B8F1000F18BF01330EEA7D
:104170000408B8F1000F18BF01330EEA060EBEF1B5
:10418000000F18BF013302EA060EBEF1000F18BF80
:1041900001330E40002E18BF01330C40002C18BF15
:1041A00001330140002918BF0133991E012905D9A7
:1041B000DBF8001021EA0201CBF80010032B47D1F5
:1041C000DBF800301A43CBF8002041E030550020E6
:1041D000405400201F85EB51B5814E1BB062010891
:1041E000ABAAAA2A0211002040520020C86201088E
:1041F000762D2DD107FA02F2D9F8004007FA0AF31A
:10420000234214BF0123002359F8041C1140002944
:1042100018BF0133D9F8040002EA0001002918BFD1
:10422000013307FA0CF1214000290CBF1946591C33
:104230008B1E012B05D9DBF8003023EA0203CBF8F3
:104240000030032904D1DBF800301A43CBF80020FA
:104250000CF1010C0AF1010ABCF1210F7FF46CAFE3
:104260000BF1040B09F1040947AB5B457FF460AF28
:10427000DDF81CA04FF4807208A9069807F072FCC4
:1042800020B34FF4807208A9069807F07AFC03E087
:10429000049A138A01335382049A538A0133538256
:1042A000DAF80830DB79FF2B05D1059A0499116003
:1042B0000023137112E00021DAF8140004F02AFF41
:1042C000094B05990B6000230B7107E0074A13782F
:1042D0000133DBB21370062BDAD8DDE705980DF257
:1042E000244DBDE8F08F00BFF80600200211002029
:1042F00010B5044607F01AFC204610BDF8B50C4670
:104300004B7803F0040303F0FF025BB36E4B1B68B2
:10431000C9685B1A40F6B8318B4223D9C379FF2BA9
:1043200020D1238843F30903002B03DB94F9081001
:104330006268D15423885A1C42F3090262F30903CC
:10434000238063899A4204DB013B228863F30902DC
:104350002280FF2323762023237263786FF3820366
:1043600063708BE0C579FF2D00F08880092D16D889
:10437000DFE805F0A605A807090B0D0F1113534E32
:1043800010E0534E0EE0534E0CE0534E0AE0534EF5
:1043900008E0534E06E0534E04E0534E02E0092D70
:1043A0006CD80026237EAB420BD1277C0137FFB2AD
:1043B0002774304607F042FD87421DD30023237443
:1043C0001AE000232374BAB1238843F30903002BB6
:1043D00003DB94F908106268D15423885A1C42F315
:1043E000090262F30903238063899A4204DB013BDB
:1043F000228863F309022280237CF356082B34D1F0
:10440000238843F3090362680021D154238803F20F
:10441000FF3343F309038B4204DB228863F3090271
:10442000228003E023886FF309032380238843F36A
:10443000090362680021D154238803F2FF3343F358
:1044400009038B4204DB228863F30902228003E024
:1044500023886FF30903238020232372FF2323760D
:1044600063786FF38203637008E0237225766378C4
:1044700043F004036370144B1B68E360124B1B682A
:104480001A4AA2FB03235B096269934208D0636165
:10449000637883F00802C2F3C00262F3C30363705F
:1044A000238843F3090323EAE373627812F0080FC9
:1044B00019BF62685F2194F908106268D154F8BD91
:1044C0000B4E6FE70B4E6DE7405400203063010840
:1044D00020630108186301081063010808630108DC
:1044E00000630108F8620108F0620108D34D621010
:1044F000386301082863010810B50068104A1149A3
:10450000043001F0DBFC40B10D490E4801F0FAF92E
:1045100001280C4C18BF002400E00024621E0A4B46
:1045200003F1180012F8011F03F8011F9842F9D196
:10453000054894F82F3003F001030233037010BDD7
:1045400008540108B8100020E810002070B584B0AD
:1045500004460E46FEF7E4F93422394BDA60A568CA
:10456000636805F1240103F50062914210D3002233
:10457000019202930123039304A941F8102D01A88D
:10458000FEF7FAF808B1002455E06368A36023E061
:104590000022002329460120FEF7D6F9A168002257
:1045A000002302310220FEF7CFF9A1680022002388
:1045B00006310220FEF7C8F9A168002200230A3163
:1045C0000220FEF7C1F9A168002200230E3102206B
:1045D000FEF7BAF91235A5604DF6DC420023A1685A
:1045E0000120FEF7B1F9A1683268002302310220F0
:1045F000FEF7AAF9D0B9A568E2680023A91D022038
:10460000FEF7A2F9A0B92269002305F10A010220F0
:10461000FEF79AF970B96269002305F10E010220D4
:10462000FEF792F9B0FA80F4640904E0002402E095
:10463000002400E00024FEF769F9204604B070BDB4
:10464000002002408368D3F80200704770B5064628
:104650000C461546FFF7F6FFC0F30720A0421DD910
:10466000327F104BA3FB041302EB1313717F0A4438
:10467000934215DA0B4AA2FB0412120902EB420123
:10468000C2EBC102A41AA4B2582202FB04F404F142
:10469000006404EBC3232B60012070BD002070BDBB
:1046A000002070BDC94216B22DE9F04F89B0824694
:1046B000894617469846129DFFF7C4FFC0F30726A8
:1046C000741CE4B2422C0AD85046FFF7BBFF00909E
:1046D0008DF8014069465046FFF738FF00E042245C
:1046E000A64200F0D88008AA4FF0FF3342F8043DFC
:1046F00031465046FFF7AAFF0646002800F0CC805E
:10470000FEF70EF9DFF898A14FF0340BCAF80CB0A1
:104710001FFA89F2002307990120FEF715F9FEF729
:10472000F5F8FEF7FDF8CAF80CB0DDF81C9000248F
:104730003A68234609F14C010220FEF705F97A6830
:10474000234609F150010220FEF7FEF8BA6823461D
:1047500009F154010220FEF7F7F8FEF7D7F8079F9A
:104760001A222146684607F017FA19224146684680
:1047700007F007FAFEF7D4F8CAF80CB0009A2346FF
:10478000B91C0220FEF7E0F8019A2346B91D022069
:10479000FEF7DAF8029A234607F10A010220FEF733
:1047A000D3F8039A234607F10E010220FEF7CCF856
:1047B000049A234607F112010220FEF7C5F8059A74
:1047C000234607F116010220FEF7BEF8069A23469B
:1047D00007F11A010120FEF7B7F8FEF797F8079FD7
:1047E000FEF79EF8CAF80CB02A68234607F11C01B0
:1047F0000220FEF7A9F86A68234607F1200102208B
:10480000FEF7A2F8AA68234607F124010220FEF76A
:104810009BF8EA68234607F128010220FEF794F886
:104820002A69234607F12C010220FEF78DF86A69F8
:10483000234607F130010220FEF786F8AA692346D5
:1048400007EB0B010220FEF77FF8EA69234607F128
:1048500038010220FEF778F82A6A234607F13C0166
:104860000220FEF771F86A6A234607F14001022030
:10487000FEF76AF8AA6A234607F144010220FEF710
:1048800063F8EA6A234607F148010220FEF75CF864
:10489000FEF73CF800E00026304609B0BDE8F08F96
:1048A00000200240D9B12DE9F04188461546064660
:1048B000FFF7C8FEC0F3072777B100242A46A1B24C
:1048C0003046FFF7C3FE034618B12A6812884245F6
:1048D00008D00134BC42F1D100232B6002E0002358
:1048E000184670471846BDE8F08100BF10B582B089
:1048F000416801F50062914214D20C884DF6DC4308
:104900009C4204D01C460AE00B88A34207D1816078
:104910000C220631104407F099FA012017E01231F9
:104920009142F1D3826000228DF8042001238DF89A
:1049300007309DF8063003F0F003032161F30713FD
:104940008DF806308DF8052001A9FFF7FFFD02B0B4
:1049500010BD00BF00220270704700BF30B583B0A9
:104960008488A1420EDAC588AA420BDA5D18013D9F
:10497000AC42DCBF641A23B240690468069D00950E
:104980002469A04703B030BD30B583B08488A1420C
:104990000EDAC488A2420BDA9D18013DAC42DCBF9E
:1049A000A31A1BB240690468069D0095E468A047FD
:1049B00003B030BD704700BF10B50446037A13F052
:1049C000010F1DD0C36813B90F4B1B68C3600E4B9A
:1049D0001B68E2689A1A2389C3F34B039A420DD9E4
:1049E000094B1B68E360237C01332374606807F084
:1049F00025FA237C98429CBF00232374237C00E08B
:104A000000236068184410BD4054002010B50446CF
:104A100007F08CF8204610BD10B5044607F086F864
:104A2000204610BD2DE9F0418046114DEE6A114F30
:104A300001233B70104C204601F0FCFE00236B620A
:104A4000C5F82C8023686FF001021A61204601F03E
:104A500031FF3B78DBB2012B05D13A4630BF1378EA
:104A6000DBB2012BFAD0024BDE62BDE8F08100BF61
:104A700000040040245500209854002010B504463E
:104A8000406807F0DBF900EB40004000782807D9C8
:104A9000237A43F0010323720023E360237410BDE3
:104AA000237A6FF30003237210BD00BF704700BF6D
:104AB000F0B583B0BDF920508488A14215DAC688CC
:104AC000B24212DA5F18013FBC42DCBF641A23B263
:104AD000AC18013CA642DCBFB51A2DB2406904688F
:104AE000099E01960095A468A04703B0F0BD00BFE1
:104AF00000B583B0B0F904300191B0F906200092FE
:104B000000221146FFF7D4FF03B05DF804FB00BF9D
:104B100038B5044600250D7403491068FFF7E8FF17
:104B20002570204638BD00BF3055002010B54069C3
:104B30000468A469A04710BD2DE9F04F8DB0DDF8E1
:104B400058B09DF860A08488A14280F28E80C4880D
:104B5000A24280F28A800AEB8A040C44012C00F104
:104B6000848002EBCA04012C7FD405692C78002CC8
:104B70007BD00B930A9103900023069393B21946BE
:104B8000089308331FFA83F90991013C06998C4276
:104B900006D0AB786A680B9800FB03235F5C00E0EB
:104BA00000271FFA8AF8BDF81820BDF8283018FB36
:104BB00002F1194409B20491089C099D2E460FFA8E
:104BC0008AF1059113449BB2079317F0010F13D09C
:104BD000BAF1010F06D15B46224607990398FFF709
:104BE000A5FF2CE0CDF804B0059B00932AB20499F0
:104BF0000398FFF75DFF22E09BF80020179B1B78CE
:104C00009A422ED19BF80120179B5B789A4228D1BB
:104C10009BF80220179B9B789A4222D10FE0179BAA
:104C2000224607990398FFF781FF08E0179B01933D
:104C3000059B009332B204990398FFF739FF7F0870
:104C40000134A4B24544ADB24644B6B2A145BCD18C
:104C5000069B01330693039A15692C789C4294DCD9
:104C600003E0BAF1010FE1D1D9E70DB0BDE8F08F53
:104C70002DE9F04F87B006460D4614461F460593B2
:104C8000DDF840A0DDF844B09DF848809DF84C90D8
:104C900093F9003033B3B288AA4241D2B9F1000F80
:104CA0003AD1059BF81A3FE00D2B06D133695B78AA
:104CB00003FB0844A4B200250FE0CDF80880CDF82E
:104CC00004B0CDF800A022B229B23046FFF734FF7D
:104CD00033691B7803FB0855ADB217F9013F002B70
:104CE000D9D100E0059F059BF81A1DE03269527882
:104CF00002FB0844A4B2CDF80880CDF804B0CDF88A
:104D000000A022B200213046FFF716FF33691D785C
:104D1000E3E70A2BC8D1C9E7F288A242E6D2C0E78E
:104D2000F288A242F5D2BCE707B0BDE8F08F00BF21
:104D3000002900F0E7812DE9F04F89B00C460746C5
:104D40000B7BCA7A897AB9480190607B00903868F9
:104D5000FFF7AEFE3E6894F80A900FFA89F3194601
:104D600094F80BA00FFA8AF31A46257B013DADB2E9
:104D70002BB2079394F80D800FFA88F00690DFF8B5
:104D8000B4B2CDF800B0059204913046FFF7E6FDCD
:104D9000CDF800B0069B059A04993046FFF7F4FD64
:104DA000F2880AEB08039342A6BF02F1FF3212B267
:104DB0000AEB0802DFF87CB2CDF800B0079B04993B
:104DC0003046FFF7CBFD05EB0901CDF800B0069B9F
:104DD000059A09B23046FFF7D7FDE67A0236F6B2F9
:104DE00094F80A9009F104095FFA89F923688BB1F4
:104DF00000220392012202928C4A01928C4A009274
:104E0000324649463868FFF733FF3B681B695A78DA
:104E10001644F6B294F80D80A8F103033A681269BB
:104E200092F8018093FBF8F82368002B18BFA8F1D3
:104E300001085FFA88F81FFA88F5228995424CD359
:104E4000002A00F04F8100251FFA89F30493DFF850
:104E5000E0A1DFF8D891E389AB4218D038686368E5
:104E600005EB850203EB82035B680269527812FB53
:104E700005F232440021039101210291CDF8049002
:104E8000CDF800A092B20499FFF7F2FE1FE0D7F828
:104E900000B0DBF8103093F8018018FB05F8B0443F
:104EA0001FFA88F805EB8500636803EB8000FFF7C5
:104EB00083FD0023039301230293CDF804A0CDF8D2
:104EC00000900346424604995846FFF7D1FE01354B
:104ED000ADB22389AB42BED804E1E38919464FEA5B
:104EE0005800824602F1FF3EC3EB0E0E864550DAB3
:104EF000551BADB2AA4240F2F5801FFA89F3049324
:104F0000DFF828A1DFF82891E389AB421AD038688E
:104F1000636805EB850103EB81035B68AA1A4244D1
:104F20000169497811FB02F2324400210391012109
:104F30000291CDF804A0CDF8009092B20499FFF749
:104F400097FE20E0D7F800B0AA1A4244DBF81030F0
:104F50005B7813FB02F333449BB2059305EB8500AA
:104F6000636803EB8000FFF727FD00230393012311
:104F70000293CDF80490CDF800A00346059A049959
:104F80005846FFF775FE0135ADB22289AA42BBD85B
:104F9000A8E082B293424FD2002D00F0A3804FF0E0
:104FA000000AD0461FFA89F30493DFF88490DFF8F3
:104FB0007CB0E389434515D03868636853445B6827
:104FC0000269527812FB08F2324400210391012158
:104FD0000291CDF804B0CDF8009092B20499FFF799
:104FE00047FE1AE03B6805931B695B7813FB08F3E7
:104FF00033449BB2069360685044FFF7DDFC002306
:10500000039301230293CDF80490CDF800B003463A
:10501000069A04990598FFF72BFE08F101081FFA7C
:1050200088F80AF1140A4545C3D15BE030550020E9
:1050300040520020F85300209D1AADB22A46C346C4
:10504000181A804445454DDA1FFA89F00490DFF8BC
:10505000BC90DFF8B4809D421AD03868636805EBD5
:10506000850E03EB8E035B68521A5244016949783E
:1050700011FB02F232440021039101210291CDF88B
:105080000490CDF8008092B20499FFF7F1FD1FE083
:105090003B68521A524405931B695B7813FB02F379
:1050A00033449BB2069305EB8500636803EB8000F5
:1050B000FFF782FC0023039301230293CDF80480C1
:1050C000CDF800900346069A04990598FFF7D0FDA5
:1050D0000135ADB22A46E3891946CAEB03005844AC
:1050E0008542B8DBA17A237B0B44B21E3868064C9C
:1050F0000094023B12B20231FFF730FC002009B0ED
:10510000BDE8F08F0020704740520020305500204D
:105110002DE9F04391B006460C4615460B7C022B58
:105120005FD0032B00F09D80002B40F0A080C822B0
:105130003021286902F0C4F801238DF810300023D3
:105140008DF811308DF812300DF1130300210DF19F
:105150001F0203F8011B9342FBD1E9688B695B884E
:10516000ADF811300C310DF1130006F05FFE012790
:1051700003970297DFF86091CDF80490DFF85C8127
:10518000CDF800804A4B0A2202212868FFF770FD03
:1051900003970297CDF80490CDF80080454B282264
:1051A00002212868FFF764FD28690368282201921C
:1051B000032200925F680F2304AA4FF6FE71B847DE
:1051C00018B102232374274652E03B4F3B4938462F
:1051D000FEF7ECFD3A4B7B6540F6B833A7F850304C
:1051E00046E0106903689B68984748B3354B1B78C5
:1051F000DBB2062B4FD1344B1B889BB24FF6FE72AD
:10520000934242D1314BD3F80220314904A806F031
:10521000E9FD304F39462868FFF76AFC0123039304
:105220000221029101972C4B009304AB1E222868A7
:10523000FFF71EFDA368643363610323237424E036
:10524000A26842F210739A421FD91B4F1B4938467D
:10525000FEF7ACFD1A4B7B6540F6B833A7F850302B
:1052600006E04A698B689A420FD2154F00E00F465C
:10527000AB68DB79FF2B00D0114FA74210D0012281
:105280003021286902F01CF80AE0AB68DB79FF2BBB
:10529000F2D1274604E0AB68DB79FF2BECD127463F
:1052A000376000233371304611B0BDE8F08300BF92
:1052B000406301085C6301089C0600207C630108D0
:1052C000F8060020B9050020000800207C05002019
:1052D00098630108F8530020305500204052002008
:1052E00030B585B00446002503950125029500F1EF
:1052F0000C05019509340094FFF7BAFC05B030BDE8
:1053000010B584B003695C78012303930293064BC4
:105310000193064B0093134604FB01F20021FFF7B3
:10532000A7FC04B010BD00BF305500204052002043
:1053300008B5406903685B69984708BD00B50B78FC
:105340000848A0FB03239A094B78A0FB03E39B09C1
:105350009B0043EA02138A78A0FB022043EA9010E4
:105360005DF804FBC1C0C0C0F0B587B005460E466D
:10537000062200F01BFF062206F11801684600F025
:1053800015FF06236A462946284601F061F80446BF
:10539000002701970097B3690293F3690393336A77
:1053A0000493736A059306236A462946284601F04A
:1053B0004FF80444B36A02930093F36A0393019392
:1053C0000597049706236A462946284601F040F8C7
:1053D00004440A4F062606E033463A462946284644
:1053E00000F0FCFF241A002CF6D13246294638463C
:1053F00000F0B4FE0128EFD107B0F0BD0C54010855
:105400002DE9F04395B007468946164698461C9C00
:1054100014F9045B00952346024631460EA801F0BC
:1054200055F81C9A0EA9084600F084FE1C9B0EAA93
:105430003946384600F06EFE1C9B0EAA31463046B7
:1054400000F068FE009523464A4641460EA801F04A
:105450004DF8009523464A464146404601F036F84D
:10546000009523463A46314608A801F02FF81C9BC8
:1054700008AA4946484600F04DFE009523463246AC
:10548000394608A801F032F81C9A4146304600F02F
:1054900051FE0095234608AA3146304601F016F821
:1054A000009523463246394602A801F00FF81C9BAE
:1054B00002AA4146404600F02DFE009523464A468A
:1054C0004146404601F002F81C9A0EA902A800F0DD
:1054D00031FE0095234608AA02A9084600F0F6FF0F
:1054E000009523463A4602A908A800F0EFFF1C9B4E
:1054F0000EAA08A9084600F00DFE009523464A466C
:1055000008A9484600F0E2FF2A4602A9384600F002
:105510004DFE15B0BDE8F0832DE9F04188B004469A
:105520008846164600230393049305930693079336
:1055300003230293154615F9047B00F0FBFD009749
:105540002B4602AA2146204600F0C0FF33464246C1
:105550002146204600F0DEFD00972B4606F164024E
:105560002146204600F0C2FF08B0BDE8F08100BF30
:10557000F0B58DB006460D460023079308930993B6
:105580000A930B93012206920193029303930493CF
:105590000593009211F9047B3B4606AA104600F0E1
:1055A00057FF394606A800F011FE013804B2012C5D
:1055B00013DD2A466946684600F0BCFD214606A870
:1055C00000F02AFE28B12B4632466946684600F0B4
:1055D000A1FD013C24B2012CEBD13A46694630468C
:1055E00000F0E4FD0DB0F0BD2DE9F0478EB00546AA
:1055F000894614461F4693F900603146104600F074
:1056000015FE002840F09A803A46494608A800F066
:1056100091FD3B4608AA294602A800F07BFD3A46C8
:1056200008A9084600F086FD3B4622464946484602
:1056300000F070FD3A462146204600F07BFD07F160
:1056400004080096434622462946284600F04EFFAD
:105650000096434622462146204600F047FF00962A
:10566000434622462946204600F030FF3B4622466C
:105670002946284600F04EFD009643462A46294614
:10568000204600F033FF009643462246294628462E
:1056900000F02CFF0021284600F0BEFDA0B13346EB
:1056A00042462946284600F0D3FE82463146284627
:1056B00000F046FD06F18043013B55F8232042EA05
:1056C000CA7245F8232003E03146284600F038FD31
:1056D0003A462946204600F02DFD0096434602AA90
:1056E0002146204600F0F2FE0096434602AA2146DB
:1056F000204600F0EBFE00964346224602A90846EB
:1057000000F0E4FE3B4602AA2946284600F002FDCE
:105710000096434608AA2946104600F0D7FE3246B6
:105720002146284600F042FD32464946204600F018
:105730003DFD324608A9484600F038FD0EB0BDE8F0
:10574000F08700BF70B5044616460369456905EB4E
:1057500043056BB10139681E002311F8012F82F057
:105760005C0200F8012F013322699A42F5D800E06B
:105770000023E2689A4207D9EA185C2002F8010B7C
:105780000133E1689942F9D8A36831462046984729
:105790002368204698476368E26829462046984770
:1057A00063682269314620469847A36831462046FF
:1057B000984770BD08B54368984708BD38B504469A
:1057C0000369456905EB43056BB10139681E002388
:1057D00011F8012F82F0360200F8012F01332269FF
:1057E0009A42F5D800E00023E2689A4207D9EA1805
:1057F000362002F8010B0133E1689942F9D8236899
:10580000204698476368E26829462046984738BD95
:1058100070B504460E461546FFF7D0FF22692946AB
:105820002046FFF7C7FF2A4631462046FFF78AFF8A
:1058300070BD00BFF8B504460E461546D11C48BFE2
:10584000033141F3870100F005FD002D14DD002335
:105850001A466F1EFB1A9808B15C03F00303DB00C5
:1058600001FA03F354F820100B4344F820300132BE
:1058700052B213469542EDDCF8BD00BF2DE9F84366
:10588000054689461E46B3F90230DC1D48BF073481
:10589000E4101F3348BF1F334FEA6318944228BFF8
:1058A00014464FFA88F7394600F0D4FC22464946A0
:1058B0002846FFF7BFFFE400B6F9022094421FD943
:1058C000A21A05EB88039D420CD20021C2F1200EE2
:1058D00053F8044D24FA02F00143196004FA0EF162
:1058E0009D42F5D31C363A462946304600F036FC38
:1058F000012805D03B4632462946284600F06EFD79
:10590000BDE8F8832DE9F04198B005460C4691F9C1
:10591000012001460CA8FFF78DFF94F9011094F9BE
:1059200000000A4629440CAB03EB8000FFF782FF1E
:1059300094F90060F5B2690049B20CA800F076FC59
:10594000A0BB271D32460CA9384600F007FC0128F1
:105950002ED10CAB03EB860832464146384600F0A8
:10596000FDFB012826D122464146684600F0E2FBB5
:10597000D4F8843022460CA906A89847013D6DB2A0
:10598000002D0EDB002018AB03EB850252F8601CE3
:1059900052F8483C4B401843013D6DB2002DF2DAFD
:1059A00000E00020B0FA80F0400904E0002002E0AE
:1059B000002000E0002018B0BDE8F081002913DDD0
:1059C00070B400231C464E1EF31A9D0803F0030317
:1059D000DB0052F8255025FA03F30355013464B275
:1059E00023468C42F0DB70BC704700BF2DE9F041CC
:1059F0008CB080460E46144692F900700DEB870578
:105A000092F90120411C6846FFF714FFD4F8843056
:105A10002246694628469847D4F8803021462846D1
:105A2000984798F800205DF82730534013F0010F95
:105A300006D0214611F9043B2A46284600F0CEFC48
:105A40006A4694F901103046FFF7B8FF94F9010057
:105A50002A4601463044FFF7B1FF0CB0BDE8F081A3
:105A60002DE9F0410F469046B3F9026016F11F048C
:105A700048BF1F3444F3471403F11C0523462A464C
:105A80000146384600F0E4FC50B9B6EB441F09DA91
:105A90003146384600F0C0FB061C18BF012602E064
:105AA000012600E0002623462A463946404600F0FB
:105AB000CFFC3046BDE8F0812DE9F04389B0804647
:105AC000894614461F46109D15F9046B00962B4617
:105AD0000246214602A800F0F9FC109A02A90846E5
