:020000040800F2
:1000000000800020950100086DB0000869B000086C
:1000100065B0000861B000085DB000080000000095
:1000200000000000000000000000000059BA0008B5
:1000300059B000080000000059BA000849B0000893
:1000400059BA000859BA000859BA000859BA000844
:1000500059BA000859BA000859BA000859BA000834
:10006000A9B0000859BA000801B0000859BA000840
:1000700059BA000859BA000859BA000839B000083E
:1000800059BA000859BA000859BA000859BA000804
:1000900035B0000859BA000859BA000859BA000822
:1000A00059BA000859BA000859BA000859BA0008E4
:1000B00059BA0008E1AE000859BA000859BA000858
:1000C00059BA000859BA000859BA000859BA0008C4
:1000D00059BA000859BA000859BA000859BA0008B4
:1000E00059BA000859BA000859BA000800000000BF
:1000F0000000000000000000000000000000000000
:1001000000000000000000000000000059BA0008D4
:1001100059BA000859BA000859BA0008000000008E
:1001200025B0000815B0000859BA000859BA0008EF
:1001300059BA0008000000000000000000000000A4
:1001400059BA000859BA0008000000000000000079
:10015000000000000000000000000000000000009F
:10016000000000000000000059BA000859BA000859
:1001700059BA000800000000000000000000000064
:100180000000000059BA0008FEE700BFFEE700BF0C
:10019000FEE700BF5948004708B506F06BF9474B2A
:1001A000474A9A60474B484A9A421FD214461D4616
:1001B000226863680C3454F8040C984205D952F84C
:1001C000041B43F8041B9842F9D8AC42F0D30DE06D
:1001D00050F8083C50F8042C934203D243F8041B17
:1001E0009A42FBD80830A042F2D10DE0374B384A92
:1001F0009A4209D202F10800DC1D241A24F00704F7
:10020000044408340021E3E7324B5B6803F00C033D
:10021000042B06D0082B08D01BBB2F4A2F4B1A608B
:1002200022E02D4A2D4B1A601EE02A4A536852687C
:10023000C3F38343023312F4803F05D1284A02FB03
:1002400003F3264A13600FE0224AD26A02F00F023B
:1002500001322149B1FBF2F203FB02F31F4A1360A2
:1002600002E01D4A1D4B1A601A4B5B681B4AC3F320
:1002700003131C49C95C1368CB4013601A4E1B4B17
:100280009E1BB610002E07DD174D002455F8043BC9
:1002900098470134A642F9D1154E164B9E1BB61055
:1002A000002E07DD124D002455F8043B9847013419
:1002B000A642F9D11049012000F03AF800ED00E023
:1002C00000000008180300080003000828030008C5
:1002D000180300080010024000127A0008000020F5
:1002E00000093D00446301082803000828030008B2
:1002F000280300082C0300080C00002099010008C6
:10030000906D0108000000207C000020906D010825
:100310000000001000000010800000202455002084
:100320000000001000000010F9AC0008CDAC00087F
:100330002DE98048B9B008F09FFE08F09DFE08F056
:100340009BFE02F02DFD012312934FF48033139393
:1003500000221492022219921A934FF480131B93D5
:1003600012A801F083FC00B1FEE70F230D930223D6
:100370000E9300230F934FF480621092119301218A
:100380000DA808F0F5FB00B1FEE74FF40033209311
:100390004FF480032C9320A808F038FA00B1FEE750
:1003A000B64B1B68B648A0FB0330800902F066FC20
:1003B000042002F049FC002211464FF0FF3002F009
:1003C00089FCB04D6B6943F400236B616B6903F4E6
:1003D00000230A930A9B6B6943F480036B616B698A
:1003E00003F480030993099B6B6943F400336B6149
:1003F0006B6903F400330893089B6B6943F4802313
:100400006B616B6903F480230793079B6B6943F46B
:1004100080136B616B6903F480130693069BDFF80E
:100420008C8200224EF2CF31404602F025F8DFF8F0
:1004300080A200221021504602F01EF800224FF444
:10044000F0614FF0904002F017F88F4F002245F214
:100450002041384602F010F84EF2CF3320930126A7
:10046000219600242294239420A9404602F01CF8EF
:100470004FF01009CDF8809021962294239420A962
:10048000504602F011F84FF4F06320932196229425
:10049000239420A94FF0904002F006F8CDF8809008
:1004A000DFF81092CDF88490229420A9404601F004
:1004B000FBFF0A2002F0F8FB45F22043209321962F
:1004C0002294239420A9384601F0EEFF4FF40063F4
:1004D0002093CDF88490229420A9384601F0E4FFBF
:1004E00004232093694B2193229420A9684801F0AA
:1004F000DBFF22462146082002F0ECFB082002F038
:10050000D3FB4FF40078CDF880802196229403230A
:10051000239320A9384601F0C7FF6B6933436B6111
:100520006B6933400593059B6B6943F002036B6174
:100530006B6903F002030493049B224621460F20BB
:1005400002F0C8FB0F2002F0AFFB22462146382004
:1005500002F0C0FB382002F0A7FB224621463920DA
:1005600002F0B8FB392002F09FFB4A484A4B036077
:100570004FF4827343604FF4004383604FF4E063B1
:10058000C36004614461C0F81880C46104624462BD
:1005900084620723C36204630823436307F088FF70
:1005A00000B1FEE73D483E4B03600023436083609B
:1005B0004FF49E62C26003614361836106F05CF99F
:1005C00000B1FEE7354806F07BF800B1FEE7602396
:1005D00012934FF41E7313930023149315931693E1
:1005E0001793189340F27B612E480AF041FD149B4B
:1005F00033F0020304D040F27C612A480AF038FD4F
:10060000264B93F83C30012B36D0244B012283F843
:100610003C20022283F83D201B68234A93421BD0D2
:10062000B3F1804F18D0A2F59432934214D002F562
:100630008062934210D002F59C3293420CD002F5B6
:100640008062934208D002F58062934204D04FF456
:10065000D16114480AF00CFD104C12A9206805F075
:100660009BFF012384F83D30002384F83C3023684D
:100670000D4A934220D134E0FEE700BF080000207D
:10068000D34D6210001002400004004800003110F9
:10069000000C00481808002000380040D40000205A
:1006A00000440140A45A0108002C01400008004801
:1006B0000014004800001110944A934211D002F532
:1006C000806293420DD002F58062934209D040F2DD
:1006D000DC718F480AF0CCFC8E4B93F83C30012B38
:1006E00037D08C4B012283F83C201A688A4B9A42FF
:1006F00023D1279C34F0807304D040F2F9718448F0
:100700000AF0B6FC289E36F0007304D040F2FA716D
:100710007F480AF0ADFC299D0F2D04D940F2FB71F2
:100720007B480AF0A5FC2B0523F0807344F40054A9
:10073000234323F00073334301E04FF40053754922
:100740000A685364002381F83C30744B9A420FD1FD
:1007500000E0FEE74FF480730D9302230E93002315
:100760000F931093012311930DA96D4801F09CFE86
:100770006C4B6D4A1A604FF080525A604FF0807295
:100780009A600022DA60012119615A614FF4C04178
:100790009961DA611A625A629A62644A1A63644A17
:1007A0009A63DB6A012B03D9E92162480AF060FCF5
:1007B0005C4B93F83C3013F0FF0F03D10022594BF0
:1007C00083F83D20574B022283F83C201A68564B91
:1007D0009A4243D1A3F540535A6942F080725A615C
:1007E0005B6903F080730B930B9B372320930226E6
:1007F00021960024229423940325249520A94FF0C8
:10080000904001F051FE4823209312272197229413
:100810002394249520A94FF0904001F045FE202319
:100820002093219622942394249520A9424801F0F4
:100830003BFE5B2320932196229423942495384EEB
:1008400020A9304601F030FE842320932197229482
:100850002394249520A9304601F026FE314B1A68D6
:1008600001211160186801685A6811439A681143A0
:100870005A6911439A691143DA6911435A6A11435B
:100880009A6A0A43196942EA41420260DB68012B15
:1008900005D1244B1A68136843F480331360214C4C
:1008A0002568226B636B1A43A36B1343DB432B61F5
:1008B000226B636B1343AB62A36B2B62206B05F05F
:1008C00031FE28636B6823F003036B600323AB6086
:1008D000012384F83C301948194B03604FF48273AC
:1008E0004360002383604FF4E062C26003614361B0
:1008F0004FF480228261C3610362436283620A23F0
:10090000C36207F0D5FDE8B1FEE700BF004001403B
:10091000A45A0108D4000020002C014000440140EA
:1009200000040048D851002000400240370707006B
:1009300048080800D45A0108000800487C08002034
:10094000003C004000224FF40071B34801F094FDD8
:1009500000221146082002F0BDF9082002F0A4F997
:100960000023AE4A1370AE4AD16941F00201D16151
:10097000D26902F002020C920C9AAA4CAA4A226096
:1009800020226260A3604FF48052E260236120461F
:1009900005F072FF94F83C30012B3BD0012284F823
:1009A0003C20022284F83D20236899689F4A0A402F
:1009B0009A609F4A93421FD0B3F1804F1CD0A2F59A
:1009C0009432934218D002F58062934214D002F51B
:1009D0000062934210D002F5983293420CD002F597
:1009E0008062934208D002F58062934204D040F6C0
:1009F000537190480AF03CFB8A4A11688B6823F4D3
:100A0000803323F007038B60012382F83D300023FD
:100A100082F83C30834B1B686FF001021A610022A0
:100A200011461D2002F056F91D2002F03DF9824BBF
:100A30001C687F4B9C423CD0B4F1804F39D0A3F569
:100A400094339C4235D003F580639C4231D003F54A
:100A50009C339C422DD003F580639C4229D003F542
:100A600080639C4225D040F2454172480AF000FB69
:100A7000714B1C686E4B9C421BD0B4F1804F18D058
:100A8000A3F594339C4214D003F580639C4210D0AC
:100A900003F59C339C420CD003F580639C4208D044
:100AA00003F580639C4204D041F2F24161480AF0B0
:100AB000DFFA236A23F001032362236A43F0010370
:100AC00023625D4B1B685A4A93420BD002F5A05239
:100AD000934207D002F58062934203D002F5806210
:100AE000934203D15A6C42F400425A641A6842F0AD
:100AF00001021A6025AB39AD00224FF47A7423F855
:100B0000142C43F8102C13F80C0C62F3000003F8BB
:100B10000C0C33F80C0C64F34C0023F80C0C43F869
:100B2000082C03F8042C1433AB42E8D1434B0D934B
:100B300020AB0E9300238DF83E308DF83F3080229D
:100B40008DF8402040218DF84110ADF84230ADF8CD
:100B50003C303B4C3B4B63613B4B236101223B48A8
:100B600001F08AFC646905238DF80B302379052B8D
:100B70000BD0052323713A21204606F00FFE0122F7
:100B80000DF10B01204606F001FE2D4B5C696379E7
:100B9000202B0AD0202363713621204606F0FEFD6B
:100BA0000122611D204606F0F1FD01224FF4805123
:100BB000194801F061FC254C01228021204601F0FA
:100BC0005BFC0A2002F0C8F800228021204601F0D8
:100BD00053FC0A2002F0C0F801228021204601F0D7
:100BE0004BFC0A2002F0B8F8194C154D264614F8B3
:100BF000031C79B3686906F0D1FD14F8012C1AB111
:100C00002146686906F0C2FD16F8020C08B102F030
:100C1000A3F81334EAE700BF0004004816080020D8
:100C20000010024074540020000400408800FEFFC1
:100C3000002C0140005B0108D40000202C5B01085F
:100C4000E008002098000020000000200008004874
:100C5000035901089A4C9B49204603F0D5F92046D8
:100C600003F0FEFD4FF47A7002F076F80023ADF841
:100C70008030954B2193BDF83C300133ADF83C30CA
:100C800003940DA903A803F0DFFA204603F0E8FD62
:100C9000642002F061F88D4B9B691A884DF6DC43A5
:100CA0009A421CD1894804F0D5FAC0B13022002103
:100CB00012A80AF021FF854B9869854A12A90430D1
:100CC00005F0A8F858B1824912A804F0C7FD012820
:100CD00005D10223ADF894307E4B269304E0022325
:100CE000ADF894307C4B2693BDF83C300133ADF821
:100CF0003C30BDF842300133ADF842300DA903A8B5
:100D000003F0A2FA6E4803F0ABFD642002F024F871
:100D10006E4B9B695D8838263246002112A80AF086
:100D2000EBFE01228DF8482004218DF849100220A5
:100D30008DF84A0003238DF84C308DF84D008DF866
:100D40004E1040248DF84F4005218DF850108DF83D
:100D5000513006218DF8521033238DF8533007237C
:100D60008DF8543008208DF8560009208DF8580071
:100D700019208DF85A0042208DF85B0025278DF848
:100D80005C708DF85D4026248DF85E408DF85F30F4
:100D900028238DF8603010248DF861404FF0290C25
:100DA0008DF862C0DC238DF863302E238DF864301B
:100DB0004FF088088DF865802F238DF866302D233D
:100DC0008DF8673030238DF8683037278DF86A70DA
:100DD00090278DF86B708DF86C608DF86D004FF07A
:100DE0003C0E8DF86EE08F278DF86F703D208DF8EA
:100DF000700012208DF871006F268DF872608DF8EA
:100E0000733018208DF874008DF875808DF876C0D9
:100E10004FF0BE0C8DF877C08DF878E08DF87970C2
:100E20008DF87A608DF87B308DF87C008DF87D1020
:100E3000FF238DF87E30E4238DF85530C0238DF8E4
:100E400057308DF869204FF400414FF0904001F089
:100E500013FB2146214805F027FE242840F0388660
:100E60001F4BD3F800801D4E2F241F46AA22214677
:100E7000304605F0EBFD2146304605F015FEAA2868
:100E800004D03B68C8EB0303312BEFD9144BD3F8E4
:100E90000080124E2F241F4655222146304605F071
:100EA000D5FD2146304605F0FFFD55281AD03B6898
:100EB000C8EB0303312BEFD9012100231C4614E0BA
:100EC000E00800200C550020385B0108F4070020E2
:100ED00068530108445B0108545B0108BC0500200D
:100EE0001C540020012100231C46BF4E38AA02EBEF
:100EF000430313F8972C304605F0A8FD0134E4B203
:100F0000234638AA02EB440212F8981CFF29EDD1BF
:100F1000B54C2368DB6A0121204698473D212046D5
:100F200005F0C2FD00F0FE023D21204605F08EFDD9
:100F300023681B69217B204698472368DB6A0121CF
:100F400020469847A94B1C68DFF89C8227271E463D
:100F50003946404605F0A8FD10F0800F03D13368F4
:100F60001B1B312BF4D9A14B1B681B1B312B00F22F
:100F7000AF8500229E4B1A709E4A9F4B1A609A487A
:100F80009E4B186005810123ADF8A8309C4B2B9334
:100F90001F210AF0FDF8BDF83C300133ADF83C30BC
:100FA000BDF842300133ADF842300DA903A803F07B
:100FB0004BF9944C204603F053FC642001F0CCFE26
:100FC000914E3146204603F01FF8204603F048FCBE
:100FD00060690368DB698D4998478D4B9622002133
:100FE000204603F015FC204603F03AFC40F6B830EA
:100FF00001F0B2FE3146204603F006F8854B282268
:101000000221204603F004FC204603F029FC40F6B0
:10101000B83001F0A1FE00257F4BA3F8CC5008F0BA
:101020003DF87E4A7E4B1A60704B1A687D4B9A6081
:101030007D4B03229A70DD705D609D601D735D7352
:101040003146204602F0E0FFDFF8D881DFF8EC916E
:10105000CDF80480654B1B6800930121734805F0AF
:1010600075FA322001F078FE98F80430002B00F079
:101070002E8100252F466D4C03E00C35FF2E40F0ED
:101080002781D8F800305A1953F805A0D2F804B0D7
:1010900023684B4504D040F27F21654809F0E8FF02
:1010A00094F83D30012B00F05585012384F83D3044
:1010B0002268136823F00203136026684AEA0B03D0
:1010C000DB433361C6F828A0C6F820B0504605F0CF
:1010D00029FA3063002384F83D304E4509D04FF49F
:1010E000C471534809F0C4FF94F83D30012B00F05F
:1010F000F684012384F83D30022384F83C302368D1
:101100005A6822F003025A6003229A60226A22B9C6
:101110001A6822F010021A6003E01A6842F0100206
:101120001A602268136843F002031360002384F8F6
:101130003D3023684B4509D04FF40C713C4809F011
:1011400097FF94F83D30012B00F0D184012384F8FF
:101150003D3023684B4504D040F2D521344809F096
:1011600087FF94F83C30DBB2022B0CD12368DA689D
:1011700012F0010F07D0DB6813F0020F14BF032336
:10118000012384F83C3094F83C30DBB2022BE0D0F1
:10119000002384F83D30D8F800302B449E68236843
:1011A0004B4504D04FF41771214809F061FF072E19
:1011B00004D940F25D211E4809F05AFF23680C361D
:1011C00003EB86067368F92B3AD8FEB239E007F0D4
:1011D00053FF184B9E6807F04FFF174A01463046F1
:1011E00007F02CFFFF262CE0BC0500201C5400203B
:1011F00090000020F9B00008A45200202C0100202B
:10120000645B0108E00800200C550020F05801083C
:10121000705B0108805B0108CC050020F806002007
:10122000185200203001002080000020D8510020FA
:10123000D45A0108CC510020C05B01080040024094
:10124000FF2623684B4504D040F2E911AD4809F070
:101250000FFF94F83D30012B00F05384012284F8F5
:101260003D2021680B6823F002030B6021680B68A6
:1012700023F010030B6023680321996084F83C205D
:10128000002384F83D3019E007F0F6FE9E4BD3F8BA
:1012900008A007F0F1FE9D4A0146504607F0CEFE39
:1012A0000CE007F0E9FE984B9E6807F0E5FE984ACF
:1012B0000146304607F0C2FE00F04CBC013798F8FA
:1012C0000430BB423FF7D9AE02E0FF2600E0FF2624
:1012D0000021904805F03AF998F80530B34211D151
:1012E00098F80630013388F8063098F80730FF2B5D
:1012F00000F01084FF2E40F01384FF2388F807309D
:1013000000F008BC844B1B68C8F80830D8F80C20E3
:1013100062B31378FF2B06D10A2E1FD016707E49B8
:10132000096851601AE0FF2E17D00A2E0CD17A49B5
:1013300009685068091AB1F5FA6F05D2764909684B
:101340005160FF21117009E09E42734B1B6853608E
:101350004FF0FF0328BF137000E0FF2388F8073029
:1013600088F80560D8F80C205AB92AE0019806F0F0
:10137000FBFB88F8070088F80560002388F8063032
:101380001FE0FF2B09D0654A01219170D370002323
:1013900053609360137353732EE0019E304606F042
:1013A000E3FBFF2828D05D4C238803F47845258093
:1013B000304606F0D9FB0130012383402B432380C4
:1013C0001AE0019E304606F0CFFBFF280DD0534CAB
:1013D000238803F478452580304606F0C5FB0130AC
:1013E000012383402B43238006E04C4A138823F4D7
:1013F000FF6323F007031380494B20932193019B44
:101400002293484B2393484B2493444B2593474BBB
:101410001C68636803F58073636013F0010F18D1D3
:101420000023A36023689B6820AA214612A898473E
:101430009DF84830002B40F07983237943F0010375
:101440002371354B1B68E3602546354803F008FAE5
:101450001DE0A3680133A3602368DB6820AA21464E
:1014600034A89847349D9DF8D460AC420AD02368D4
:101470001B69214636A89847237923F0010323717D
:101480000023E360264803F0EBF9002E52D1274BEE
:101490001C68A54205D0002388F80630FF2388F891
:1014A0000530234B9C422AD0D8F80830009A93424A
:1014B00025D2D61A239803F079FDC0F303604EF6C7
:1014C000602303FB00F39E4219D923681B69214660
:1014D00037A89847237923F0010323710023E360A1
:1014E0001349124A11600D4A9370D3705360936090
:1014F000137353730B4B93F90C3063BB3BE00B4BF3
:101500001D6024E0D45A0108CC510020D45B0108AE
:10151000E85B0108D85100201C5400208000002006
:10152000E0080020F4070020BC050020185200202D
:10153000180400209F4CA049204602F009FC9F4B54
:1015400063654FF4FA63A4F850309D4B1C609D4BCB
:1015500093F90C3013B15F2B40F0F4829A4B9B78D7
:10156000052B00F24581DFE813F00600330043014C
:101570009A0060007D00954B93F8D43213F0800FF1
:1015800019D0934B1B68904A52689B1AB3F5AF7FF2
:1015900040F22E818F4B5C681D8825B94FF4E471B1
:1015A0008D4809F065FD63696B406361884B1A687B
:1015B000854B5A601CE1844B1B8813F0010F00F02F
:1015C000178101224FF40051844800F055FF0FE1CC
:1015D0007D4B1D7B2C461A8801231846591E8C42D0
:1015E00000FA03F1A6BF0A4392B28A4301330B2BE0
:1015F000F4D175490A80764B1B6889685B1AC82B41
:1016000040F2F680724B1B686F498B606B1CDBB23B
:101610000B73C978994280F0EB806B4B00211973F2
:10162000997002F478421A80A6E1674B93F90D3065
:10163000002B02DA0A22644B5A73654B1B68624A1C
:1016400051685B1A127B934240F2D280604B1A6859
:101650005D4B5A6093F90D20012191401980013AA8
:101660005A73C5E0584B93F90D300A2B02DD002266
:10167000554B5A73564B1B68534A51685B1A127B81
:10168000934240F2B580524B1A684F4B5A6093F91F
:101690000D2001219140198001325A73A8E04A4B74
:1016A00093F90D300B2B64DC032B1FDC484A1168C7
:1016B000454A5268891AB1F5AF7F40F29980444A91
:1016C0001168414A5160DAB212F0010F07D13E4968
:1016D0000B886FEAD3236FEAC3230B8002E000215B
:1016E000394B19800132384B5A7381E0384A1168FE
:1016F000354A5268891A32297AD9354A1168324AEC
:101700005160DBB213F0010F19D1147B264611880A
:1017100000220125B24205FA02F0DABF014389B284
:10172000814301320B2AF5D1274A11800A2C02D1BC
:10173000013353735CE00134234B1C7358E0224A9D
:10174000147B2646118800220125B24205FA02F0D8
:10175000DABF014389B2814301320B2AF5D11A4A1B
:10176000118014B90133537342E0013C164B1C73D2
:101770003EE00D2B34DC164A1168134A5268891A70
:10178000B1F5AF7F34D9124A11680F4A5160DBB20C
:1017900013F0010F07D1114612886FEAD2226FEAC7
:1017A000C2220A8002E00021074A11800133064A62
:1017B00053731DE09C060020FC5B0108F806002026
:1017C00018520020F4070020800000204001002073
:1017D0001C540020A8520020105C0108000800489A
:1017E000924B00229A70DA705A609A601A735A7398
:1017F0008E4B1B8803F002039BB233B18C4B01224A
:101800001989D86800F038FE05E0894B0022198953
:10181000D86800F031FE854B1B8803F004039BB2AF
:1018200033B1834B0122198A586900F025FE05E087
:101830007F4B0022198A586900F01EFE7B4B1B88E3
:1018400003F008039BB233B1794B0122198BD8699D
:1018500000F012FE05E0764B0022198BD86900F0EB
:101860000BFE724B1B8803F010039BB233B1704B1D
:101870000122198C586A00F0FFFD05E06C4B002234
:10188000198C586A00F0F8FD684B1B8803F02003A0
:101890009BB233B1664B0122198DD86A00F0ECFD82
:1018A00005E0634B0022198DD86A00F0E5FD5F4B1F
:1018B0001B8803F040039BB233B15D4B0122198EAC
:1018C000586B00F0D9FD05E0594B0022198E586B7A
:1018D00000F0D2FD554B1B8803F080039BB233B15F
:1018E000534B0122198FD86B00F0C6FD05E0504B19
:1018F0000022198FD86B00F0BFFD4C4B1B8803F4FE
:1019000080739BB23BB14A4B0122B3F84010586C34
:1019100000F0B2FD06E0464B0022B3F84010586CD0
:1019200000F0AAFD414B1B8803F400739BB23BB14E
:101930003F4B0122B3F84810D86C00F09DFD06E043
:101940003B4B0022B3F84810D86C00F095FD374BA4
:101950001B8803F480639BB23BB1354B0122B3F883
:101960005010586D00F088FD06E0314B0022B3F8AE
:101970005010586D00F080FD2E4B1B68009AD31A52
:101980000A2B7FF667AB2C4B1A682C4B9A423FF41C
:1019900061AB284B009A1A60294805F00DF8002821
:1019A0003FF458AB274B1B889BB24FF6FF72934214
:1019B00052D1254B1E78F6B2244B1C8824B2244DFC
:1019C00095F8D43203F07F0303EB431305EB430098
:1019D0003D22002110300AF08FF895F8D40200F073
:1019E0007F0000EB401005EB400032463C2E28BF44
:1019F0003C22184910300AF074F895F8D43203F0FC
:101A00007F035A01D01805EB400080F85040024691
:101A10004FF6FF70A2F84E00013303F0070343F0C6
:101A2000800385F8D432FFF715BB00BF800000208B
:101A3000A852002094000020185200201401002019
:101A4000BC05002078050020B9050020D00000204A
:101A5000400100207C050020424B1F78FFB2424B22
:101A60001C88A4B2414B1D882DB2414E96F8D43249
:101A700003F07F0303EB431306EB43003D220021F9
:101A800010300AF039F896F8D40200F07F0000EB2D
:101A9000401006EB40003A463C2F28BF3C22354917
:101AA00010300AF01EF896F8D43203F07F035A0182
:101AB000D01806EB400080F85050A0F84E4001339B
:101AC00003F0070343F0800386F8D432FFF7C2BA6D
:101AD0000123ADF8A830284B2B93FFF75CBA07F031
:101AE000CBFA264B9B68002B7FF4DBAB32E007F090
:101AF000C3FA224B9B68002B7FF469ABFF26FFF7EC
:101B0000A0BB07F0B9FA1D4B9B68002B7FF4BCAB60
:101B1000FFF7D4BBD8F80C30002B7FF43EAC50E478
:101B2000D8F80C20002A7FF42EAC4AE4144D154955
:101B3000284602F00DF9144B6B6542F21073A5F8BC
:101B4000503082E420A9114807F006FC06E50C3568
:101B5000FFF797BA013798F804309F42F7DBFFF799
:101B6000B4BB00BFB905002014080020D00000203D
:101B7000400100207C050020405C0108CC51002081
:101B80009C060020505C0108F8060020CC050020CF
:101B900010B4244B1C68244A194608E0B0F1FF3FFA
:101BA00005D0002836D00B681B1B984234D3D3686D
:101BB00013F0010FF2D11C4BDB6813F0200F02D0A1
:101BC0002022194BDA60184BDB6813F0100F04D198
:101BD000154BDB6813F0040F20D0134BDB6813F0B8
:101BE000100F06D0114AD36943F00203D3611023CA
:101BF00000E000230C4AD26812F0040F06D00B4913
:101C0000CA6942F00102CA6143F00403064AD36084
:101C1000012004E0032002E0032000E0002010BCCB
:101C2000704700BF1C54002000200240F80800202C
:101C300010B50446C31E042B03D9BE21094809F080
:101C400017FA094AD36823F4E0631B041B0C43F022
:101C5000BF6343F40033240204F4E0642343D360FD
:101C600010BD00BF645C010800ED00E0F0B583B07A
:101C7000044620B940F21B11A34809F0F9F9236882
:101C8000002B00F0598113F00F0F04D14FF48E7127
:101C90009D4809F0EDF9236813F0010F00F0A380CF
:101CA000636833F4803207D0B3F5A02F04D04FF42B
:101CB0009171954809F0DCF9944B5B6803F00C03D3
:101CC000042B0AD0914B5B6803F00C03082B1BD14B
:101CD0008E4B5B6813F4803F16D04FF4003393FAB9
:101CE000A3F38A4B19684FF4003393FAA3F3B3FAC2
:101CF00083F303F01F03012202FA03F30B4272D0B5
:101D00006368002B6FD1F3E26368B3F5803F05D1C0
:101D10007E4A136843F48033136026E063B903F10D
:101D2000804303F504331A6822F480321A601A687B
:101D300022F480221A6018E0B3F5A02F0CD103F131
:101D40008043A3F53C331A6842F480221A601A6873
:101D500042F480321A6008E06C4B1A6822F4803238
:101D60001A601A6822F480221A606849CB6A23F04C
:101D70000F02A3681343CB626368D3B1644B1F683F
:101D80004FF400320D4601201E4604E03368DB1B91
:101D9000642B00F2AF8292FAA2F3296892FAA2F3BE
:101DA000B3FA83F303F01F0300FA03F30B42EDD001
:101DB00019E0574B1F684FF40032544D01201E4666
:101DC00004E03368DB1B642B00F2968292FAA2F3E4
:101DD000296892FAA2F3B3FA83F303F01F0300FA1F
:101DE00003F30B42EDD1236813F0020F00F0A4803F
:101DF0002369012B04D94FF4AD71434809F038F938
:101E000063691F2B04D940F25B113F4809F030F998
:101E10003E4B5B6813F00C0F0AD03C4B5B6803F041
:101E20000C03082B28D1394B5B6813F4803F23D176
:101E3000022393FAA3F3354B1968022393FAA3F311
:101E4000B3FA83F303F01F03012202FA03F30B42F8
:101E500003D02369934240F051822C480368F82252
:101E600092FAA2F2B2FA82F2616901FA02F223F066
:101E7000F803134303605FE0236993B3012292FAEE
:101E8000A2F3B3FA83F303F1845303F584139B00A5
:101E90001A601F4B1F6802221C4D01201E4604E0E1
:101EA0003368DB1B022B00F22B8292FAA2F3296823
:101EB00092FAA2F3B3FA83F303F01F0300FA03F3D9
:101EC0000B42EDD011480368F82292FAA2F2B2FA5E
:101ED00082F2616901FA02F223F0F803134303600E
:101EE0002AE0012393FAA3F3B3FA83F303F18453B3
:101EF00003F584139B0000221A60054B1F68022221
:101F0000024D01201E460AE0945C010800100240C8
:101F10001C5400203368DB1B022B00F2F38192FA81
:101F2000A2F3296892FAA2F3B3FA83F303F01F0332
:101F300000FA03F30B42EDD1236813F0080F57D0DA
:101F4000A369012B04D940F29B11AF4809F090F826
:101F5000A36933B3012191FAA1F2B2FA82F2AB4B39
:101F600013449B001960AA4B1F680222A94D084622
:101F70001E4604E03368DB1B022B00F2C58192FA97
:101F8000A2F392FAA2F392FAA2F3696A92FAA2F386
:101F9000B3FA83F303F01F0300FA03F30B42E9D013
:101FA00026E0012292FAA2F2B2FA82F2974B13448F
:101FB0009B0000221A60964B1F680222954D01205B
:101FC0001E4604E03368DB1B022B00F29F8192FA6D
:101FD000A2F392FAA2F392FAA2F3696A92FAA2F336
:101FE000B3FA83F303F01F0300FA03F30B42E9D1C2
:101FF000236813F0040F00F0B480E368012B06D9C6
:10200000052B04D040F2C7117F4809F031F8814B0D
:10201000DB6913F0805F0CD17E4BDA6942F08052AD
:10202000DA61DB6903F080530193019B4FF0010CEF
:1020300001E04FF0000C784B1B6813F4807F11D146
:1020400075490B6843F480730B60714B1D6818462B
:1020500004E003685B1B642B00F25A810B6813F4E5
:10206000807FF6D0E368012B05D16A490B6A43F003
:1020700001030B6222E063B903F1804303F50433EB
:10208000196A21F001011962196A21F0040119622B
:1020900014E0052B09D15F4B196A41F00401196264
:1020A000196A41F00101196208E05A4B196A21F0DE
:1020B00001011962196A21F004011962E36823B36E
:1020C000534BD3F800E00221524D01201F4641F24C
:1020D000883605E03B68CEEB0303B34200F21A8179
:1020E00091FAA1F391FAA1F30BB12A6A02E091FAF5
:1020F000A1F36A6A91FAA1F3B3FA83F303F01F0321
:1021000000FA03F31342E5D023E0414BD3F800E09B
:102110000221404D01201F4641F2883605E03B6810
:10212000CEEB0303B34200F2F78091FAA1F391FAE8
:10213000A1F30BB12A6A02E091FAA1F36A6A91FA5B
:10214000A1F3B3FA83F303F01F0300FA03F313427E
:10215000E5D1BCF1000F04D02E4AD36923F080539F
:10216000D361E369022B04D940F20B21264808F021
:102170007FFFE369002B00F0D180264A526802F00D
:102180000C02082A00F0CC80022B40F08980236AE0
:1021900033F4803304D04FF405711B4808F068FF16
:1021A000636A33F4802219D0B2F5002F16D0B2F54D
:1021B000801F13D0B2F5C01F10D0B2F5001F0DD094
:1021C000B2F5201F0AD0B2F5401F07D0B3F5601F4B
:1021D00004D040F215210C4808F04AFF4FF08073FC
:1021E00093FAA3F3B3FA83F303F1845303F584134F
:1021F0009B0000221A60064B1F684FF00072054DCD
:1022000001201E460EE000BF945C01082081901062
:102210001C54002000100240007000403368DB1B9B
:10222000022B7FD892FAA2F3296892FAA2F3B3FAAA
:1022300083F303F01F0300FA03F30B42EED13D4991
:102240004B68606A226A024323F4741313434B60A1
:102250004FF0807393FAA3F3B3FA83F303F184533B
:1022600003F584139B0001221A60334B1E684FF064
:1022700000720C4601201D4603E02B689B1B022BBD
:1022800052D892FAA2F3216892FAA2F3B3FA83F336
:1022900003F01F0300FA03F30B42EED0002046E0E8
:1022A0004FF0807393FAA3F3B3FA83F303F18453EB
:1022B00003F584139B0000221A601F4B1E684FF029
:1022C00000721C4C01201D4603E02B689B1B022B57
:1022D0002CD892FAA2F3216892FAA2F3B3FA83F30C
:1022E00003F01F0300FA03F30B42EED100201EE0BF
:1022F00001201CE003201AE0032018E0012016E072
:10230000032014E0032012E0032010E003200EE07D
:1023100003200CE003200AE0032008E0002006E090
:10232000012004E0032002E0032000E0032003B0CA
:10233000F0BD00BF001002401C54002038B5474BD0
:102340005B69034200F08980444B586100F004004F
:1023500080B2002800F08180414B1B78002B7CD09C
:10236000404B5D6A03F108231B6903F004043E48F7
:1023700004F00CFAC8353D4B1B785BB2042B64D8D3
:10238000DFE803F0030B1C274C00002C5DD107F0A5
:1023900015F90122354B1A7057E05CB1B5F5487F4D
:1023A00008D90023324A1360324A136002222F4BAD
:1023B0001A704AE000222D4B1A7046E02CB907F043
:1023C000FDF80322294B1A703FE0FF22274B1A70B9
:1023D0003BE01CB9FF22254B1A7036E0B5F5487F6B
:1023E0000FD9244B1A681A601B681BB905221F4BB2
:1023F0001A7002E0FC221D4B1A700022184B1A7052
:1024000023E0B5F5C87F05D907F0D8F80422174BAB
:102410001A701AE0FF22154B1A7016E0ACB907F0DB
:10242000CDF80322114B1A70B5F5966F03D9012030
:1024300007F08AF809E0B5F5C87F03D9002007F056
:1024400083F802E0FF22094B1A70084B1B7813F047
:10245000800F02D00022024B1A7038BD00040140E8
:10246000160800200004004074540020D0530020BF
:10247000AC510020A450002070B5054614460E460D
:1024800021B94FF4D971074808F0F2FD012C04D9A5
:1024900040F2B311034808F0EBFD0CB1AE6170BD22
:1024A000AE6270BD105C01082DE9F04F83B00646A6
:1024B0000C46B0F1904F16D09C4B984213D003F5C8
:1024C000806398420FD003F5806398420BD003F5E8
:1024D0008063984207D003F58063984203D0C521FA
:1024E000934808F0C5FD23689AB212B11B0C1B0477
:1024F0001BB1C6218E4808F0BBFD6368032B17D9BA
:10250000A3F11102012A13D923F4001289498A4246
:102510000ED001F580118B420AD0A1F570218A42BC
:1025200006D0854A934203D0C721814808F0A0FD18
:10253000A368022B03D9C8217D4808F099FD2568BE
:10254000002D00F0F0800027DFF8F8B14FF001080F
:1025500008FA07F818EA050500F0DF80636823F041
:102560001003022B35D1B6F1904F16D06F4B9E421F
:1025700013D003F580639E420FD003F580639E4223
:102580000BD003F580639E4207D003F580639E4223
:1025900003D0D721664808F06BFD23690C2B06D9C0
:1025A0000E3B012B03D9D821614808F061FDF808E2
:1025B00006EB8000016A07F0070E4FEA8E0E0F232C
:1025C00003FA0EF321EA0302236903FA0EF313431D
:1025D000036233684FEA470A4FF0030909FA0AF920
:1025E0006FEA090903EA0902636803F0030303FAC7
:1025F0000AF313433360636823F01003013B012B9C
:102600001AD8E368012B05D9032B03D0EC214848E5
:1026100008F02EFDB36809EA0302E36803FA0AF33F
:102620001343B360736823EA08086368C3F30013B5
:10263000BB4043EA08037360F36809EA0309A3682F
:1026400003FA0AF343EA0903F360636813F0805F57
:1026500063D03A4B9B6943F00103384A9361936915
:1026600003F001030193019B27F0030303F180436F
:1026700003F58033996807F003024FEA820E0F20BA
:1026800000FA0EF221EA0200B6F1904F10D0274A6C
:1026900096420FD002F5806296420DD002F580621C
:1026A00096420BD026498E420CBF0421052106E03C
:1026B000002104E0012102E0022100E0032101FAEF
:1026C0000EF202439A60DBF80030EA43616811F4CD
:1026D000803F0CBF13402B43CBF80030DBF80430B5
:1026E000616811F4003F0CBF13402B43CBF804305A
:1026F000DBF80830616811F4801F0CBF13402B43D6
:10270000CBF80830DBF80C30616811F4001F0CBF07
:1027100002EA03051D43CBF80C500137256835FA52
:1027200007F37FF413AF03B0BDE8F08F0004004857
:10273000105C01080000111000002210001002407F
:1027400000100048000401405D4B1B7E012B00F08F
:10275000B4802DE9F0478A4606460122584B1A7686
:102760000368934203D9BA21564808F081FC3368C4
:10277000012B1CD14CF25030FFF70AFA002840F030
:10278000918000224E4BDA614F4C236943F00403E1
:102790002361236943F0400323614CF25030FFF77B
:1027A000F7F90246236923F0040323617FE073688D
:1027B000B3F1006F11D3454A1288B2F5807F03D17F
:1027C000434A934209D811E0802A03D1414A9342F7
:1027D00003D818E0404A934220D9D021394808F064
:1027E00047FC3A4B1B88B3F5807F0AD1B368726807
:1027F000013A02EBC322364B9A428CBF00230123DD
:1028000016E0802B0AD1B3687268013A02EBC3224A
:10281000304B9A428CBF0023012309E07368013BCF
:10282000B26803EBC2232C4A93428CBF00230123DE
:102830001BB9D121234808F01BFC4CF25030FFF7A4
:10284000A7F988BB4FF0FF33CAF800307568B3684A
:1028500005EBC3239D4229D2DFF8649000271A4C70
:102860004CF25038C9F81C70236943F0020323610D
:102870006561236943F0400323614046FFF788F90F
:10288000236923F002032361024610B1CAF8005005
:102890000DE005F50065B168736803EBC123AB4239
:1028A000E0D804E0012202E0012200E00122002140
:1028B000034B19761046BDE8F0870220704700BF31
:1028C000F8080020C05C010800200240CCF7FF1F80
:1028D000FFFF0308FFFF0108FFFF0008034A136919
:1028E00043F0800313610020704700BF00200240C6
:1028F000074B1B6913F0800F07D0054B054A5A6040
:1029000002F188325A60002070470120704700BFF2
:1029100000200240230167452DE9F84F374E367EEF
:10292000012E5FD01F4690460C4605460122334BD0
:102930001A76431E022B03D9C421314808F098FBB4
:10294000B4F1006F11D32F4B1B88B3F5807F03D1F7
:102950002D4B9C4209D80CE0802B03D12B4B9C4281
:1029600003D806E02A4B9C4203D9C521244808F02D
:102970007FFB4CF25030FFF70BF9034660BB012D93
:1029800033D0022D0CBF4FF0020B4FF0040B2EE0A2
:102990003301C3F12001A3F1200228FA03F307FA5F
:1029A00001F10B4327FA02F213439BB2CAF81C90C1
:1029B0002A6942F001022A6123804CF25030FFF76D
:1029C000E7F82B6923F001032B61034620B9013698
:1029D0000234F2B29345DBD80021084A117618463A
:1029E000BDE8F88F0220BDE8F88F4FF0010B0026FC
:1029F000DFF808A0B146074DCAE700BFF80800207D
:102A0000F45C0108CCF7FF1FFFFF0308FFFF01087C
:102A1000FFFF00080020024038B5C36B1A68046845
:102A20002568016C04238B40134214D015F0040F69
:102A300011D0236813F0200F03D1236823F004037F
:102A40002360C26B016C04238B405360C36A002B6C
:102A50003AD0984738BD02238B40134219D015F065
:102A6000020F16D0236813F0200F06D1236823F03D
:102A70000A032360012380F82130C26B016C02231A
:102A80008B405360002380F82030836AE3B198477D
:102A900038BD082303FA01F1114215D015F0080FD3
:102AA00012D0236823F00E032360C16B0123026C54
:102AB00003FA02F24A60836380F82130002380F831
:102AC0002030036B03B1984738BD00BF002800F0E9
:102AD000AB8010B504460368544A934225D01432A3
:102AE000934222D0143293421FD0143293421CD00E
:102AF0001432934219D01432934216D014329342B6
:102B000013D002F5627293420FD0143293420CD06C
:102B10001432934209D01432934206D014329342B5
:102B200003D0A621424808F0A3FA636833F01002EC
:102B300006D0B3F5804F03D0A7213D4808F098FA9E
:102B4000A36833F0400303D0A821394808F090FA75
:102B5000E36833F0800303D0A921354808F088FAF0
:102B6000236933F4807206D0B3F5007F03D0AA2125
:102B70002F4808F07DFA636933F4806206D0B3F51C
:102B8000006F03D0AB212A4808F072FAA36933F032
:102B9000200303D0AC21264808F06AFAE36933F435
:102BA000805306D0B3F5005F03D0AD21204808F074
:102BB0005FFA022384F821302068036823F47F53EE
:102BC00023F030036168A2681143E268114322696F
:102BD000114362691143A2691143E2690A43134335
:102BE00003602268134B9A4209D8134B13441422F2
:102BF000B3FBF2F39B002364104BE36308E0104B3C
:102C000013441422B3FBF2F39B0023640D4BE363E4
:102C10000020A062E06220636063A063012384F867
:102C2000213084F8200010BD0120704708000240C8
:102C3000245D010807040240F8FFFDBF00000240C8
:102C4000F8FBFDBF0004024008B504280BD020B1FA
:102C500040F2E311074808F00BFA074A136823F023
:102C60000403136008BD044A136843F004031360AF
:102C700008BD00BF645C010810E000E00138B0F15D
:102C8000807F0AD2064B5860F021064A82F8231052
:102C90000020986007221A6070470120704700BF2B
:102CA00010E000E000ED00E010B5041E03DAEA21B8
:102CB000064808F0DDF9620904F01F04012303FA55
:102CC00004F4034B43F8224010BD00BF645C0108CC
:102CD00000E100E070B505460E4614460F2A03D900
:102CE000D6211A4808F0C4F90F2E03D9D721174866
:102CF00008F0BEF9164BDB68C3F30223C3F10702E9
:102D0000042A28BF0422191D06298CBF033B002377
:102D1000012101FA02F2013A32409A4001FA03F32A
:102D2000013B1C401443002D06DA05F00F05240179
:102D3000E4B2084B5C5570BD2401E4B205F1604576
:102D400005F5614585F8004370BD00BF645C01086E
:102D500000ED00E014ED00E082B00190044B186833
:102D600019460B68019A1B1A9342FAD302B07047B6
:102D70001C54002010B50446074B1B680748A0FBF5
:102D800003308009FFF77AFF002221464FF0FF3021
:102D9000FFF7A0FF002010BD08000020D34D6210F7
:102DA00000B583B0224A136843F010031360032078
:102DB000FEF73EFF0020FFF7DDFF1E4B9A6942F051
:102DC00001029A619B6903F001030193019B0320B7
:102DD000FEF72EFF002211466FF00B00FFF77AFF7F
:102DE000002211466FF00A00FFF774FF002211461F
:102DF0006FF00900FFF76EFF002211466FF004002C
:102E0000FFF768FF002211466FF00300FFF762FF33
:102E1000002211466FF00100FFF75CFF002211460F
:102E20004FF0FF30FFF756FF002003B05DF804FBC2
:102E30000020024000100240704700BF00220270D4
:102E4000704700BF9368DA79034B092A08BF194617
:102E50000160002303717047F80600200022027011
:102E6000704700BF2DE9F04F85B001900C46154624
:102E700001F1980678220021304608F03DFE666296
:102E800004F1AC0BC4F838B004F1C00AC4F84CA08B
:102E900004F1D409C4F8609004F1E8030093636777
:102EA00004F1FC08C4F888802F690721384603F034
:102EB000FBFD02900821384603F0F6FD039009213E
:102EC000384603F0F1FD029B00EB0340039B00EB4F
:102ED00003200AF0CDF832490AF022F90AF022FB69
:102EE000304AA2FB0032920C2F49304608F02AFFEC
:102EF0000021286903F014FE02462C49584608F0C8
:102F000021FF2921286903F0CFFD024628495046B8
:102F100008F018FF1821286903F0C6FD00F03802F8
:102F20002449484608F00EFF2E693368DB6A012108
:102F30003046984708224E21304603F087FD4E2741
:102F40003946304603F0B0FD10F0040FF8D14F21A0
:102F5000304603F0A9FDC0F1A502D2B2164900988F
:102F600008F0F0FE1821286903F09EFD40B2002809
:102F7000ACBF3222C8221149404608F0E3FE104996
:102F800055F8040B01F040F804F11001284601F057
:102F90005BF900230198037005B0BDE8F08F00BF16
:102FA0000024744283DE1B43305E0108405E01084A
:102FB0004C5E0108605E01086C5E0108785E0108E5
:102FC0000C55002010B5044608F060FD204610BDE9
:102FD000F8B505460C4616460F469368DB790A2B72
:102FE00017D8DFE803F00616161608101616161680
:102FF00006001A4F0DE0CB8B13B90823CB8308E0F2
:10300000013BCB8305E0CB8B082B0CBF00230133A6
:10301000CB83B368DB79FF2B15D1E38B03EB830301
:1030200004EB8303586A08F0B9FE00EB400040004F
:1030300078280DD9A2680A4BA3FB02139B0803EB67
:1030400083039A4204D104F11001301D01F0FCF811
:103050002F6000232B712846F8BD00BFF806002022
:10306000CDCCCCCC2DE9F043BFB081460F46904685
:1030700001F1D4044FF410720021204608F03CFD09
:10308000D8F80C200C326749204608F05BFED8F8CF
:103090000C0001F08BFFC0F30722634907F58A702B
:1030A00008F050FE07F5AA7497F91433002B32D1BB
:1030B000D8F80C5022A806F03FFDA9691822043167
:1030C00022A806F0FDFBAB695B883EA921F8923D82
:1030D000022222A806F0F4FB1AA922A806F0CEFCD0
:1030E0009DF869309DF868209DF86F1005919DF856
:1030F0006E1004919DF86D1003919DF86C10029173
:103100009DF86B1001919DF86A100091474907F5F1
:10311000457008F017FE07F545724549204608F04E
:1031200011FED8F80C309B695A88424907F5CA70DD
:1031300008F008FED8F80C00183001F0A3FE437820
:103140000278017E1691C17D1591817D1491417D9A
:103150001391017D1291C17C1191817C1091417C70
:103160000F91017C0E91C17B0D91817B0C91417B74
:103170000B91017B0A91C17A0991817A0891417A78
:103180000791017A0691C17905918179049141797C
:10319000039101790291C1780191817800912649CA
:1031A00007F5EA7008F0CEFD244C2268C2F30B024A
:1031B000234907F5057008F0C5FD2268120C214966
:1031C00007F5157008F0BEFD4FF082721E4907F535
:1031D000257008F0B7FD1D4A1D4907F5357008F048
:1031E000B1FD07F1D40607F12004002566602580B3
:1031F000204600F0CFFE013540361434092DF5D1BC
:10320000144958F8040B00F0FFFE07F11001404686
:1032100001F01AF8002389F8003048463FB0BDE8B5
:10322000F08300BF885E0108945E0108005F01081A
:10323000A85E0108B05E0108B85E0108002004E045
:10324000245F0108305F01083C5F0108505F0108FE
:103250005C5F01080C550020012840F07F82F8B522
:103260004FF6FF73994240F07882C64C204605F035
:10327000D5FEC54B236040F6B833A4F85030002586
:103280006565C24C204605F0C9FEC14B2360C14BA9
:10329000236104F120036361A576E576802222771D
:1032A000A0226277E5830B2222832A464FF47A74A8
:1032B00003F1DC001A805A60197A62F30001197276
:1032C000198964F34C011981DA601A74143383424A
:1032D000F0D1B14C204605F0A1FEB04B2360B04BBD
:1032E000236104F1200363610022A276E27680214B
:1032F0002177A0216177E2830322228300224FF409
:103300007A7403F13C001A805A60197A62F3000162
:103310001972198964F34C011981DA601A74143333
:103320008342F0D19C4C002584F8685084F86950A1
:103330000C22294604F15C0008F0DEFB2584994B41
:1033400063620123A386984BA36304F1340000F069
:1033500021FE0223A4F84830944BE36404F14800B2
:1033600000F018FE924C204605F058FE914B236069
:10337000914B236104F120036361A576E5768022F9
:103380002277A0226277E583092222832A464FF41E
:103390007A7403F1B4001A805A60197A62F300015A
:1033A0001972198964F34C011981DA601A741433A3
:1033B0008342F0D1814B002103F1120203F8011B7B
:1033C0009342FBD1122200217C4808F095FB7C4CF3
:1033D000204605F023FE7B4B236000252582658275
:1033E0002575032384F85831C4F85C51764C204687
:1033F00005F014FE754B2360FF2323746574A574D8
:10340000E57425756575A575E575257604F11903CF
:10341000294603F1110203F8011B9342FBD16A4BC9
:10342000002283F82A20FF2183F82B1083F82C2018
:10343000674D284605F0F2FD664B45F8103B002429
:103440002746654E284605F13D022B4603F8014B01
:103450009A42FBD1EC8785F840403D22394608F07E
:103460004BFB4235B542EDD1594A002182F820127A
:103470005A4BC2F8243202F50D73C2F8283282F892
:103480002E1282F82F12802082F83002402082F81B
:103490003102A2F832120821A2F82C1200224FF4B5
:1034A0007A7403F1A0001A805A60197A62F300015D
:1034B0001972198964F34C011981DA601A74143392
:1034C0008342F0D1424890F8D43203F080036FF386
:1034D000C71380F8D4324FF404720021103008F082
:1034E0000BFB3F4C204605F099FD3E4B23603E4BC5
:1034F000236104F1200363610022A276E276802139
:103500002177A0216177E2830622228300224FF4F3
:103510007A7403F178001A805A60197A62F3000114
:103520001972198964F34C011981DA601A74143321
:103530008342F0D100202A4C014600F1980300F1AB
:10354000AC022244234403F8011B9342FBD1143004
:103550007828F2D1254C204605F060FD244B2360ED
:103560004FF4FA6323820523A3740025E574656193
:103570000323A4F8CA30A4F8CC501E4C204605F012
:103580004DFD39E09C06002078600108F806002017
:1035900040600108685F0108480F0020905D010845
:1035A000745F01087C5F01088C5F0108A05F01085F
:1035B000F00B0020E45D0108B85F0108040F002053
:1035C00018040020745D0108180F0020585D0108E0
:1035D00040010020AC5D010860030020C45F0108C9
:1035E0001809002008600108D05F0108CC05002000
:1035F000C85D0108B40F0020594B23602582656126
:1036000004F11803294603F13C0203F8011B93421D
:10361000FBD10025534B83F85450534C204605F002
:10362000FDFC524B2360524B236104F12003636184
:10363000A576E5768022227740226277E583042210
:1036400022832A464FF47A7403F150001A805A609C
:10365000197A62F300011972198964F34C01198116
:10366000DA601A7414338342F0D13F4A00211167A3
:1036700051679167D1673F4BC2F8803002F19003E8
:10368000C2F8843082F88A1082F88B10802082F889
:103690008C00402082F88D00A2F88E100521A2F83F
:1036A000881000224FF47A7403F164001A805A6083
:1036B000197A62F300011972198964F34C011981B6
:1036C000DA601A7414338342F0D1274B002583F853
:1036D000C051C3F8C451284C204605F09FFC274B2D
:1036E00023602561A582A561257704F1300370343C
:1036F000002243F8042C43F8082C43F80C2C43F820
:10370000102C10339C42F4D11B4B4FF07E51D965E5
:1037100000229A655A651A65DA6499645A641A64D3
:10372000DA639A6359631A63DA629A625A621962B7
:10373000002483F860405A669A66DA661A675A6708
:103740009A6783F87C4083F87D400D4D284605F04C
:1037500065FC0C4B2B602C746C61F8BD704700BF8E
:1037600024600108B40F0020280A0020946001089A
:10377000DC5F0108EC5F01080C1000205C600108B0
:10378000140100201C5E01080023CB8303707047E6
:1037900000220270704700BF2DE9F041AAB0064632
:1037A0000D46144688469368DA68002A00F0408186
:1037B00091F82A30072B0BD091F92B30B3F1FF3F52
:1037C00079D0B14808F0EAFA95F82A30984272D1D7
:1037D000AE4B64220021206801F01AF895F91930E7
:1037E000002B4AD195F92B30B3F1FF3F63690CBF31
:1037F000052204229A704B22DA7000225A609A60E5
:103800001A735A732022002106A808F075F90EA831
:1038100006F092F9E068183001F01CFB30220146F6
:103820000EA806F04DF805F11107384608F0B6FA73
:10383000024639460EA806F043F806A90EA806F07F
:103840001DF99DF819309DF818209DF81F1005915D
:103850009DF81E1004919DF81D1003919DF81C10F9
:1038600002919DF81B1001919DF81A100091884952
:1038700005F1190008F066FA0CE0864B7822002169
:10388000206800F0C5FF05F119038222002120689D
:1038900000F0BEFFA3685B79002B51D16369002261
:1038A0009A70DA705A609A601A735A732B7923F0FF
:1038B00001032B7144E0A3685A790A2A3DD195F897
:1038C0002C203ABB02E134220EE035220CE03622F5
:1038D0000AE0372208E0382206E0392204E03022EC
:1038E00002E02A2200E033222B445A74FF2385F899
:1038F0002B30654F05F11101384608F06AFA87420E
:1039000004BF002385F82B3095F82A30013385F861
:103910002A3015E0604A12689968521AB2F5FA6FB7
:103920000ED90022DA6063699A70DA705A609A6080
:103930001A735A73DFF8908102E0002385F82C3067
:10394000A3685F79554B01931422009280230021D4
:10395000206800F039FB2A7CFF2A04D150490EA8C8
:1039600008F0F0F907E0092A14BF013200224D499E
:103970000EA808F0E7F90EAB14220021206800F031
:1039800047FF464B01930A23009380231E22002108
:10399000206800F019FB0A2F04D143490EA808F053
:1039A000D1F90EE0FF2F04D140490EA808F0CAF962
:1039B00007E0092F14BF7A1C00223D490EA808F029
:1039C000C1F90EAB1E220021206800F021FF394909
:1039D0000EA808F0B7F90EAB32220021206800F0E3
:1039E00017FF05F1110234490EA808F0ABF92B4B73
:1039F00001930A230093802346220021206800F0CF
:103A0000E3FA95F92B30B3F1FF3F20684FF0000146
:103A100003914FF00103029300F10C03019314BFD3
:103A2000264B274B00930EAB462200F0ADFB8BE0FC
:103A30005F790B7C0A2B01D1002F6FD0BB4200F0C5
:103A400083802F74154D019514220092802300214C
:103A5000206800F0B9FA01950A23009380231E2202
:103A60000021206800F0B0FA092F01D07A1C00E094
:103A7000002214490EA808F065F90EAB1E220021A1
:103A8000206800F0C5FE5FE0A8600108B060010892
:103A9000005F0108C06001081C5400200C55002084
:103AA000D4600108E8600108FC60010814610108A5
:103AB000286101083C61010848610108D4530020D5
:103AC0008053002054610108F8060020012385F886
:103AD0002C30A368DB792B7495F82A30A268D27950
:103AE000092A3FF6FEAE01A151F822F0193B000869
:103AF000153B0008E7380008C7380008CB38000835
:103B0000CF380008D3380008D7380008DB38000861
:103B1000DF3800083222E7E63122E5E60F740E4D69
:103B200001951422009280230021206800F04CFAB5
:103B300001950A23009380231E220021206800F0B3
:103B400043FADFF8188091E7C6F80080002333714C
:103B500030462AB0BDE8F0810C550020F806002060
:103B600030B585B005460C461068012303930293D7
:103B70000C4B01930C4B009301F110030A2200211E
:103B800000F002FB094B1B68B4F85020E1685B1A97
:103B90009A423ABF064B2B602C6000232B712846BB
:103BA00005B030BD0C5500201C5200201C540020D4
:103BB000F8060020F8B506460C461546FF270F7498
:103BC0001149106800F020FA0822002104F11100C8
:103BD00007F092FF1122002104F1190007F08CFF79
:103BE000002384F82A3084F82B706A691380AB684C
:103BF000DB682BB9054B0A220021286800F008FE7B
:103C0000002333703046F8BD0C5500206061010878
:103C100010B504460349106800F0F6F9002323703C
:103C2000204610BD0C55002010B5044607F02EFFAD
:103C3000204610BD10B5044607F028FF204610BDF1
:103C400010B5044607F022FF204610BD70B50646A9
:103C50000C4600230B84D36893F90C30C3B15F2B5F
:103C600019D115E00123A386284BA3630223A4F8EE
:103C70004830274BE3640323A4F85C30254B93F8CA
:103C8000D43213F0800F14BF234B244B236605E07E
:103C9000234B6362E6E7234B4B62E3E70423A4F87C
:103CA0007030214B63670523A4F884301F4BC4F8A0
:103CB00088300623A4F898301D4BC4F89C300723A5
:103CC000A4F8AC301B4BC4F8B0300823A4F8C030C3
:103CD000194BC4F8C4300923A4F8D430174BC4F8E6
:103CE000D8300A23A4F8E830154BC4F8EC30154658
:103CF000144955F8040B00F087F904F11001284627
:103D000000F0A2FA00233370304670BD74610108E0
:103D1000DC5F0108400100207C6101088C61010822
:103D2000F0610108FC6101089C610108A0610108C3
:103D3000B0610108BC610108C8610108D8610108CF
:103D4000E86101080C550020704700BF704700BFB4
:103D500008B54022103008F029F808BDF8B504462F
:103D60000D4616460F469268D3790A2B46D8DFE8EF
:103D700003F015454545060E454545451800EB8BB6
:103D800013B90A23EB834BE0013BEB8348E0EB8B59
:103D90000A2B0CBF00230133EB8341E00023EB83AC
:103DA0003EE0E98B0A2929D8DFE801F0340806361D
:103DB000181A1C1E202226001E4F25E0F36893F9D6
:103DC0000C305BBB1C4F1D493846FFF7C1FF1C4B35
:103DD0007B6540F6B833A7F8503021E0194F13E067
:103DE000194F11E0194F0FE0194F0DE0194F0BE07B
:103DF000194BD360174F13E0184F05E0B268D27922
:103E0000FF2A11D0092B0FD005F11001301D00F051
:103E10001BFA09E0124FF7E7124FF5E7124FF3E7ED
:103E2000B368DB79FF2BEFD1276000232371204695
:103E3000F8BD00BF280A00209C0600200862010887
:103E4000F80600200C10002018040020F00B0020C1
:103E500018090020180F00208C10002014010020E9
:103E6000480F002040010020CC050020704700BF13
:103E700000220270704700BF30B583B08488A14231
:103E80000EDAC588AA420BDA5D18013DAC42DCBFF0
:103E9000641A23B240690468069D00952469A0470E
:103EA00003B030BD30B583B08488A1420EDAC48837
:103EB000A2420BDA9D18013DAC42DCBFA31A1BB233
:103EC00040690468069D0095E468A04703B030BDD2
:103ED00010B50446037A13F0010F1DD0C36813B95F
:103EE0000F4B1B68C3600E4B1B68E2689A1A23894C
:103EF000C3F34B039A420DD9094B1B68E360237C43
:103F000001332374606807F049FF237C98429CBF0B
:103F100000232374237C00E000236068184410BD54
:103F20001C54002010B5044607F0B0FD204610BD1B
:103F300010B5044607F0AAFD204610BD2DE9F0415A
:103F40008046114DEE6A114F01233B70104C204604
:103F500002F01CFC00236B62C5F82C8023686FF014
:103F600001021A61204602F051FC3B78DBB2012BC2
:103F700005D13A4630BF1378DBB2012BFAD0024BA1
:103F8000DE62BDE8F08100BF000400400055002063
:103F90007454002010B50446406807F0FFFE00EBA3
:103FA00040004000782807D9237A43F001032372A8
:103FB0000023E360237410BD237A6FF300032372A0
:103FC00010BD00BF704700BFF0B583B0BDF92050F1
:103FD0008488A14215DAC688B24212DA5F18013F1E
:103FE000BC42DCBF641A23B2AC18013CA642DCBF61
:103FF000B51A2DB240690468099E01960095A4681F
:10400000A04703B0F0BD00BF00B583B0B0F90430E5
:104010000191B0F90620009200221146FFF7D4FF6B
:1040200003B05DF804FB00BF38B5044600250D74ED
:1040300003491068FFF7E8FF2570204638BD00BF30
:104040000C55002010B540690468A469A04710BD54
:104050002DE9F04F8DB0DDF858B09DF860A0848850
:10406000A14280F28E80C488A24280F28A800AEB4C
:104070008A040C44012C00F1848002EBCA04012C58
:104080007FD405692C78002C7BD00B930A91039088
:104090000023069393B21946089308331FFA83F955
:1040A0000991013C06998C4206D0AB786A680B985E
:1040B00000FB03235F5C00E000271FFA8AF8BDF8CD
:1040C0001820BDF8283018FB02F1194409B20491F8
:1040D000089C099D2E460FFA8AF1059113449BB264
:1040E000079317F0010F13D0BAF1010F06D15B4609
:1040F000224607990398FFF7A5FF2CE0CDF804B0FE
:10410000059B00932AB204990398FFF75DFF22E014
:104110009BF80020179B1B789A422ED19BF8012018
:10412000179B5B789A4228D19BF80220179B9B78BB
:104130009A4222D10FE0179B224607990398FFF776
:1041400081FF08E0179B0193059B009332B204990D
:104150000398FFF739FF7F080134A4B24544ADB29C
:104160004644B6B2A145BCD1069B01330693039ADF
:1041700015692C789C4294DC03E0BAF1010FE1D17F
:10418000D9E70DB0BDE8F08F2DE9F04F87B00646B6
:104190000D4614461F460593DDF840A0DDF844B0F7
:1041A0009DF848809DF84C9093F9003033B3B28865
:1041B000AA4241D2B9F1000F3AD1059BF81A3FE06B
:1041C0000D2B06D133695B7803FB0844A4B20025AC
:1041D0000FE0CDF80880CDF804B0CDF800A022B2F1
:1041E00029B23046FFF734FF33691B7803FB0855CB
:1041F000ADB217F9013F002BD9D100E0059F059B17
:10420000F81A1DE03269527802FB0844A4B2CDF8D6
:104210000880CDF804B0CDF800A022B200213046CD
:10422000FFF716FF33691D78E3E70A2BC8D1C9E70A
:10423000F288A242E6D2C0E7F288A242F5D2BCE7F9
:1042400007B0BDE8F08F00BF002900F0E7812DE93D
:10425000F04F89B00C4607460B7BCA7A897AB94879
:104260000190607B00903868FFF7AEFE3E6894F8DE
:104270000A900FFA89F3194694F80BA00FFA8AF303
:104280001A46257B013DADB22BB2079394F80D8001
:104290000FFA88F00690DFF8B4B2CDF800B00592BE
:1042A00004913046FFF7E8FDCDF800B0069B059A73
:1042B00004993046FFF7F6FDF2880AEB08039342B3
:1042C000A6BF02F1FF3212B20AEB0802DFF87CB29D
:1042D000CDF800B0079B04993046FFF7CDFD05EB04
:1042E0000901CDF800B0069B059A09B23046FFF7E8
:1042F000D9FDE67A0236F6B294F80A9009F104097B
:104300005FFA89F923688BB100220392012202929D
:104310008C4A01928C4A0092324649463868FFF72F
:1043200033FF3B681B695A781644F6B294F80D8047
:10433000A8F103033A68126992F8018093FBF8F838
:104340002368002B18BFA8F101085FFA88F81FFA4C
:1043500088F5228995424CD3002A00F04F81002530
:104360001FFA89F30493DFF8E0A1DFF8D891E3891D
:10437000AB4218D03868636805EB850203EB820313
:104380005B680269527812FB05F232440021039106
:1043900001210291CDF80490CDF800A092B20499C9
:1043A000FFF7F2FE1FE0D7F800B0DBF8103093F80B
:1043B000018018FB05F8B0441FFA88F805EB85006A
:1043C000636803EB8000FFF783FD00230393012361
:1043D0000293CDF804A0CDF800900346424604991C
:1043E0005846FFF7D1FE0135ADB22389AB42BED8A6
:1043F00004E1E38919464FEA5800824602F1FF3E84
:10440000C3EB0E0E864550DA551BADB2AA4240F200
:10441000F5801FFA89F30493DFF828A1DFF82891CB
:10442000E389AB421AD03868636805EB850103EB7A
:1044300081035B68AA1A42440169497811FB02F2C0
:1044400032440021039101210291CDF804A0CDF85E
:10445000009092B20499FFF797FE20E0D7F800B0E1
:10446000AA1A4244DBF810305B7813FB02F33344A2
:104470009BB2059305EB8500636803EB8000FFF7B3
:1044800027FD0023039301230293CDF80490CDF878
:1044900000A00346059A04995846FFF775FE0135BA
:1044A000ADB22289AA42BBD8A8E082B293424FD2D1
:1044B000002D00F0A3804FF0000AD0461FFA89F3C8
:1044C0000493DFF88490DFF87CB0E389434515D08E
:1044D0003868636853445B680269527812FB08F2DB
:1044E00032440021039101210291CDF804B0CDF8AE
:1044F000009092B20499FFF747FE1AE03B680593DB
:104500001B695B7813FB08F333449BB20693606826
:104510005044FFF7DDFC0023039301230293CDF801
:104520000490CDF800B00346069A04990598FFF769
:104530002BFE08F101081FFA88F80AF1140A454514
:10454000C3D15BE00C5500201C520020D453002046
:104550009D1AADB22A46C346181A804445454DDA25
:104560001FFA89F00490DFF8BC90DFF8B4809D4218
:104570001AD03868636805EB850E03EB8E035B6821
:10458000521A52440169497811FB02F23244002167
:10459000039101210291CDF80490CDF8008092B2F0
:1045A0000499FFF7F1FD1FE03B68521A524405934E
:1045B0001B695B7813FB02F333449BB2069305EB54
:1045C0008500636803EB8000FFF782FC0023039300
:1045D00001230293CDF80480CDF800900346069A9B
:1045E00004990598FFF7D0FD0135ADB22A46E3895D
:1045F0001946CAEB030058448542B8DBA17A237BF5
:104600000B44B21E3868064C0094023B12B20231D1
:10461000FFF732FC002009B0BDE8F08F00207047A2
:104620001C5200200C5500202DE9F04391B00546A6
:104630000E4614460B7C032B00F2B280DFE803F039
:10464000024B6AAAC8223021206902F0FFF9012337
:104650008DF8103000238DF811308DF812300DF1E7
:10466000130300210DF11F0203F8011B9342FBD13C
:10467000E1688B695B88ADF811300C310DF11300E6
:1046800007F084FB2069036801270097D3F80080B6
:104690000F2304AA4FF6FE71C04703970297DFF875
:1046A0006891CDF80490DFF86481CDF800804C4B20
:1046B0000A2202212068FFF767FD03970297CDF8D1
:1046C0000490CDF80080474B282202212068FFF794
:1046D0005BFD377472E0206903689B68984748B1B6
:1046E0004FF6FE71206906F0AFFF002866D0022366
:1046F000337463E0B368B3F5FA6F5FD93A4F3B495F
:104700003846FFF725FB3A4B7B6540F6B833A7F8F0
:10471000503046E0206903689B68984748B3354BA2
:104720001B78DBB2062B4FD1334B1B889BB24FF665
:10473000FE72934242D1314BD3F80220304904A893
:1047400007F000FB2F4F39462068FFF75DFC01237F
:1047500003930221029101972B4B009304AB1E227D
:104760002068FFF711FDB36864337361032333746A
:1047700024E0B26842F210739A421FD91A4F1B49C3
:104780003846FFF7E5FA1A4B7B6540F6B833A7F8D1
:10479000503006E04A698B689A420FD2144F00E00D
:1047A0000F46A368DB79FF2B00D0114FB74210D022
:1047B00001223021206902F049F90AE0A368DB797F
:1047C000FF2BF2D1374604E0A368DB79FF2BECD155
:1047D00037462F6000232B71284611B0BDE8F083C7
:1047E0002C620108486201089C06002068620108EA
:1047F000F8060020B9050020140800207C050020E0
:1048000084620108D45300200C5500201C52002063
:1048100030B585B00446002503950125029500F1C9
:104820000C05019509340094FFF7AEFC05B030BDCE
:1048300010B584B003695C78012303930293064B9F
:104840000193064B0093134604FB01F20021FFF78E
:104850009BFC04B010BD00BF0C5500201C52002072
:1048600008B5406903685B69984708BD002202707B
:10487000704700BF002381F858310370704700BFB4
:1048800000220270704700BF2DE9F04FADF2244DB9
:1048900005900491924691F85831032B00F2B481AF
:1048A000DFE803F002738799A349DAF80000FFF705
:1048B000ABFBA24A136803F6B83304980146C0F86C
:1048C0005C3113681C46069300234382204604F0A3
:1048D0000103002B0CBF6D2376230C460B7507F0EC
:1048E000BFF907F0E5F9964B83FB0036C317C3EB1E
:1048F0002613322606FB130636B204F118054FF4D0
:1049000080720021284607F0F7F804F58C7BDFF869
:104910003082642700244FF0010907F0C9F988FBB1
:104920000032C317C3EB621307FB1300B04204DA73
:1049300009FA04F32A6813432B600134202CECD1CC
:104940000435AB45E6D107F0B3F97E4A82FB00326D
:10495000C317C3EBE20202EB8202C2EB0212821A1D
:10496000643292B204980282012380F85831069B87
:1049700003F6B833C0F85C31734900F58C7007F06A
:10498000E1F90022714B1A703EE101230393029377
:104990006F4B0193684B0093049C04F58C730A22BF
:1049A0000021DAF80000FFF7EFFB022384F858310A
:1049B0002AE1624B1A68049BD3F85C319A42C0F03A
:1049C00023810323049A82F858315B49DAF8000006
:1049D000FFF71AFB18E104994A8A0B8A9A4203D31B
:1049E000002381F858310FE1049B03F118070A26D0
:1049F0000025DFF85CB1DFF8409100244FF001089A
:104A000008FA04F33A6813420AD0A10089B25B465F
:104A10003246DAF80000FFF715FB0135ADB207E0CA
:104A2000A10089B24B463246DAF80000FFF70AFBD4
:104A30000134202CE4D10236B6B204378A2EDCD100
:104A4000C5B9049C628A434904F58C7007F07AF971
:104A5000238A01336382012384F85831374B1B6862
:104A600003F6B833C4F85C313349DAF80000FFF7D5
:104A7000CBFAC5E0049C234618331946069394F9F3
:104A800014504FF4807208A807F02BF80DF1240B96
:104A9000234604F11C090127CDF81CA04FF0FF3A72
:104AA0004FF0010C0CF1FF326D2D55D159F8040C6B
:104AB00007FA02F207FA0AFED9F80040D9F80460B2
:104AC00007FA0CF110EA0E0F14BF0123002300EACD
:104AD0000208B8F1000F18BF01330EEA0408B8F15C
:104AE000000F18BF01330EEA060EBEF1000F18BF0B
:104AF000013302EA060EBEF1000F18BF01330E406B
:104B0000002E18BF01330C40002C18BF01330140A8
:104B1000002918BF0133991E012905D9DBF80010BF
:104B200021EA0201CBF80010032B45D1DBF800305D
:104B30001A43CBF800203FE00C5500201C54002005
:104B40001F85EB51B5814E1BB4620108DE100020B9
:104B50001C520020CC620108762D2DD107FA02F2FA
:104B6000D9F8004007FA0AF3234214BF01230023B7
:104B700059F8041C1140002918BF0133D9F804006A
:104B800002EA0001002918BF013307FA0CF12140A5
:104B900000290CBF1946591C8B1E012B05D9DBF8C7
:104BA000003023EA0203CBF80030032904D1DBF8FC
:104BB00000301A43CBF800200CF1010C0AF1010A75
:104BC000BCF1210F7FF46EAF0BF1040B09F1040966
:104BD00047AB5B457FF462AFDDF81CA04FF48072F9
:104BE00008A9069806F06EFFF8B14FF4807208A984
:104BF000069806F076FF03E0049A138A0133538285
:104C0000049A538A01335382DAF80830DB79FF2B98
:104C100005D1059A04991160002313710DE0094B29
:104C200005990B6000230B7107E0074A13780133E5
:104C3000DBB21370062BDFD8E2E705980DF2244DA6
:104C4000BDE8F08FF8060020DE10002010B5044605
:104C500006F01CFF204610BDF8B50C464B7803F05B
:104C6000040303F0FF025BB36E4B1B68C9685B1A59
:104C700040F6B8318B4223D9C379FF2B20D123884A
:104C800043F30903002B03DB94F908106268D15445
:104C900023885A1C42F3090262F3090323806389C3
:104CA0009A4204DB013B228863F309022280FF233E
:104CB00023762023237263786FF3820363708BE083
:104CC000C579FF2D00F08880092D16D8DFE805F0A2
:104CD000A605A807090B0D0F1113534E10E0534EF4
:104CE0000EE0534E0CE0534E0AE0534E08E0534E94
:104CF00006E0534E04E0534E02E0092D6CD8002626
:104D0000237EAB420BD1277C0137FFB2277430469C
:104D100007F044F887421DD3002323741AE00023D0
:104D20002374BAB1238843F30903002B03DB94F9FE
:104D300008106268D15423885A1C42F3090262F3B6
:104D40000903238063899A4204DB013B228863F3D1
:104D500009022280237CF356082B34D1238843F3A5
:104D6000090362680021D154238803F2FF3343F31F
:104D700009038B4204DB228863F30902228003E0EB
:104D800023886FF309032380238843F309036268B0
:104D90000021D154238803F2FF3343F309038B42EC
:104DA00004DB228863F30902228003E023886FF387
:104DB0000903238020232372FF23237663786FF374
:104DC0008203637008E023722576637843F004035E
:104DD0006370144B1B68E360124B1B681A4AA2FBFA
:104DE00003235B096269934208D06361637883F0AF
:104DF0000802C2F3C00262F3C3036370238843F363
:104E0000090323EAE373627812F0080F19BF62689E
:104E10005F2194F908106268D154F8BD0B4E6FE71A
:104E20000B4E6DE71C540020346301082463010815
:104E30001C630108146301080C6301080463010882
:104E4000FC620108F4620108D34D62103C63010862
:104E50002C63010808B50068084A0949043000F0CD
:104E6000D9FF40B10549064800F0F8FC0128044884
:104E700018BF002008BD002008BD00BF685301080E
:104E80009410002010B5FFF7E5FF421E084B03F118
:104E9000180412F8011F03F8011FA342F9D1044AB4
:104EA00090F82F3003F0010302331370104610BD49
:104EB000C410002070B584B004460E46FDF718FDFE
:104EC0003422394BDA60A568636805F1240103F5E3
:104ED0000062914210D300220192029301230393B6
:104EE00004A941F8102D01A8FDF72EFC08B10024FB
:104EF00055E06368A36023E00022002329460120D7
:104F0000FDF70AFDA1680022002302310220FDF70F
:104F100003FDA1680022002306310220FDF7FCFCFE
:104F2000A168002200230A310220FDF7F5FCA168E8
:104F3000002200230E310220FDF7EEFC1235A560A1
:104F40004DF6DC420023A1680120FDF7E5FCA168D5
:104F50003268002302310220FDF7DEFCD0B9A568DB
:104F6000E2680023A91D0220FDF7D6FCA0B9226942
:104F7000002305F10A010220FDF7CEFC70B9626939
:104F8000002305F10E010220FDF7C6FCB0FA80F403
:104F9000640904E0002402E0002400E00024FDF79E
:104FA0009DFC204604B070BD002002408368D3F809
:104FB0000200704770B506460C461546FFF7F6FF2F
:104FC000C0F30720A0421DD9327F104BA3FB04136E
:104FD00002EB1313717F0A44934215DA0B4AA2FBCA
:104FE0000412120902EB4201C2EBC102A41AA4B2DC
:104FF000582202FB04F404F1006404EBC3232B6089
:10500000012070BD002070BD002070BDC94216B2E5
:105010002DE9F04F89B08246894617469846129D81
:10502000FFF7C4FFC0F30726741CE4B2422C0AD871
:105030005046FFF7BBFF00908DF80140694650468F
:10504000FFF738FF00E04224A64200F0D88008AA0B
:105050004FF0FF3342F8043D31465046FFF7AAFFB8
:105060000646002800F0CC80FDF742FCDFF898A14E
:105070004FF0340BCAF80CB01FFA89F200230799DD
:105080000120FDF749FCFDF729FCFDF731FCCAF8CA
:105090000CB0DDF81C9000243A68234609F14C015D
:1050A0000220FDF739FC7A68234609F150010220FD
:1050B000FDF732FCBA68234609F154010220FDF7DE
:1050C0002BFCFDF70BFC079F1A222146684606F0D1
:1050D00013FD19224146684606F003FDFDF708FC62
:1050E000CAF80CB0009A2346B91C0220FDF714FC44
:1050F000019A2346B91D0220FDF70EFC029A2346B1
:1051000007F10A010220FDF707FC039A234607F185
:105110000E010220FDF700FC049A234607F112015C
:105120000220FDF7F9FB059A234607F1160102203C
:10513000FDF7F2FB069A234607F11A010120FDF75D
:10514000EBFBFDF7CBFB079FFDF7D2FBCAF80CB0DA
:105150002A68234607F11C010220FDF7DDFB6A687F
:10516000234607F120010220FDF7D6FBAA6823465B
:1051700007F124010220FDF7CFFBEA68234607F17F
:1051800028010220FDF7C8FB2A69234607F12C01FC
:105190000220FDF7C1FB6A69234607F130010220B6
:1051A000FDF7BAFBAA69234607EB0B010220FDF7C6
:1051B000B3FBEA69234607F138010220FDF7ACFB97
:1051C0002A6A234607F13C010220FDF7A5FB6A6A23
:1051D000234607F140010220FDF79EFBAA6A234601
:1051E00007F144010220FDF797FBEA6A234607F125
:1051F00048010220FDF790FBFDF770FB00E0002660
:10520000304609B0BDE8F08F00200240D9B12DE949
:10521000F041884615460646FFF7C8FEC0F307274B
:1052200077B100242A46A1B23046FFF7C3FE0346F9
:1052300018B12A681288424508D00134BC42F1D125
:1052400000232B6002E00023184670471846BDE893
:10525000F08100BF10B582B0416801F50062914253
:1052600014D20C884DF6DC439C4204D01C460AE064
:105270000B88A34207D181600C220631104406F04E
:1052800095FD012017E012319142F1D38260002296
:105290008DF8042001238DF807309DF8063003F0C7
:1052A000F003032161F307138DF806308DF8052014
:1052B00001A9FFF7FFFD02B010BD00BF704700BF9E
:1052C000F0B587B005460E46062200F01BFF062209
:1052D00006F11801684600F015FF06236A462946C4
:1052E000284601F061F80446002701970097B3694A
:1052F0000293F3690393336A0493736A0593062355
:105300006A462946284601F04FF80444B36A0293DE
:105310000093F36A039301930597049706236A4663
:105320002946284601F040F804440A4F062606E0C4
:1053300033463A462946284600F0FCFF241A002C42
:10534000F6D132462946384600F0B4FE0128EFD1A6
:1053500007B0F0BD6C5301082DE9F04395B0074646
:105360008946164698461C9C14F9045B0095234612
:10537000024631460EA801F055F81C9A0EA90846BF
:1053800000F084FE1C9B0EAA3946384600F06EFEE3
:105390001C9B0EAA3146304600F068FE009523465D
:1053A0004A4641460EA801F04DF8009523464A466C
:1053B0004146404601F036F8009523463A463146CC
:1053C00008A801F02FF81C9B08AA4946484600F09F
:1053D0004DFE009523463246394608A801F032F8C2
:1053E0001C9A4146304600F051FE0095234608AA1B
:1053F0003146304601F016F80095234632463946CC
:1054000002A801F00FF81C9B02AA4146404600F09A
:105410002DFE009523464A464146404601F002F8DB
:105420001C9A0EA902A800F031FE0095234608AA96
:1054300002A9084600F0F6FF009523463A4602A965
:1054400008A800F0EFFF1C9B0EAA08A9084600F070
:105450000DFE009523464A4608A9484600F0E2FFA3
:105460002A4602A9384600F04DFE15B0BDE8F0838B
:105470002DE9F04188B00446884616460023039380
:10548000049305930693079303230293154615F996
:10549000047B00F0FBFD00972B4602AA2146204624
:1054A00000F0C0FF334642462146204600F0DEFDB4
:1054B00000972B4606F164022146204600F0C2FF09
:1054C00008B0BDE8F08100BFF0B58DB006460D46CE
:1054D00000230793089309930A930B9301220692E2
:1054E00001930293039304930593009211F9047BB3
:1054F0003B4606AA104600F057FF394606A800F0C2
:1055000011FE013804B2012C13DD2A4669466846B3
:1055100000F0BCFD214606A800F02AFE28B12B466B
:1055200032466946684600F0A1FD013C24B2012CD8
:10553000EBD13A466946304600F0E4FD0DB0F0BDCF
:105540002DE9F0478EB00546894614461F4693F96B
:1055500000603146104600F015FE002840F09A80A9
:105560003A46494608A800F091FD3B4608AA29465C
:1055700002A800F07BFD3A4608A9084600F086FD27
:105580003B4622464946484600F070FD3A462146D1
:10559000204600F07BFD07F10408009643462246B2
:1055A0002946284600F04EFF0096434622462146F3
:1055B000204600F047FF00964346224629462046F3
:1055C00000F030FF3B4622462946284600F04EFDBB
:1055D000009643462A462946204600F033FF0096AF
:1055E000434622462946284600F02CFF0021284643
:1055F00000F0BEFDA0B1334642462946284600F0E1
:10560000D3FE82463146284600F046FD06F180432F
:10561000013B55F8232042EACA7245F8232003E0F3
:105620003146284600F038FD3A462946204600F02B
:105630002DFD0096434602AA2146204600F0F2FEC8
:105640000096434602AA2146204600F0EBFE009653
:105650004346224602A9084600F0E4FE3B4602AA61
:105660002946284600F002FD0096434608AA29462E
:10567000104600F0D7FE32462146284600F042FD93
:1056800032464946204600F03DFD324608A94846CC
:1056900000F038FD0EB0BDE8F08700BF70B50446DD
:1056A00016460369456905EB43056BB10139681E70
:1056B000002311F8012F82F05C0200F8012F013362
:1056C00022699A42F5D800E00023E2689A4207D99D
:1056D000EA185C2002F8010B0133E1689942F9D81D
:1056E000A368314620469847236820469847636858
:1056F000E268294620469847636822693146204679
:105700009847A36831462046984770BD08B543685E
:10571000984708BD38B504460369456905EB43055C
:105720006BB10139681E002311F8012F82F0360297
:1057300000F8012F013322699A42F5D800E00023D6
:10574000E2689A4207D9EA18362002F8010B0133C1
:10575000E1689942F9D82368204698476368E2686F
:1057600029462046984738BD70B504460E46154672
:10577000FFF7D0FF226929462046FFF7C7FF2A46D8
:1057800031462046FFF78AFF70BD00BFF8B50446DA
:105790000E461546D11C48BF033141F3870100F086
:1057A00005FD002D14DD00231A466F1EFB1A980814
:1057B000B15C03F00303DB0001FA03F354F820109B
:1057C0000B4344F82030013252B213469542EDDCCF
:1057D000F8BD00BF2DE9F843054689461E46B3F9DA
:1057E0000230DC1D48BF0734E4101F3348BF1F33AD
:1057F0004FEA6318944228BF14464FFA88F7394697
:1058000000F0D4FC224649462846FFF7BFFFE400DB
:10581000B6F9022094421FD9A21A05EB88039D42D3
:105820000CD20021C2F1200E53F8044D24FA02F0EC
:105830000143196004FA0EF19D42F5D31C363A4635
:105840002946304600F036FC012805D03B4632465A
:105850002946284600F06EFDBDE8F8832DE9F041A9
:1058600098B005460C4691F9012001460CA8FFF7B7
:105870008DFF94F9011094F900000A4629440CABFD
:1058800003EB8000FFF782FF94F90060F5B2690036
:1058900049B20CA800F076FCA0BB271D32460CA92B
:1058A000384600F007FC01282ED10CAB03EB86082C
:1058B00032464146384600F0FDFB012826D12246FB
:1058C0004146684600F0E2FBD4F8843022460CA939
:1058D00006A89847013D6DB2002D0EDB002018ABE5
:1058E00003EB850252F8601C52F8483C4B401843C9
:1058F000013D6DB2002DF2DA00E00020B0FA80F038
:10590000400904E0002002E0002000E0002018B080
:10591000BDE8F081002913DD70B400231C464E1E43
:10592000F31A9D0803F00303DB0052F8255025FA13
:1059300003F30355013464B223468C42F0DB70BCA0
:10594000704700BF2DE9F0418CB080460E461446EA
:1059500092F900700DEB870592F90120411C684611
:10596000FFF714FFD4F8843022466946284698474A
:10597000D4F8803021462846984798F800205DF8F2
:105980002730534013F0010F06D0214611F9043B94
:105990002A46284600F0CEFC6A4694F901103046AB
:1059A000FFF7B8FF94F901002A4601463044FFF79B
:1059B000B1FF0CB0BDE8F0812DE9F0410F469046F3
:1059C000B3F9026016F11F0448BF1F3444F34714B3
:1059D00003F11C0523462A460146384600F0E4FC44
:1059E00050B9B6EB441F09DA3146384600F0C0FB27
:1059F000061C18BF012602E0012600E0002623460F
:105A00002A463946404600F0CFFC3046BDE8F081DA
:105A10002DE9F04389B08046894614461F46109D03
:105A200015F9046B00962B460246214602A800F0A9
:105A3000F9FC109A02A9084600F028FB109B02AA64
:105A40004146404600F012FB109B02AA2146204628
:105A500000F00CFB00962B464A463946384600F0CB
:105A6000E1FC109A394602A800F010FB00962B4684
:105A7000424602A9084600F0D5FC00962B46224675
:105A800002A9084600F0CEFC00962B46424621466D
:105A9000204600F0C7FC109B22464946484600F0CD
:105AA000E5FA00962B4602AA4146204600F0BAFCD1
:105AB000109B22463946384600F0D8FA00962B460D
:105AC0004A463946384600F0ADFC324602A9204627
:105AD00000F018FB09B0BDE8F08300BFF0B587B057
