:020000040800F2
:10000000008000209501000851B000084DB00008A4
:1000100049B0000845B0000841B0000800000000E9
:10002000000000000000000000000000B1BA00085D
:100030003DB0000800000000B1BA00082DB0000873
:10004000B1BA0008B1BA0008B1BA0008B1BA0008E4
:10005000B1BA0008B1BA0008B1BA0008B1BA0008D4
:100060008DB00008B1BA0008E5AF0008B1BA0008C9
:10007000B1BA0008B1BA0008B1BA00081DB0000852
:10008000B1BA0008B1BA0008B1BA0008B1BA0008A4
:1000900019B00008B1BA0008B1BA0008B1BA000836
:1000A000B1BA0008B1BA0008B1BA0008B1BA000884
:1000B000B1BA0008C5AE0008B1BA0008B1BA00086C
:1000C000B1BA0008B1BA0008B1BA0008B1BA000864
:1000D000B1BA0008B1BA0008B1BA0008B1BA000854
:1000E000B1BA0008B1BA0008B1BA000800000000B7
:1000F0000000000000000000000000000000000000
:10010000000000000000000000000000B1BA00087C
:10011000B1BA0008B1BA0008B1BA00080000000086
:1001200009B00008F9AF0008B1BA0008B1BA000878
:10013000B1BA00080000000000000000000000004C
:10014000B1BA0008B1BA00080000000000000000C9
:10015000000000000000000000000000000000009F
:100160000000000000000000B1BA0008B1BA0008A9
:10017000B1BA00080000000000000000000000000C
:1001800000000000B1BA0008FEE700BFFEE700BFB4
:10019000FEE700BF5948004708B504F047FA474B4F
:1001A000474A9A60474B484A9A421FD214461D4616
:1001B000226863680C3454F8040C984205D952F84C
:1001C000041B43F8041B9842F9D8AC42F0D30DE06D
:1001D00050F8083C50F8042C934203D243F8041B17
:1001E0009A42FBD80830A042F2D10DE0374B384A92
:1001F0009A4209D202F10800DC1D241A24F00704F7
:10020000044408340021E3E7324B5B6803F00C033D
:10021000042B06D0082B08D01BBB2F4A2F4B1A608B
:1002200022E02D4A2D4B1A601EE02A4A536852687C
:10023000C3F38343023312F4803F05D1284A02FB03
:1002400003F3264A13600FE0224AD26A02F00F023B
:1002500001322149B1FBF2F203FB02F31F4A1360A2
:1002600002E01D4A1D4B1A601A4B5B681B4AC3F320
:1002700003131C49C95C1368CB4013601A4E1B4B17
:100280009E1BB610002E07DD174D002455F8043BC9
:1002900098470134A642F9D1154E164B9E1BB61055
:1002A000002E07DD124D002455F8043B9847013419
:1002B000A642F9D11049012000F03AF800ED00E023
:1002C00000000008180300080003000828030008C5
:1002D000180300080010024000127A0008000020F5
:1002E00000093D00586101082803000828030008A0
:1002F000280300082C0300080C00002099010008C6
:10030000D46D0108000000207C000020D46D01089D
:100310000000001000000010800000204455002064
:100320000000001000000010DDAC0008B1AC0008B7
:100330002DE98048B9B006F0ADFC06F0ABFC06F044
:10034000A9FC02F079FC012312934FF4803313933C
:1003500000221492022219921A934FF480131B93D5
:1003600012A801F0E9FB00B1FEE70F230D93022371
:100370000E9300230F934FF480621092119301218A
:100380000DA809F079FD00B1FEE74FF4003320938A
:100390004FF480032C9320A809F0BCFB00B1FEE7CA
:1003A0008C4B1B688C48A0FB0330800902F0B2FB29
:1003B0008A4A136843F004031360002211464FF089
:1003C000FF3002F0D3FB864D6B6943F400236B6171
:1003D0006B6903F400230A930A9B6B6943F480035F
:1003E0006B616B6903F480030993099B6B6943F4A8
:1003F00000336B616B6903F400330893089B6B69EE
:1004000043F480236B616B6903F480230793079B9C
:100410006B6943F480136B616B6903F4801306937B
:10042000069BDFF8DC8100224EF2CF31404601F01E
:1004300089FFDFF8D0A100221021504601F082FF91
:1004400000224FF4F0614FF0904001F07BFF654FC8
:10045000002245F22041384601F074FF4EF2CF33BE
:1004600020930126219600242294239420A940461B
:1004700001F080FF4FF01009CDF880902196229472
:10048000239420A9504601F075FF4FF4F0632093A8
:1004900021962294239420A94FF0904001F06AFF06
:1004A000CDF88090DFF86091CDF88490229420A957
:1004B000404601F05FFF0A2002F042FB45F2204374
:1004C000209321962294239420A9384601F052FFCC
:1004D0004FF400632093CDF88490229420A93846ED
:1004E00001F048FF042320933F4B2193229420A93D
:1004F0003E4801F03FFF22462146082002F036FB2D
:10050000082002F01DFB4FF40078CDF88080219682
:1005100022940323239320A9384601F02BFF6B6913
:1005200033436B616B6933400593059B6B6943F003
:1005300002036B616B6903F002030493049B224680
:1005400021460F2002F012FB0F2002F0F9FA22469A
:100550002146382002F00AFB382002F0F1FA224648
:100560002146392002F002FB392002F0E9FA204846
:10057000204B03604FF4827343604FF40043836069
:100580004FF4E063C36004614461C0F81880C46143
:100590000462446284620723C362046308234363E2
:1005A00009F00AF900B1FEE71348144B0360002379
:1005B000436083604FF49E62C26003614361836164
:1005C00004F036FA00B1FEE70B4804F055F9E8B143
:1005D000FEE700BF08000020D34D621010E000E0ED
:1005E000001002400004004800003110000C0048D8
:1005F000B8070020003800401002002000440140ED
:1006000000080048001400480000111060231293F5
:100610004FF41E731393002314931593169317939B
:10062000189340F27B614B480AF014FD149B33F0A1
:10063000020304D040F27C6146480AF00BFD464BB1
:1006400093F83C30012B36D0434B012283F83C20F9
:10065000022283F83D201B68404A93421BD0B3F12D
:10066000804F18D0A2F59432934214D002F58062E4
:10067000934210D002F59C3293420CD002F5806276
:10068000934208D002F58062934204D04FF4D161C6
:1006900030480AF0DFFC304C12A9206804F058F80A
:1006A000012384F83D30002384F83C3023682B4A32
:1006B000934201D115E0FEE7294A934211D002F599
:1006C000806293420DD002F58062934209D040F2DD
:1006D000DC7120480AF0BEFC1F4B93F83C30012B24
:1006E00037D01D4B012283F83C201A681B4B9A42DD
:1006F00023D1279C34F0807304D040F2F97115485F
:100700000AF0A8FC289E36F0007304D040F2FA717B
:1007100010480AF09FFC299D0F2D04D940F2FB716F
:100720000C480AF097FC2B0523F0807344F4005426
:10073000234323F00073334301E04FF40053064991
:100740000A685364002381F83C30064B9A4219D161
:100750000AE0FEE75059010810020020002C014079
:1007600000400140004401404FF480730D93022388
:100770000E9300230F931093012311930DA9684842
:1007800001F0F8FD674B684A1A604FF080525A60DA
:100790004FF080729A600022DA60012119615A617B
:1007A0004FF4C0419961DA611A625A629A625F4AF3
:1007B0001A635F4A9A63DB6A012B03D9E9215D481A
:1007C0000AF048FC574B93F83C3013F0FF0F03D16D
:1007D0000022544B83F83D20524B022283F83C20E8
:1007E0001A68514B9A4243D1A3F540535A6942F0DB
:1007F00080725A615B6903F080730B930B9B372304
:1008000020930226219600242294239403252495E4
:1008100020A94FF0904001F0ADFD4823209312270E
:10082000219722942394249520A94FF0904001F021
:10083000A1FD20232093219622942394249520A97E
:100840003D4801F097FD5B23209321962294239449
:100850002495334E20A9304601F08CFD842320934B
:10086000219722942394249520A9304601F082FDFB
:100870002C4B1A6801211160186801685A681143ED
:100880009A6811435A6911439A691143DA6911430D
:100890005A6A11439A6A0A43196942EA414202605C
:1008A000DB68012B05D11F4B1A68136843F48033B2
:1008B00013601C4C2568226B636B1A43A36B1343B4
:1008C000DB432B61226B636B1343AB62A36B2B6225
:1008D000206B03F003FF28636B6823F003036B6056
:1008E0000323AB60012384F83C301448144B0360AD
:1008F0004FF482734360002383604FF4E062C26070
:10090000036143614FF480228261C36103624362E9
:1009100083620A23C36208F04FFF98B1FEE700BF6D
:1009200000040048F851002000400240370707004B
:100930004808080080590108000800481C080020E9
:10094000003C004000224FF40071B34801F0FAFC73
:1009500000221146082002F009F9082002F0F0F800
:100960000023AE4A1370AE4AD16941F00201D16151
:10097000D26902F002020C920C9AAA4CAA4A226096
:1009800020226260A3604FF48052E260236120461F
:1009900004F04EF894F83C30012B3BD0012284F84F
:1009A0003C20022284F83D20236899689F4A0A402F
:1009B0009A609F4A93421FD0B3F1804F1CD0A2F59A
:1009C0009432934218D002F58062934214D002F51B
:1009D0000062934210D002F5983293420CD002F597
:1009E0008062934208D002F58062934204D040F6C0
:1009F000537190480AF02EFB8A4A11688B6823F4E1
:100A0000803323F007038B60012382F83D300023FD
:100A100082F83C30834B1B686FF001021A610022A0
:100A200011461D2002F0A2F81D2002F089F8824B29
:100A30001C687F4B9C423CD0B4F1804F39D0A3F569
:100A400094339C4235D003F580639C4231D003F54A
:100A50009C339C422DD003F580639C4229D003F542
:100A600080639C4225D040F2454172480AF0F2FA78
:100A7000714B1C686E4B9C421BD0B4F1804F18D058
:100A8000A3F594339C4214D003F580639C4210D0AC
:100A900003F59C339C420CD003F580639C4208D044
:100AA00003F580639C4204D041F2F24161480AF0B0
:100AB000D1FA236A23F001032362236A43F001037E
:100AC00023625D4B1B685A4A93420BD002F5A05239
:100AD000934207D002F58062934203D002F5806210
:100AE000934203D15A6C42F400425A641A6842F0AD
:100AF00001021A6025AB39AD00224FF47A7423F855
:100B0000142C43F8102C13F80C0C62F3000003F8BB
:100B10000C0C33F80C0C64F34C0023F80C0C43F869
:100B2000082C03F8042C1433AB42E8D1434B0D934B
:100B300020AB0E9300238DF83E308DF83F3080229D
:100B40008DF8402040218DF84110ADF84230ADF8CD
:100B50003C303B4C3B4B63613B4B236101223B48A8
:100B600001F0F0FB646905238DF80B302379052B28
:100B70000BD0052323713A21204609F0DBFE012228
:100B80000DF10B01204609F0CDFE2D4B5C69637918
:100B9000202B0AD0202363713621204609F0CAFE9B
:100BA0000122611D204609F0BDFE01224FF4805153
:100BB000194801F0C7FB254C01228021204601F095
:100BC000C1FB0A2002F014F800228021204601F027
:100BD000B9FB0A2002F00CF801228021204601F026
:100BE000B1FB0A2002F004F8194C154D264614F802
:100BF000031C79B3686909F09DFE14F8012C1AB141
:100C00002146686909F08EFE16F8020C08B101F061
:100C1000EFFF1334EAE700BF00040048B4070020E8
:100C20000010024094540020000400408800FEFFA1
:100C3000002C0140AC59010810020020D8590108CD
:100C40008008002024060020000000200008004842
:100C5000E35A01089A4C9B49204604F045FC204683
:100C600005F062F84FF47A7001F0C2FF0023ADF88E
:100C70008030954B2193BDF83C300133ADF83C30CA
:100C800003940DA903A804F04FFD204605F04CF88D
:100C9000642001F0ADFF8D4B9B691A884DF6DC4353
:100CA0009A421CD1894803F0BDF9C0B1302200211D
:100CB00012A80AF04DFF854B9869854A12A90430A5
:100CC00005F0F8FD58B1824912A805F017FB01287C
:100CD00005D10223ADF894307E4B269304E0022325
:100CE000ADF894307C4B2693BDF83C300133ADF821
:100CF0003C30BDF842300133ADF842300DA903A8B5
:100D000004F012FD6E4805F00FF8642001F070FF4A
:100D10006E4B9B695D8838263246002112A80AF086
:100D200017FF01228DF8482004218DF84910022078
:100D30008DF84A0003238DF84C308DF84D008DF866
:100D40004E1040248DF84F4005218DF850108DF83D
:100D5000513006218DF8521033238DF8533007237C
:100D60008DF8543008208DF8560009208DF8580071
:100D700019208DF85A0042208DF85B0025278DF848
:100D80005C708DF85D4026248DF85E408DF85F30F4
:100D900028238DF8603010248DF861404FF0290C25
:100DA0008DF862C0DC238DF863302E238DF864301B
:100DB0004FF088088DF865802F238DF866302D233D
:100DC0008DF8673030238DF8683037278DF86A70DA
:100DD00090278DF86B708DF86C608DF86D004FF07A
:100DE0003C0E8DF86EE08F278DF86F703D208DF8EA
:100DF000700012208DF871006F268DF872608DF8EA
:100E0000733018208DF874008DF875808DF876C0D9
:100E10004FF0BE0C8DF877C08DF878E08DF87970C2
:100E20008DF87A608DF87B308DF87C008DF87D1020
:100E3000FF238DF87E30E4238DF85530C0238DF8E4
:100E400057308DF869204FF400414FF0904001F089
:100E500079FA2146214807F08BFA242840F0A18531
:100E60001F4BD3F800801D4E2F241F46AA22214677
:100E7000304607F04FFA2146304607F079FAAA28A3
:100E800004D03B68C8EB0303312BEFD9144BD3F8E4
:100E90000080124E2F241F4655222146304607F06F
:100EA00039FA2146304607F063FA55281AD03B68D4
:100EB000C8EB0303312BEFD9012100231C4614E0BA
:100EC000800800202C550020E459010894070020D8
:100ED000C8530108F0590108005A01085C060020B7
:100EE0003C540020012100231C46B54E38AA02EBD9
:100EF000430313F8972C304607F00CFA0134E4B2A0
:100F0000234638AA02EB440212F8981CFF29EDD1BF
:100F1000AB4C2368DB6A0121204698473D212046DF
:100F200007F026FA00F0FE023D21204607F0F2F914
:100F300023681B69217B204698472368DB6A0121CF
:100F4000204698479F4B1C68DFF8748227271E466F
:100F50003946404607F00CFA10F0800F03D1336891
:100F60001B1B312BF4D9974B1B681B1B312B00F239
:100F700018850022944B1A70944A954B1A60904839
:100F8000944B186005810123ADF8A830924B2B9348
:100F90001F210AF063F9BDF83C300133ADF83C3055
:100FA000BDF842300133ADF842300DA903A804F07A
:100FB000BBFB8A4C204604F0B7FE642001F018FE0B
:100FC000874D2946204604F08FFA204604F0ACFEF7
:100FD00060690368DB6983499847834B9622002147
:100FE000204604F079FE204604F09EFE40F6B8301C
:100FF00001F0FEFD00227D4BA3F8CC2005F07CFE25
:101000007B4A7C4B1A606F4B1A687B4B9A600321BA
:101010007A4805F04FFE2946204604F065FADFF8CD
:10102000D881DFF8EC91CDF80480664B1B68009303
:101030000121734803F066FB322001F0D9FD98F8D6
:101040000430002B00F02C8100252F466C4C03E06F
:101050000C35FF2E40F02581D8F800305A1953F88E
:1010600005A0D2F804B023684B4504D040F27F219C
:10107000644809F0EFFF94F83D30012B00F0D18473
:10108000012384F83D302268136823F002031360C3
:1010900026684AEA0B03DB433361C6F828A0C6F88A
:1010A00020B0504603F01AFB3063002384F83D3033
:1010B0004E4509D04FF4C471524809F0CBFF94F863
:1010C0003D30012B00F07484012384F83D3002236D
:1010D00084F83C3023685A6822F003025A600322E5
:1010E0009A60226A22B91A6822F010021A6003E09C
:1010F0001A6842F010021A602268136843F0020373
:101100001360002384F83D3023684B4509D04FF429
:101110000C713C4809F09EFF94F83D30012B00F023
:101120004F84012384F83D3023684B4504D040F2BE
:10113000D521344809F08EFF94F83C30DBB2022B05
:101140000CD12368DA6812F0010F07D0DB6813F0C6
:10115000020F14BF0323012384F83C3094F83C3081
:10116000DBB2022BE0D0002384F83D30D8F8003009
:101170002B449E6823684B4504D04FF417712148D7
:1011800009F068FF072E04D940F25D211D4809F0DF
:1011900061FF23680C3603EB86067368FB2B39D896
:1011A000FEB238E005F076FD174B9E6805F072FD43
:1011B000164A0146304605F04FFDFF262BE000BFE2
:1011C0005C0600203C5400209000002031B1000853
:1011D000C452002050020020105A0108800800204C
:1011E0002C550020D05A01081C5A0108C4060020C2
:1011F0003C050020385200205402002080000020CE
:10120000F851002080590108EC5100202C5A0108A7
:1012100000400240FF2623684B4504D040F2E9110C
:10122000A84809F017FF94F83D30012B00F0D18356
:10123000012284F83D2021680B6823F002030B6033
:1012400021680B6823F010030B6023680321996069
:1012500084F83C20002384F83D3018E005F01AFDA6
:10126000994BD3F808A005F015FD984A0146504661
:1012700005F0F2FC0BE005F00DFD934B9E6805F0C8
:1012800009FD934A0146304605F0E6FCC9E3013703
:1012900098F80430BB423FF7DBAE02E0FF2600E0E7
:1012A000FF2600218B4803F02DFA98F80530B34251
:1012B0000FD198F80620013288F8062098F8072008
:1012C000FF2A00F08E83FF2B40F0918388F80730CF
:1012D00087E3814B1B68C8F80830D8F80C1061B35D
:1012E0000A78FF2A06D10A2E1FD00E707A4B1B688F
:1012F0004B601AE0FF2E17D00A2E0CD1764B1B68DC
:1013000048681B1AB3F5FA6F05D2734B1B684B6024
:10131000FF230B7009E0B2426F4B1B684B604FF02C
:10132000FF0298BF0A7000E0FF2288F8072088F8C3
:101330000560D8F80C305BB92AE0019806F05CFF34
:1013400088F8070088F80560002388F806301FE059
:10135000FF2A09D0614B01219970DA7000225A608E
:101360009A601A735A732EE0019E304606F044FFCD
:10137000FF2828D0594C238803F47845258030462F
:1013800006F03AFF0130012383402B4323801AE00B
:10139000019E304606F030FFFF280DD04F4C2388C9
:1013A00003F478452580304606F026FF01300123FE
:1013B00083402B43238006E0484A138823F4FF63CD
:1013C00023F007031380464B20932193019B229324
:1013D000444B2393444B2493404B2593434B1C682D
:1013E000636803F58073636013F0010F18D1002365
:1013F000A36023689B6820AA214612A898479DF8FD
:101400004830002B40F0F982237943F00103237127
:10141000314B1B68E3602546314804F085FC1DE034
:10142000A3680133A3602368DB6820AA214634A89F
:101430009847349D9DF8D460AC420AD023681B695C
:10144000214636A89847237923F00103237100230E
:10145000E360234804F068FC002E4BD1234B1C684A
:10146000AC4205D0002388F80630FF2388F8053009
:101470001F4B9C4222D0D8F80830009A93421DD2CC
:10148000D61A239802F07AFCC0F303604EF660236C
:1014900003FB00F39E4211D923681B69214637A83C
:1014A0009847237923F0010323710021E160104A5A
:1014B0000E4B1A60094805F0FDFB28E00B4B1D6040
:1014C00025E000BF80590108EC510020405A010876
:1014D000545A0108F85100203C540020800000209C
:1014E00080080020940700205C060020385200206D
:1014F000AC000020A44CA549204603F089FEA44B73
:1015000063654FF4FA63A4F85030A24B1C60A24B01
:1015100093F90C3013B15F2B40F07B829F4B9B788B
:10152000052B00F26E81DFE813F030005D0006004D
:10153000C4008A00A7009A4B1B68984A52689B1AFD
:10154000B3F5AF7F40F25D810022944B1A800AF020
:10155000DBFB944B83FB0034C317C3EB640404EB45
:10156000840304EB4304041B002C40F34A818B4B9F
:101570001B880021012000FA01F213439BB20131C4
:101580008C42F8D1854A13803BE1874B93F8D432E3
:1015900013F0800F19D0824B1B68804A52689B1A47
:1015A000B3F5AF7F40F22D81804B5C681D8825B973
:1015B0004FF4E4717E4809F04DFD63696B4063614F
:1015C000774B1A68754B5A601BE1744B1B8813F0FC
:1015D000010F00F0168101224FF40051754800F010
:1015E000B1FE0EE16D4B1D7B28461A8801231C4677
:1015F000591E884204FA03F1A6BF0A4392B28A43F5
:1016000001330B2BF4D165490A80654B1B6889684F
:101610005B1AC82B40F2F580614B1B685F498B60F9
:101620006B1CDBB20B73C978994280F0EA805B4B8C
:1016300000211973997002F478421A80A5E1574B82
:1016400093F90D30002B02DA0A22544B5A73544B93
:101650001B68524A51685B1A127B934240F2D18058
:101660004F4B1A684D4B5A6093F90D200121914060
:101670001980013A5A73C4E0484B93F90D300A2B94
:1016800002DD0022454B5A73454B1B68434A5168A3
:101690005B1A127B934240F2B480414B1A683F4B75
:1016A0005A6093F90D2001219140198001325A733B
:1016B000A7E03A4B93F90D300B2B7DDC032B1FDC9D
:1016C000374A1168354A5268891AB1F5AF7F40F23E
:1016D0009880334A1168314A5160DAB212F0010F32
:1016E00007D12E490B886FEAD3236FEAC3230B80FF
:1016F00002E00021294B19800132284B5A7380E007
:10170000274A1168254A5268891A322979D9244A08
:101710001168224A5160DBB213F0010F19D1147B1A
:101720002646118800220125B24205FA02F0DABFEE
:10173000014389B2814301320B2AF5D1174A118046
:101740000A2C02D1013353735BE00134134B1C7339
:1017500057E0124A147B2646118800220125B24226
:1017600005FA02F0DABF014389B2814301320B2A44
:10177000F5D10A4A118014B90133537341E0013C99
:10178000064B1C733DE000BF6C060020685A010840
:101790003C050020385200209407002080000020E3
:1017A0003C540020E9A28B2E64020020C852002085
:1017B0007C5A0108000800480D2B1EDC9C4A116869
:1017C0009C4A5268891AB1F5AF7F1AD9984A1168B4
:1017D000984A5160DBB213F0010F07D1114612880D
:1017E0006FEAD2226FEAC2220A8002E00021914A07
:1017F000118001338F4A537303E000218D4805F0B7
:1018000059FA8C4B1B8803F002039BB233B18A4B0D
:1018100001221989D86800F095FD05E0864B002269
:101820001989D86800F08EFD824B1B8803F00403F1
:101830009BB233B1804B0122198A586900F082FDB6
:1018400005E07D4B0022198A586900F07BFD794B39
:101850001B8803F008039BB233B1774B0122198B2D
:10186000D86900F06FFD05E0734B0022198BD86931
:1018700000F068FD6F4B1B8803F010039BB233B17F
:101880006D4B0122198C586A00F05CFD05E06A4B33
:101890000022198C586A00F055FD664B1B8803F036
:1018A00020039BB233B1644B0122198DD86A00F03A
:1018B00049FD05E0604B0022198DD86A00F042FD19
:1018C0005C4B1B8803F040039BB233B15A4B01229F
:1018D000198E586B00F036FD05E0574B0022198E2B
:1018E000586B00F02FFD534B1B8803F080039BB215
:1018F00033B1514B0122198FD86B00F023FD05E065
:101900004D4B0022198FD86B00F01CFD494B1B88F2
:1019100003F480739BB23BB1474B0122B3F84010F4
:10192000586C00F00FFD06E0434B0022B3F8401066
:10193000586C00F007FD3F4B1B8803F400739BB20B
:101940003BB13D4B0122B3F84810D86C00F0FAFCD3
:1019500006E0394B0022B3F84810D86C00F0F2FCD6
:10196000344B1B8803F480639BB23BB1324B0122A2
:10197000B3F85010586D00F0E5FC06E02E4B002245
:10198000B3F85010586D00F0DDFC2C4B1A682C4B4E
:101990009A423FF44AAB009920A805F0C1F8FFF73E
:1019A00044BB0123ADF8A830264B2B93FFF7F3BAC5
:1019B00005F070F9244B9B68002B7FF45CAC30E0A1
:1019C00005F068F9204B9B68002B7FF4EBABFF26FA
:1019D00021E405F05FF91C4B9B68002B7FF43EACC3
:1019E00055E4D8F80C30002B7FF4BEACD0E4D8F826
:1019F0000C30002B7FF4AEACCAE4144D14492846D9
:101A000003F006FC134B6B6542F21073A5F85030DF
:101A100002E520A9104805F0CDFA7FE50C35FFF767
:101A20001BBB013798F804309F42F7DB36E400BF58
:101A30003C54002080000020C85200203852002072
:101A400094000020AC5A0108EC5100206C060020E4
:101A5000BC5A01083C050020C406002010B4244BE9
:101A60001C68244A194608E0B0F1FF3F05D0002861
:101A700036D00B681B1B984234D3D36813F0010F88
:101A8000F2D11C4BDB6813F0200F02D02022194B3F
:101A9000DA60184BDB6813F0100F04D1154BDB68CC
:101AA00013F0040F20D0134BDB6813F0100F06D097
:101AB000114AD36943F00203D361102300E00023ED
:101AC0000C4AD26812F0040F06D00B49CA6942F0E2
:101AD0000102CA6143F00403064AD360012004E016
:101AE000032002E0032000E0002010BC704700BF8C
:101AF0003C540020002002409808002010B5044605
:101B0000C31E042B03D9BE21094809F0A3FA094AD0
:101B1000D36823F4E0631B041B0C43F0BF6343F45E
:101B20000033240204F4E0642343D36010BD00BFFB
:101B3000845C010800ED00E0F0B583B0044620B9F4
:101B400040F21B11A34809F085FA2368002B00F02E
:101B5000598113F00F0F04D14FF48E719D4809F095
:101B600079FA236813F0010F00F0A380636833F45F
:101B7000803207D0B3F5A02F04D04FF4917195486F
:101B800009F068FA944B5B6803F00C03042B0AD04D
:101B9000914B5B6803F00C03082B1BD18E4B5B68E9
:101BA00013F4803F16D04FF4003393FAA3F38A4B1B
:101BB00019684FF4003393FAA3F3B3FA83F303F0F5
:101BC0001F03012202FA03F30B4272D06368002B59
:101BD0006FD1F3E26368B3F5803F05D17E4A1368A5
:101BE00043F48033136026E063B903F1804303F5C7
:101BF00004331A6822F480321A601A6822F48022B0
:101C00001A6018E0B3F5A02F0CD103F18043A3F5BF
:101C10003C331A6842F480221A601A6842F4803217
:101C20001A6008E06C4B1A6822F480321A601A6855
:101C300022F480221A606849CB6A23F00F02A3685D
:101C40001343CB626368D3B1644B1F684FF4003217
:101C50000D4601201E4604E03368DB1B642B00F2B6
:101C6000AF8292FAA2F3296892FAA2F3B3FA83F34D
:101C700003F01F0300FA03F30B42EDD019E0574BBA
:101C80001F684FF40032544D01201E4604E03368B3
:101C9000DB1B642B00F2968292FAA2F3296892FA77
:101CA000A2F3B3FA83F303F01F0300FA03F30B422A
:101CB000EDD1236813F0020F00F0A4802369012BFB
:101CC00004D94FF4AD71434809F0C4F963691F2B7F
:101CD00004D940F25B113F4809F0BCF93E4B5B6808
:101CE00013F00C0F0AD03C4B5B6803F00C03082B7D
:101CF00028D1394B5B6813F4803F23D1022393FA38
:101D0000A3F3354B1968022393FAA3F3B3FA83F3D1
:101D100003F01F03012202FA03F30B4203D02369ED
:101D2000934240F051822C480368F82292FAA2F2C2
:101D3000B2FA82F2616901FA02F223F0F803134366
:101D400003605FE0236993B3012292FAA2F3B3FA2E
:101D500083F303F1845303F584139B001A601F4B34
:101D60001F6802221C4D01201E4604E03368DB1B65
:101D7000022B00F22B8292FAA2F3296892FAA2F3C4
:101D8000B3FA83F303F01F0300FA03F30B42EDD021
:101D900011480368F82292FAA2F2B2FA82F261695B
:101DA00001FA02F223F0F803134303602AE001234F
:101DB00093FAA3F3B3FA83F303F1845303F5841383
:101DC0009B0000221A60054B1F680222024D012071
:101DD0001E460AE0B45C0108001002403C5400209A
:101DE0003368DB1B022B00F2F38192FAA2F329681D
:101DF00092FAA2F3B3FA83F303F01F0300FA03F39A
:101E00000B42EDD1236813F0080F57D0A369012BC3
:101E100004D940F29B11AF4809F01CF9A36933B310
:101E2000012191FAA1F2B2FA82F2AB4B13449B006A
:101E30001960AA4B1F680222A94D08461E4604E0FD
:101E40003368DB1B022B00F2C58192FAA2F392FAEF
:101E5000A2F392FAA2F3696A92FAA2F3B3FA83F3B5
:101E600003F01F0300FA03F30B42E9D026E001223E
:101E700092FAA2F2B2FA82F2974B13449B0000222C
:101E80001A60964B1F680222954D01201E4604E001
:101E90003368DB1B022B00F29F8192FAA2F392FAC5
:101EA000A2F392FAA2F3696A92FAA2F3B3FA83F365
:101EB00003F01F0300FA03F30B42E9D1236813F088
:101EC000040F00F0B480E368012B06D9052B04D081
:101ED00040F2C7117F4809F0BDF8814BDB6913F070
:101EE000805F0CD17E4BDA6942F08052DA61DB69A7
:101EF00003F080530193019B4FF0010C01E04FF080
:101F0000000C784B1B6813F4807F11D175490B6866
:101F100043F480730B60714B1D68184604E003683E
:101F20005B1B642B00F25A810B6813F4807FF6D0A0
:101F3000E368012B05D16A490B6A43F001030B6288
:101F400022E063B903F1804303F50433196A21F0F9
:101F500001011962196A21F00401196214E0052BCC
:101F600009D15F4B196A41F004011962196A41F005
:101F70000101196208E05A4B196A21F00101196246
:101F8000196A21F004011962E36823B3534BD3F8B3
:101F900000E00221524D01201F4641F2883605E043
:101FA0003B68CEEB0303B34200F21A8191FAA1F32E
:101FB00091FAA1F30BB12A6A02E091FAA1F36A6ADD
:101FC00091FAA1F3B3FA83F303F01F0300FA03F3CA
:101FD0001342E5D023E0414BD3F800E00221404D0D
:101FE00001201F4641F2883605E03B68CEEB030333
:101FF000B34200F2F78091FAA1F391FAA1F30BB189
:102000002A6A02E091FAA1F36A6A91FAA1F3B3FA9B
:1020100083F303F01F0300FA03F31342E5D1BCF18D
:10202000000F04D02E4AD36923F08053D361E369B3
:10203000022B04D940F20B21264809F00BF8E36982
:10204000002B00F0D180264A526802F00C02082AC8
:1020500000F0CC80022B40F08980236A33F4803377
:1020600004D04FF405711B4808F0F4FF636A33F4A1
:10207000802219D0B2F5002F16D0B2F5801F13D0F0
:10208000B2F5C01F10D0B2F5001F0DD0B2F5201F61
:102090000AD0B2F5401F07D0B3F5601F04D040F25C
:1020A00015210C4808F0D6FF4FF0807393FAA3F384
:1020B000B3FA83F303F1845303F584139B000022E6
:1020C0001A60064B1F684FF00072054D01201E4636
:1020D0000EE000BFB45C0108208190103C54002049
:1020E00000100240007000403368DB1B022B7FD8D9
:1020F00092FAA2F3296892FAA2F3B3FA83F303F0F7
:102100001F0300FA03F30B42EED13D494B68606AAE
:10211000226A024323F4741313434B604FF080731D
:1021200093FAA3F3B3FA83F303F1845303F584130F
:102130009B0001221A60334B1E684FF000720C4660
:1021400001201D4603E02B689B1B022B52D892FAFC
:10215000A2F3216892FAA2F3B3FA83F303F01F0308
:1021600000FA03F30B42EED0002046E04FF08073FC
:1021700093FAA3F3B3FA83F303F1845303F58413BF
:102180009B0000221A601F4B1E684FF000721C4C0F
:1021900001201D4603E02B689B1B022B2CD892FAD2
:1021A000A2F3216892FAA2F3B3FA83F303F01F03B8
:1021B00000FA03F30B42EED100201EE001201CE0E8
:1021C00003201AE0032018E0012016E0032014E0A9
:1021D000032012E0032010E003200EE003200CE0B7
:1021E00003200AE0032008E0002006E0012004E0CC
:1021F000032002E0032000E0032003B0F0BD00BF95
:10220000001002403C54002038B5474B5B69034244
:1022100000F08980444B586100F0040080B200282F
:1022200000F08180414B1B78002B7CD0404B5D6AD5
:1022300003F108231B6903F004043E4802F082FB0B
:10224000C8353D4B1B785BB2042B64D8DFE803F044
:10225000030B1C274C00002C5DD104F0DDFF012294
:10226000354B1A7057E05CB1B5F5487F08D90023AB
:10227000324A1360324A136002222F4B1A704AE02E
:1022800000222D4B1A7046E02CB904F0C5FF032242
:10229000294B1A703FE0FF22274B1A703BE01CB914
:1022A000FF22254B1A7036E0B5F5487F0FD9244B35
:1022B0001A681A601B681BB905221F4B1A7002E0CE
:1022C000FC221D4B1A700022184B1A7023E0B5F542
:1022D000C87F05D904F0A0FF0422174B1A701AE03A
:1022E000FF22154B1A7016E0ACB904F095FF0322DB
:1022F000114B1A70B5F5966F03D9012004F052FF07
:1023000009E0B5F5C87F03D9002004F04BFF02E0D7
:10231000FF22094B1A70084B1B7813F0800F02D074
:102320000022024B1A7038BD00040140B40700209F
:102330000004004094540020F0530020501200206C
:10234000C410002070B5054614460E4621B94FF45E
:10235000D971074808F07EFE012C04D940F2B31170
:10236000034808F077FE0CB1AE6170BDAE6270BD7F
:102370007C5A01082DE9F04F83B006460C46B0F1B7
:10238000904F16D09C4B984213D003F5806398422F
:102390000FD003F5806398420BD003F58063984219
:1023A00007D003F58063984203D0C521934808F015
:1023B00051FE23689AB212B11B0C1B041BB1C6213B
:1023C0008E4808F047FE6368032B17D9A3F111026A
:1023D000012A13D923F4001289498A420ED001F54B
:1023E00080118B420AD0A1F570218A4206D0854A1D
:1023F000934203D0C721814808F02CFEA368022B2A
:1024000003D9C8217D4808F025FE2568002D00F07D
:10241000F0800027DFF8F8B14FF0010808FA07F85C
:1024200018EA050500F0DF80636823F01003022B33
:1024300035D1B6F1904F16D06F4B9E4213D003F5B5
:1024400080639E420FD003F580639E420BD003F55C
:1024500080639E4207D003F580639E4203D0D7215C
:10246000664808F0F7FD23690C2B06D90E3B012BBB
:1024700003D9D821614808F0EDFDF80806EB80008B
:10248000016A07F0070E4FEA8E0E0F2303FA0EF3D0
:1024900021EA0302236903FA0EF31343036233684C
:1024A0004FEA470A4FF0030909FA0AF96FEA0909E6
:1024B00003EA0902636803F0030303FA0AF3134310
:1024C0003360636823F01003013B012B1AD8E368E3
:1024D000012B05D9032B03D0EC21484808F0BAFDA5
:1024E000B36809EA0302E36803FA0AF31343B3602B
:1024F000736823EA08086368C3F30013BB4043EA28
:1025000008037360F36809EA0309A36803FA0AF38E
:1025100043EA0903F360636813F0805F63D03A4BCA
:102520009B6943F00103384A9361936903F0010307
:102530000193019B27F0030303F1804303F58033EC
:10254000996807F003024FEA820E0F2000FA0EF29C
:1025500021EA0200B6F1904F10D0274A96420FD0E0
:1025600002F5806296420DD002F5806296420BD051
:1025700026498E420CBF0421052106E0002104E01B
:10258000012102E0022100E0032101FA0EF20243E0
:102590009A60DBF80030EA43616811F4803F0CBFB9
:1025A00013402B43CBF80030DBF80430616811F4A2
:1025B000003F0CBF13402B43CBF80430DBF808304E
:1025C000616811F4801F0CBF13402B43CBF8083017
:1025D000DBF80C30616811F4001F0CBF02EA030540
:1025E0001D43CBF80C500137256835FA07F37FF40B
:1025F00013AF03B0BDE8F08F000400487C5A010817
:1026000000001110000022100010024000100048CD
:10261000000401405D4B1B7E012B00F0B4802DE9CE
:10262000F0478A4606460122584B1A7603689342C1
:1026300003D9BA21564808F00DFD3368012B1CD18F
:102640004CF25030FFF70AFA002840F09180002247
:102650004E4BDA614F4C236943F004032361236935
:1026600043F0400323614CF25030FFF7F7F9024684
:10267000236923F0040323617FE07368B3F1006FE3
:1026800011D3454A1288B2F5807F03D1434A934261
:1026900009D811E0802A03D1414A934203D818E0B7
:1026A000404A934220D9D021394808F0D3FC3A4B14
:1026B0001B88B3F5807F0AD1B3687268013A02EBD8
:1026C000C322364B9A428CBF0023012316E0802B95
:1026D0000AD1B3687268013A02EBC322304B9A42C6
:1026E0008CBF0023012309E07368013BB26803EB50
:1026F000C2232C4A93428CBF002301231BB9D12152
:10270000234808F0A7FC4CF25030FFF7A7F988BB2C
:102710004FF0FF33CAF800307568B36805EBC32388
:102720009D4229D2DFF8649000271A4C4CF25038B1
:10273000C9F81C70236943F00203236165612369B2
:1027400043F0400323614046FFF788F9236923F0F3
:1027500002032361024610B1CAF800500DE005F5EE
:102760000065B168736803EBC123AB42E0D804E0B5
:10277000012202E0012200E001220021034B197630
:102780001046BDE8F0870220704700BF980800207F
:10279000E05C010800200240CCF7FF1FFFFF0308A8
:1027A000FFFF0108FFFF0008034A136943F080039D
:1027B00013610020704700BF00200240074B1B69D7
:1027C00013F0800F07D0054B054A5A6002F188329A
:1027D0005A60002070470120704700BF002002406F
:1027E000230167452DE9F84F374E367E012E5FD025
:1027F0001F4690460C4605460122334B1A76431E6F
:10280000022B03D9C421314808F024FCB4F1006F35
:1028100011D32F4B1B88B3F5807F03D12D4B9C42E6
:1028200009D80CE0802B03D12B4B9C4203D806E047
:102830002A4B9C4203D9C521244808F00BFC4CF2DA
:102840005030FFF70BF9034660BB012D33D0022D4A
:102850000CBF4FF0020B4FF0040B2EE03301C3F11D
:102860002001A3F1200228FA03F307FA01F10B4338
:1028700027FA02F213439BB2CAF81C902A6942F06D
:1028800001022A6123804CF25030FFF7E7F82B69F0
:1028900023F001032B61034620B901360234F2B262
:1028A0009345DBD80021084A11761846BDE8F88F19
:1028B0000220BDE8F88F4FF0010B0026DFF808A0DA
:1028C000B146074DCAE700BF98080020145D010813
:1028D000CCF7FF1FFFFF0308FFFF0108FFFF000801
:1028E0000020024038B5C36B1A6804682568016C83
:1028F00004238B40134214D015F0040F11D0236829
:1029000013F0200F03D1236823F004032360C26B6C
:10291000016C04238B405360C36A002B3AD0984764
:1029200038BD02238B40134219D015F0020F16D088
:10293000236813F0200F06D1236823F00A032360D5
:10294000012380F82130C26B016C02238B4053605D
:10295000002380F82030836AE3B1984738BD08230C
:1029600003FA01F1114215D015F0080F12D02368B7
:1029700023F00E032360C16B0123026C03FA02F201
:102980004A60836380F82130002380F82030036B95
:1029900003B1984738BD00BF002800F0AB8010B5E8
:1029A00004460368544A934225D01432934222D0FD
:1029B000143293421FD0143293421CD014329342EB
:1029C00019D01432934216D01432934213D002F528
:1029D000627293420FD0143293420CD0143293425D
:1029E00009D01432934206D01432934203D0A62168
:1029F000424808F02FFB636833F0100206D0B3F5AD
:102A0000804F03D0A7213D4808F024FBA36833F092
:102A1000400303D0A821394808F01CFBE36833F0D9
:102A2000800303D0A921354808F014FB236933F44F
:102A3000807206D0B3F5007F03D0AA212F4808F09A
:102A400009FB636933F4806206D0B3F5006F03D0ED
:102A5000AB212A4808F0FEFAA36933F0200303D023
:102A6000AC21264808F0F6FAE36933F4805306D027
:102A7000B3F5005F03D0AD21204808F0EBFA022344
:102A800084F821302068036823F47F5323F0300357
:102A90006168A2681143E2681143226911436269C7
:102AA0001143A2691143E2690A4313430360226898
:102AB000134B9A4209D8134B13441422B3FBF2F37D
:102AC0009B002364104BE36308E0104B1344142273
:102AD000B3FBF2F39B0023640D4BE3630020A06281
:102AE000E06220636063A063012384F8213084F8EE
:102AF000200010BD0120704708000240445D01081D
:102B000007040240F8FFFDBF00000240F8FBFDBFD4
:102B1000000402400138B0F1807F0AD2064B5860B1
:102B2000F021064A82F823100020986007221A60DC
:102B300070470120704700BF10E000E000ED00E0AA
:102B400010B5041E03DAEA21064808F083FA620988
:102B500004F01F04012303FA04F4034B43F822405A
:102B600010BD00BF845C010800E100E070B50546BF
:102B70000E4614460F2A03D9D6211A4808F06AFADD
:102B80000F2E03D9D721174808F064FA164BDB68DB
:102B9000C3F30223C3F10702042A28BF0422191D2C
:102BA00006298CBF033B0023012101FA02F2013AFE
:102BB00032409A4001FA03F3013B1C401443002DBC
:102BC00006DA05F00F052401E4B2084B5C5570BD30
:102BD0002401E4B205F1604505F5614585F800433F
:102BE00070BD00BF845C010800ED00E014ED00E062
:102BF00082B00190044B186819460B68019A1B1AA1
:102C00009342FAD302B070473C54002010B50446FA
:102C1000074B1B680748A0FB03308009FFF77AFFCA
:102C2000002221464FF0FF30FFF7A0FF002010BD2B
:102C300008000020D34D621000B583B0224A13680B
:102C400043F0100313600320FEF758FF0020FFF746
:102C5000DDFF1E4B9A6942F001029A619B6903F005
:102C600001030193019B0320FEF748FF0022114658
:102C70006FF00B00FFF77AFF002211466FF00A0099
:102C8000FFF774FF002211466FF00900FFF76EFF97
:102C9000002211466FF00400FFF768FF0022114682
:102CA0006FF00300FFF762FF002211466FF0010092
:102CB000FFF75CFF002211464FF0FF30FFF756FF91
:102CC000002003B05DF804FB002002400010024029
:102CD000704700BF00220270704700BF9368DA7926
:102CE000034B092A08BF194601600023037170478E
:102CF0003C05002000220270704700BF2DE9F04F14
:102D000085B001900C46154601F198067822002105
:102D1000304608F01DFF666204F1AC0BC4F838B011
:102D200004F1C00AC4F84CA004F1D409C4F86090BE
:102D300004F1E8030093636704F1FC08C4F8888099
:102D40002F690721384605F013FB02900821384609
:102D500005F00EFB03900921384605F009FB029BA4
:102D600000EB0340039B00EB03200AF0B1F932496A
:102D70000AF006FA0AF006FC304AA2FB0032920C76
:102D80002F49304609F00AF80021286908F052FB63
:102D900002462C49584609F001F82921286905F016
:102DA000E7FA02462849504608F0F8FF182128693A
:102DB00005F0DEFA00F038022449484608F0EEFF3C
:102DC0002E693368DB6A01213046984708224E217C
:102DD000304605F09FFA4E273946304605F0C8FACE
:102DE00010F0040FF8D14F21304605F0C1FAC0F1C0
:102DF000A502D2B21649009808F0D0FF1821286920
:102E000005F0B6FA40B20028ACBF3222C822114900
:102E1000404608F0C3FF104955F8040B02F064FB6C
:102E200004F11001284602F07FFC00230198037092
:102E300005B0BDE8F08F00BF0024744283DE1B4361
:102E4000345E0108445E0108505E0108645E0108BA
:102E5000705E01087C5E01082C55002010B5044608
:102E600008F040FE204610BDF8B505460C46164653
:102E70000F469368DB790A2B17D8DFE803F00616B4
:102E8000161608101616161606001A4F0DE0CB8BF4
:102E900013B90823CB8308E0013BCB8305E0CB8B40
:102EA000082B0CBF00230133CB83B368DB79FF2BE6
:102EB00015D1E38B03EB830304EB8303586A08F01B
:102EC00099FF00EB4000400078280DD9A2680A4B1A
:102ED000A3FB02139B0803EB83039A4204D104F182
:102EE0001001301D02F020FC2F6000232B712846BA
:102EF000F8BD00BF3C050020CDCCCCCC2DE9F04383
:102F0000BFB081460F46904601F1D4044FF41072D1
:102F10000021204608F01CFED8F80C200C3267492E
:102F2000204608F03BFFD8F80C0000F027FFC0F364
:102F30000722634907F58A7008F030FF07F5AA7485
:102F400097F91433002B32D1D8F80C5022A806F090
:102F500009F9A9691822043122A805F0C7FFAB6955
:102F60005B883EA921F8923D022222A805F0BEFF0F
:102F70001AA922A806F098F89DF869309DF86820F3
:102F80009DF86F1005919DF86E1004919DF86D10DD
:102F900003919DF86C1002919DF86B1001919DF8C2
:102FA0006A100091474907F5457008F0F7FE07F5EC
:102FB00045724549204608F0F1FED8F80C309B696F
:102FC0005A88424907F5CA7008F0E8FED8F80C00A4
:102FD000183000F02DFE43780278017E1691C17DF5
:102FE0001591817D1491417D1391017D1291C17CD8
:102FF0001191817C1091417C0F91017C0E91C17BDC
:103000000D91817B0C91417B0B91017B0A91C17ADF
:103010000991817A0891417A0791017A0691C179E3
:103020000591817904914179039101790291C178E7
:10303000019181780091264907F5EA7008F0AEFE0B
:10304000244C2268C2F30B02234907F5057008F0EF
:10305000A5FE2268120C214907F5157008F09EFEA6
:103060004FF082721E4907F5257008F097FE1D4A41
:103070001D4907F5357008F091FE07F1D40607F1F8
:103080002004002566602580204602F0F3F9013512
:1030900040361434092DF5D1144958F8040B02F0C8
:1030A00023FA07F11001404602F03EFB002389F8A5
:1030B000003048463FB0BDE8F08300BF8C5E010899
:1030C000985E0108045F0108AC5E0108B45E010867
:1030D000BC5E0108002004E0285F0108345F01089D
:1030E000405F0108545F0108605F01082C55002013
:1030F000012840F07F82F8B54FF6FF73994240F007
:103100007882C64C204602F013F9C54B236040F686
:10311000B833A4F8503000256565C24C204602F053
:1031200007F9C14B2360C14B236104F120036361A4
:10313000A576E57680222277A0226277E5830A22AF
:1031400022832A464FF47A7403F1C8001A805A6029
:10315000197A62F300011972198964F34C0119811B
:10316000DA601A7414338342F0D1B14C204602F075
:10317000DFF8B04B2360B04B236104F1200363619F
:103180000022A276E27680212177A0216177E28376
:103190000322228300224FF47A7403F13C001A8048
:1031A0005A60197A62F300011972198964F34C01AB
:1031B0001981DA601A7414338342F0D19C4C0025D3
:1031C00084F8685084F869500C22294604F15C00A8
:1031D00008F0BEFC2584994B63620123A386984BBB
:1031E000A36304F1340002F045F90223A4F8483047
:1031F000944BE36404F1480002F03CF9924C204601
:1032000002F096F8914B2360914B236104F1200367
:103210006361A576E57680222277A0226277E58336
:10322000092222832A464FF47A7403F1B4001A80EB
:103230005A60197A62F300011972198964F34C011A
:103240001981DA601A7414338342F0D1814B002162
:1032500003F1120203F8011B9342FBD11222002159
:103260007C4808F075FC7C4C204602F061F87B4BF2
:1032700023600025258265822575032384F8583153
:10328000C4F85C51764C204602F052F8754B23602E
:10329000FF2323746574A574E57425756575A5759C
:1032A000E575257604F11903294603F1110203F8A7
:1032B000011B9342FBD16A4B002283F82A20FF2195
:1032C00083F82B1083F82C20674D284602F030F845
:1032D000664B45F8103B00242746654E284605F10D
:1032E0003D022B4603F8014B9A42FBD1EC8785F84F
:1032F00040403D22394608F02BFC4235B542EDD125
:10330000594A002182F820125A4BC2F8243202F5A1
:103310000D73C2F8283282F82E1282F82F12802004
:1033200082F83002402082F83102A2F832120821DD
:10333000A2F82C1200224FF47A7403F1A0001A8034
:103340005A60197A62F300011972198964F34C0109
:103350001981DA601A7414338342F0D1424890F82C
:10336000D43203F080036FF3C71380F8D4324FF4E4
:1033700004720021103008F0EBFB3F4C204601F0B6
:10338000D7FF3E4B23603E4B236104F12003636172
:103390000022A276E27680212177A0216177E28364
:1033A0000622228300224FF47A7403F178001A80F7
:1033B0005A60197A62F300011972198964F34C0199
:1033C0001981DA601A7414338342F0D100202A4C38
:1033D000014600F1980300F1AC022244234403F8B3
:1033E000011B9342FBD114307828F2D1254C2046A2
:1033F00001F09EFF244B23604FF4FA6323820523E0
:10340000A3740025E57465610323A4F8CA30A4F809
:10341000CC501E4C204601F08BFF39E06C0600209A
:10342000986001083C050020B05D01086C5F010850
:10343000E80E0020945D0108785F0108805F0108B4
:10344000905F0108A45F0108900B0020045E010852
:10345000BC5F0108A40E0020AC000020205E010823
:10346000B80E0020785D0108640200200C6001089D
:1034700084040020C85F0108B80800202860010803
:10348000D45F0108C4060020E85D0108540F002045
:10349000594B23602582656104F11803294603F125
:1034A0003C0203F8011B9342FBD10025534B83F8E8
:1034B0005450534C204601F03BFF524B2360524B7B
:1034C000236104F120036361A576E57680222277EB
:1034D00040226277E583042222832A464FF47A74DD
:1034E00003F150001A805A60197A62F300011972D0
:1034F000198964F34C011981DA601A741433834218
:10350000F0D13F4A0021116751679167D1673F4B66
:10351000C2F8803002F19003C2F8843082F88A1039
:1035200082F88B10802082F88C00402082F88D0079
:10353000A2F88E100521A2F8881000224FF47A74A8
:1035400003F164001A805A60197A62F3000119725B
:10355000198964F34C011981DA601A7414338342B7
:10356000F0D1274B002583F8C051C3F8C451284C33
:10357000204601F0DDFE274B23602561A582A56171
:10358000257704F130037034002243F8042C43F80B
:10359000082C43F80C2C43F8102C10339C42F4D127
:1035A0001B4B4FF07E51D96500229A655A651A650A
:1035B000DA6499645A641A64DA639A6359631A6321
:1035C000DA629A625A621962002483F860405A668D
:1035D0009A66DA661A675A679A6783F87C4083F8B6
:1035E0007D400D4D284601F0A3FE0C4B2B602C7442
:1035F0006C61F8BD704700BF44600108540F0020A3
:10360000C8090020B4600108E05F0108F05F01080C
:10361000AC0F00207C60010894000020CC5D010804
:1036200000220270704700BF002381F858310370F8
:10363000704700BF2DE9F04FADF2244D0590049185
:10364000924691F85831032B00F2CC81DFE803F069
:10365000028397A9AE49DAF8000001F045FFAD4AB0
:10366000136803F6B83304980146C0F85C31136858
:103670001C46069300234382204604F00103002BDE
:103680000CBF6D2376230C460B7508F015FB08F074
:103690003BFBA14B83FB0036C317C3EB261332263B
:1036A00006FB130636B204F118054FF480720021B0
:1036B000284608F04DFA04F58C7BDFF85C8264271D
:1036C00000244FF0010908F01FFB88FB0032C317EC
:1036D000C3EB621307FB1300B04204DA09FA04F3E8
:1036E0002A6813432B600134202CECD10435AB4500
:1036F000E6D108F009FB894A82FB0032C317C3EB0D
:10370000E20202EB8202C2EB0212821A643292B22D
:1037100004980282012380F85831069B03F6B833DF
:10372000C0F85C317E4900F58C7008F037FB08F07A
:10373000EBFA7C4B83FB0023A3EBE07303EB430327
:10374000A0EB4301C9B2DAF8140003F0B3FA002287
:10375000754B1A7046E1012303930293734B019357
:103760006B4B0093049C04F58C730A220021DAF859
:10377000000001F079FF022384F8583132E1654BF3
:103780001A68049BD3F85C319A42C0F02B81032362
:10379000049A82F858315E49DAF8000001F0A4FE7C
:1037A00020E104994A8A0B8A9A4203D3002381F8C4
:1037B000583117E1049B03F118070A260025DFF8AA
:1037C0006CB1DFF84C9100244FF0010808FA04F3C3
:1037D0003A6813420AD0A10089B25B463246DAF851
:1037E000000001F09FFE0135ADB207E0A10089B2F3
:1037F0004B463246DAF8000001F094FE0134202CEA
:10380000E4D1444B1968504603F08AF90236B6B247
:1038100004378A2ED7D1C5B9049C628A444904F57D
:103820008C7008F0BBFA238A01336382012384F889
:103830005831384B1B6803F6B833C4F85C3134494F
:10384000DAF8000001F050FEC8E0049C234618336B
:103850001946069394F914504FF4807208A808F0A2
:103860006CF90DF1240B234604F11C090127CDF856
:103870001CA04FF0FF3A4FF0010C0CF1FF326D2D00
:1038800058D159F8040C07FA02F207FA0AFED9F8DF
:103890000040D9F8046007FA0CF110EA0E0F14BFCB
:1038A0000123002300EA0208B8F1000F18BF01331A
:1038B0000EEA0408B8F1000F18BF01330EEA060E35
:1038C000BEF1000F18BF013302EA060EBEF1000F71
:1038D00018BF01330E40002E18BF01330C40002CDE
:1038E00018BF01330140002918BF0133991E012977
:1038F00005D9DBF8001021EA0201CBF80010032BF8
:1039000048D1DBF800301A43CBF8002042E000BF7A
:103910002C5500203C5400201F85EB51B5814E1BD7
:10392000C8600108ABAAAA2A761000203C520020E9
:10393000E0600108762D2DD107FA02F2D9F8004097
:1039400007FA0AF3234214BF0123002359F8041C89
:103950001140002918BF0133D9F8040002EA000120
:10396000002918BF013307FA0CF1214000290CBFD0
:103970001946591C8B1E012B05D9DBF8003023EAB0
:103980000203CBF80030032904D1DBF800301A43DE
:10399000CBF800200CF1010C0AF1010ABCF1210F57
:1039A0007FF46BAF0BF1040B09F1040947AB5B45E6
:1039B0007FF45FAFDDF81CA04FF4807208A9069871
:1039C00008F0ACF820B34FF4807208A9069808F00C
:1039D000B4F803E0049A138A01335382049A538A99
:1039E00001335382DAF80830DB79FF2B05D1059AD1
:1039F000049911600023137112E00021DAF8140019
:103A000003F058F9094B05990B6000230B7107E08F
:103A1000074A13780133DBB21370062BDAD8DDE7DF
:103A200005980DF2244DBDE8F08F00BF3C05002045
:103A300076100020F8B50C464B7803F0040303F031
:103A4000FF025BB36E4B1B68C9685B1A40F6B83166
:103A50008B4223D9C379FF2B20D1238843F3090359
:103A6000002B03DB94F908106268D15423885A1C98
:103A700042F3090262F30903238063899A4204DB5B
:103A8000013B228863F309022280FF23237620234F
:103A9000237263786FF3820363708BE0C579FF2D27
:103AA00000F08880092D16D8DFE805F0A605A807E4
:103AB000090B0D0F1113534E10E0534E0EE0534EF1
:103AC0000CE0534E0AE0534E08E0534E06E0534ECE
:103AD00004E0534E02E0092D6CD80026237EAB4251
:103AE0000BD1277C0137FFB22774304608F082F9EA
:103AF00087421DD3002323741AE000232374BAB134
:103B0000238843F30903002B03DB94F90810626850
:103B1000D15423885A1C42F3090262F3090323801B
:103B200063899A4204DB013B228863F30902228005
:103B3000237CF356082B34D1238843F309036268AE
:103B40000021D154238803F2FF3343F309038B424E
:103B500004DB228863F30902228003E023886FF3E9
:103B600009032380238843F3090362680021D154A9
:103B7000238803F2FF3343F309038B4204DB2288DB
:103B800063F30902228003E023886FF30903238093
:103B900020232372FF23237663786FF382036370FD
:103BA00008E023722576637843F004036370144BB6
:103BB0001B68E360124B1B681A4AA2FB03235B09D4
:103BC0006269934208D06361637883F00802C2F3AC
:103BD000C00262F3C3036370238843F3090323EA3B
:103BE000E373627812F0080F19BF62685F2194F9DD
:103BF00008106268D154F8BD0B4E6FE70B4E6DE7AD
:103C00003C54002048610108386101083061010816
:103C1000286101082061010818610108106101088C
:103C200008610108D34D621050610108406101082C
:103C300010B50068104A1149043002F03BFE40B153
:103C40000D490E4802F05AFB01280C4C18BF002405
:103C500000E00024621E0A4B03F1180012F8011F55
:103C600003F8011F9842F9D1054894F82F3003F06A
:103C700001030233037010BDC85301082C1000204B
:103C80005C10002070B584B004460E46FEF796FD29
:103C90003422394BDA60A568636805F1240103F525
:103CA0000062914210D300220192029301230393F8
:103CB00004A941F8102D01A8FEF7ACFC08B10024BE
:103CC00055E06368A36023E0002200232946012019
:103CD000FEF788FDA1680022002302310220FEF7D2
:103CE00081FDA1680022002306310220FEF77AFD43
:103CF000A168002200230A310220FEF773FDA168AB
:103D0000002200230E310220FEF76CFD1235A56063
:103D10004DF6DC420023A1680120FEF763FDA16897
:103D20003268002302310220FEF75CFDD0B9A5689D
:103D3000E2680023A91D0220FEF754FDA0B9226904
:103D4000002305F10A010220FEF74CFD70B96269FB
:103D5000002305F10E010220FEF744FDB0FA80F4C5
:103D6000640904E0002402E0002400E00024FEF7DF
:103D70001BFD204604B070BD002002408368D3F8CC
:103D80000200704770B506460C461546FFF7F6FF71
:103D9000C0F30720A0421DD9327F104BA3FB0413B0
:103DA00002EB1313717F0A44934215DA0B4AA2FB0C
:103DB0000412120902EB4201C2EBC102A41AA4B21E
:103DC000582202FB04F404F1006404EBC3232B60CB
:103DD000012070BD002070BD002070BDC94216B228
:103DE0002DE9F04F89B08246894617469846129DC4
:103DF000FFF7C4FFC0F30726741CE4B2422C0AD8B4
:103E00005046FFF7BBFF00908DF8014069465046D1
:103E1000FFF738FF00E04224A64200F0D88008AA4D
:103E20004FF0FF3342F8043D31465046FFF7AAFFFA
:103E30000646002800F0CC80FEF7C0FCDFF898A111
:103E40004FF0340BCAF80CB01FFA89F2002307991F
:103E50000120FEF7C7FCFEF7A7FCFEF7AFFCCAF88F
:103E60000CB0DDF81C9000243A68234609F14C019F
:103E70000220FEF7B7FC7A68234609F150010220C0
:103E8000FEF7B0FCBA68234609F154010220FEF7A0
:103E9000A9FCFEF789FC079F1A222146684607F015
:103EA00057FE19224146684607F047FEFEF786FC9A
:103EB000CAF80CB0009A2346B91C0220FEF792FC07
:103EC000019A2346B91D0220FEF78CFC029A234674
:103ED00007F10A010220FEF785FC039A234607F149
:103EE0000E010220FEF77EFC049A234607F1120120
:103EF0000220FEF777FC059A234607F116010220FF
:103F0000FEF770FC069A234607F11A010120FEF71E
:103F100069FCFEF749FC079FFEF750FCCAF80CB09D
:103F20002A68234607F11C010220FEF75BFC6A6841
:103F3000234607F120010220FEF754FCAA6823461D
:103F400007F124010220FEF74DFCEA68234607F141
:103F500028010220FEF746FC2A69234607F12C01BE
:103F60000220FEF73FFC6A69234607F13001022078
:103F7000FEF738FCAA69234607EB0B010220FEF787
:103F800031FCEA69234607F138010220FEF72AFCDA
:103F90002A6A234607F13C010220FEF723FC6A6AE5
:103FA000234607F140010220FEF71CFCAA6A2346C3
:103FB00007F144010220FEF715FCEA6A234607F1E7
:103FC00048010220FEF70EFCFEF7EEFB00E00026A3
:103FD000304609B0BDE8F08F00200240D9B12DE98C
:103FE000F041884615460646FFF7C8FEC0F307278E
:103FF00077B100242A46A1B23046FFF7C3FE03463C
:1040000018B12A681288424508D00134BC42F1D167
:1040100000232B6002E00023184670471846BDE8D5
:10402000F08100BF10B582B0416801F50062914295
:1040300014D20C884DF6DC439C4204D01C460AE0A6
:104040000B88A34207D181600C220631104407F08F
:10405000D9FE012017E012319142F1D38260002293
:104060008DF8042001238DF807309DF8063003F009
:10407000F003032161F307138DF806308DF8052056
:1040800001A9FFF7FFFD02B010BD00BF2DE9F0410F
:10409000013B9B00002425462646A6465FF0000C07
:1040A00003E05FEA0E0CBCEB030CBEEB0C0752F80E
:1040B000078051F80C70A7FB0878E41955EB080548
:1040C00056F100061CF1040C9C4501DCF445ECDDC6
:1040D00040F80E402C46354600261EF1040E9E4543
:1040E000DCDDBEEB430FDCDD40F80E40BDE8F081C7
:1040F000BFF34F8F0549CA6802F4E062044B1343D3
:10410000CB60BFF34F8F00BFFDE700BF00ED00E0C5
:104110000400FA050368424A904251D0B0F1804F42
:1041200044D0A2F5943290423BD002F58062904296
:1041300041D002F59C32904263D002F580629042F9
:1041400043D002F58062904221D14CE023F44073C9
:10415000CA681A4322F080024B691A4302608B68D6
:10416000C3620B6883622E4B98420BD003F5A053B9
:10417000984207D003F58063984203D003F580632B
:10418000984201D10B69036301234361704723F017
:1041900080034A69134303608B68C3620B688362C0
:1041A000F2E723F070034A681343CFE723F070036C
:1041B0004A681343CAE723F070034A681343C5E70C
:1041C00023F070034A681343C0E723F44073CA68BE
:1041D000134323F080034A69134303608B68C3626F
:1041E0000B688362CEE723F44073CA68134323F05D
:1041F00080034A69134303608B68C3620B68836260
:10420000C0E723F44073CA68134323F080034A696C
:10421000134303608B68C3620B688362B2E700BF1D
:10422000002C014030B58DB005461C4693F9003096
:104230006846FFF72BFFD4F8883069462846984730
:104240000DB030BD08B513460A46FFF7EBFF08BDB9
:1042500000EB8101884208D2002351F8042D43EA83
:1042600052030B60D3078842F7D37047013A52B22A
:10427000002A15DB10B450F8224051F822309C423D
:1042800010D807D210E050F8224051F822309C425A
:104290000DD80ED3013A52B2002AF4DA00200AE017
:1042A00000207047012006E04FF0FF3003E00120BE
:1042B00001E04FF0FF3010BC704700BF002A0BDD5B
:1042C0000B1F0438013AD2B201EB820153F8042FDC
:1042D00040F8042F8B42F9D1704700BF013949B231
:1042E00000290ADB50F821303BB9013949B20029D5
:1042F00003DB50F82130002BF7D0013149B281B1F6
:1043000001F18043013B50F8233023B100220132F8
:104310005B08FCD100E00022013902EB411108B238
:1043200070470020704700BF4A1101F01F010123B0
:1043300003FA01F150F822000840704700290BDD14
:10434000031F0139C9B200EB8101002053F8042F8B
:1043500010438B42FAD100E00020B0FA80F040090F
:10436000704700BF002909DD031F0139C9B200EB06
:104370008100002243F8042F8342FBD1704700BF25
:104380002DE9F04FABB0039098469DF9D0701EAC6C
:104390003B462046FFF77AFE12AB0493059439465C
:1043A0004046FFF79BFFC0EB871005B22E46002D5D
:1043B000B8BF05F11F0646F347164B4B2B4003D5FC
:1043C000013B63F01F0301335CB2314606A8FFF7DF
:1043D000C9FF002C16DDE7B141462AAB03EB860688
:1043E000943E08EB87080023C4F1200E51F8042BFB
:1043F00002FA04F0034346F8043F22FA0EF388451C
:10440000F4D106E03A46414606AB03EB8600FFF7DF
:1044100055FF002D5ADBBA467C0006AB03EB87093B
:1044200001260023029307F1FF382AAB03EB88082B
:1044300038E098005BF823102AAD05EB820252F8B1
:10444000902C8A1ACEEB0202914205D091422CBFE9
:104450004FF0000E4FF0010E4CF8002001335BB21C
:104460001A46A342E5DB019D01E04FF0000E7645C0
:1044700014BF00260126394606A8FFF7E9FE2AAB3D
:1044800003EB8A0353F8902C58F8903C43EAC2732C
:1044900048F8903C39464846FFF7DAFE013D2DB218
:1044A000002D14DB002CE0DD2AAB03EB860353F870
:1044B00098BCC6F101032AAA02EB830353F898CCF7
:1044C0004FF0000E029B1A460195B2E701262AAB77
:1044D00003EB86063A4656F8981C0398FFF7EEFE63
:1044E0002BB0BDE8F08F00BF1F00008030B4002368
:1044F00010C920CA641B10C010C920CAAC4110C02A
:1045000010C920CAAC4110C010C920CAAC4110C0AB
:1045100010C920CAAC4110C010C920CAAC4110C09B
:104520005B41B3FA83F0400930BC704730B587B0C7
:10453000154613460A4601466846FFF7D7FF04466C
:1045400029466846FFF7FAFE003418BF01246400CC
:10455000002814BF6042C4F1010007B030BD00BFA5
:1045600030B40346002010C920CA641910C310C912
:1045700020CA6C4110C310C920CA6C4110C310C9B5
:1045800020CA6C4110C310C920CA6C4110C310C9A5
:1045900020CA6C4110C3404130BC704770B505461D
:1045A0001446036813F0010F14D013460A4601465F
:1045B000FFF7D6FF064621462846FFF749FE66B1BB
:1045C00004F18042013A55F8223043F0004345F8A7
:1045D000223070BD1146FFF73BFE70BD70B5054639
:1045E0001E469DF910402346FFF780FF28B1234661
:1045F000324629462846FFF7B3FF70BD70B5054621
:104600001E469DF910402346FFF7AAFF30B9224607
:1046100029463046FFF72AFE012805D023463246B8
:1046200029462846FFF762FF70BD00BF124B1A688B
:1046300042F001021A605968104A0A405A601A682A
:1046400022F0847222F480321A601A6822F48022E6
:104650001A605A6822F4FE025A60DA6A22F00F02E7
:10466000DA62196B064A0A401A6300229A604FF018
:104670000062044B9A607047001002400CC07FF843
:10468000CCFC00FF00ED00E008B50D4B1B6813B932
:104690000C4A0B4B1A600A4B1A68C31C23F0030325
:1046A000134409498B4206D907F022FA0C23036010
:1046B0004FF0FF3008BD02490B60104608BD00BF37
:1046C0007C10002044550020007C002008B501200B
:1046D000FFF70EFD08B5FFF7F9FF00BF30B4002368
:1046E00019460F2401259A0004FA02F202421CBF67
:1046F00005FA03F211430133082BF4D1084630BC0C
:10470000704700BF38B504460D4602680E4B9A420A
:1047100004D04FF429710D4806F09CFC94F83D300C
:10472000012B0FD0012384F83D309D42226813688D
:104730000CBF23F0100343F010031360002084F833
:104740003D0038BD022038BD0040024080590108BC
:104750002DE9F04104460D46036A23F0010303628C
:10476000066A4768836923F4803323F073030A6879
:1047700043EA020826F002038E681E433C4B98422F
:1047800071D003F5A053984255D003F58063984249
:104790005DD003F58063984232D140E041F21A21A6
:1047A000344806F057FC26F00806EB681E4326F056
:1047B00004062F4B9C420BD003F5A0539C4207D01C
:1047C00003F580639C4203D003F580639C4217D1BC
:1047D000AB6933F4007304D041F22721254806F079
:1047E00039FC6B6933F4807304D041F228212148ED
:1047F00006F030FC27F440776A69AB6913431F4326
:104800006760C4F818806B6863632662BDE8F08156
:1048100026F00806EB68334323F00406D8E7CB689C
:1048200033F00803BAD1F3E726F00806EB681E431D
:1048300026F00406CCE7CB6833F00803F4D0ADE7EC
:1048400026F00806EB681E4326F00406C0E7CB6896
:1048500033F00803F4D0A1E726F00806EB681E4306
:1048600026F00406B4E7CB6833F0080396D1F3E7EB
:10487000002C0140AC59010800285DD010B5044659
:1048800003682E4A93421FD0B3F1804F1CD0A2F58B
:104890009432934218D002F58062934214D002F50C
:1048A0000062934210D002F5983293420CD002F588
:1048B0008062934208D002F58062934204D04FF4A4
:1048C00079711F4806F0C6FBA36833F010020AD0C6
:1048D00023F04002202A06D0402B04D040F2E531DC
:1048E000174806F0B7FB236933F4807207D0B3F59D
:1048F000007F04D040F2E631114806F0ABFBA3691B
:1049000033F0800304D040F2E7310D4806F0A2FBFB
:1049100094F83D3013F0FF0F04BF002384F83C30BF
:10492000022384F83D30211D2068FFF7F3FB0123AB
:1049300084F83D30002010BD01207047002C01405C
:10494000AC59010810B5044603681C4A93421FD0B5
:10495000B3F1804F1CD0A2F59432934218D002F5E7
:104960008062934214D002F50062934210D002F5A7
:10497000983293420CD002F58062934208D002F53F
:104980008062934204D040F271110D4806F062FB40
:104990002268D36823F00103D3602368196A41F2C7
:1049A0001112114208D1196A40F24442114203D156
:1049B0001A6822F001021A60002010BD002C01408C
:1049C000AC59010810B504460368174A93421FD03A
:1049D000B3F1804F1CD0A2F59432934218D002F567
:1049E0008062934214D002F50062934210D002F527
:1049F000983293420CD002F58062934208D002F5BF
:104A00008062934204D040F25D11084806F022FB18
:104A10002268D36843F00103D3602268136843F02F
:104A200001031360002010BD002C0140AC590108A7
:104A3000002869D010B582B004460368344A934216
:104A40001ED0B3F1804F1BD0A2F59432934217D001
:104A500002F58062934213D002F5006293420FD0B8
:104A600002F5983293420BD002F58062934207D050
:104A700002F58062934203D0D321264806F0EAFA79
:104A8000A36833F0100209D023F04002202A05D099
:104A9000402B03D0D4211F4806F0DCFA236933F4FD
:104AA000807206D0B3F5007F03D0D521194806F0F7
:104AB000D1FAA36933F0800303D0D621154806F05C
:104AC000C9FA94F83D3013F0FF0F11D1002384F898
:104AD0003C302268104B9A420AD103F54C439A6944
:104AE00042F400329A619B6903F400330193019B05
:104AF000022384F83D30211D2068FFF70BFB0123C2
:104B000084F83D30002001E00120704702B010BD64
:104B1000002C0140AC5901080044014030B4046845
:104B20003D4D35E0B1F1FF3F32D019B12B689B1AF2
:104B300099422DD8636823F0E00363604368B3F5BE
:104B4000827F0BD18368B3F5004F02D0B3F5806F3D
:104B500004D10268136823F040031360836AB3F53D
:104B6000005F09D10268136823F4005313600268E0
:104B7000136843F400531360012380F85D30002371
:104B800080F85C30036E43F020030366032041E0AD
:104B9000A36813F4C05FC5D11F4D35E0B1F1FF3FED
:104BA00032D019B12B689B1A99422DD8636823F033
:104BB000E00363604368B3F5827F0BD18368B3F58C
:104BC000004F02D0B3F5806F04D10268136823F060
:104BD00040031360836AB3F5005F09D1026813686C
:104BE00023F4005313600268136843F40053136006
:104BF000012380F85D30002380F85C30036E43F0C1
:104C000020030366032005E0A36803F08003002B64
:104C1000C4D1002030BC70473C5400200023CB831B
:104C20000370704700220270704700BF2DE9F04703
:104C3000AAB006460D46144688469368DA68002AEC
:104C400000F0428191F82A30072B0ED091F92B0009
:104C5000B0F1FF3F76D0C0EBC000B14B184407F075
:104C6000C9F895F82A3098426CD1AE4B64220021E5
:104C7000206801F031F895F91930002B48D195F9E9
:104C80002B30B3F1FF3F63690CBF052204229A70F9
:104C90004B22DA7000225A609A601A735A732022EB
:104CA000002106A806F054FF0EA804F05BFAE368A2
:104CB0009969182204310EA804F018F905F11107BA
:104CC000384607F097F8024639460EA804F00EF968
:104CD00006A90EA804F0E8F99DF819309DF81820EF
:104CE0009DF81F1005919DF81E1004919DF81D1050
:104CF00003919DF81C1002919DF81B1001919DF8E5
:104D00001A100091884905F1190007F047F80CE0E6
:104D1000864B78220021206800F0DEFF05F11903A0
:104D200082220021206800F0D7FFA3685B79002B66
:104D300052D10021606901F0BDFF2B7923F00103FE
:104D40002B7149E0A3685A790A2A42D195F82C20A0
:104D500082BB07E134220EE035220CE036220AE065
:104D6000372208E0382206E0392204E0302202E04F
:104D70002A2200E033222B445A74FF2385F82B307B
:104D8000674F4FF0000905F1110A5146384607F008
:104D90004CF8874202D185F82B9005E009F1010912
:104DA0000737B9F1070FF0D195F82A30013385F8AC
:104DB0002A3011E05E4A12689968521AB2F5FA6F09
:104DC0000AD90021D960606901F074FFDFF8908191
:104DD00002E0002385F82C30A3685F79554B0193DE
:104DE0001422009280230021206800F05DFB2A7CC1
:104DF000FF2A04D150490EA806F0D0FF07E0092A87
:104E000014BF013200224D490EA806F0C7FF0EABB9
:104E100014220021206800F05FFF464B01930A2313
:104E2000009380231E220021206800F03DFB0A2F02
:104E300004D143490EA806F0B1FF0EE0FF2F04D1C4
:104E400040490EA806F0AAFF07E0092F14BF7A1CFC
:104E500000223D490EA806F0A1FF0EAB1E22002144
:104E6000206800F039FF39490EA806F097FF0EAB15
:104E700032220021206800F02FFF05F11102344991
:104E80000EA806F08BFF2B4B01930A23009380237F
:104E900046220021206800F007FB95F92B30B3F182
:104EA000FF3F20684FF0000103914FF00103029390
:104EB00000F10C03019314BF264B274B00930EAB5C
:104EC000462200F0D1FB8BE05F790B7C0A2B01D1ED
:104ED000002F6FD0BB4200F083802F74154D0195D9
:104EE0001422009280230021206800F0DDFA019551
:104EF0000A23009380231E220021206800F0D4FAA8
:104F0000092F01D07A1C00E0002214490EA806F0F7
:104F100045FF0EAB1E220021206800F0DDFE5FE0A1
:104F20008010002068610108045F010878610108B1
:104F30003C5400202C5500208C610108A061010820
:104F4000B4610108CC610108E0610108F461010865
:104F500000620108F4530020E05300200C620108B5
:104F60003C050020012385F82C30A368DB792B74E5
:104F700095F82A30A268D279092A3FF6F9AE01A144
:104F800051F822F0B14F0008AD4F0008754D0008F0
:104F9000554D0008594D00085D4D0008614D000851
:104FA000654D0008694D00086D4D00083222E2E6AB
:104FB0003122E0E60F740E4D0195142200928023F9
:104FC0000021206800F070FA01950A2300938023E5
:104FD0001E220021206800F067FADFF8188091E7B0
:104FE000C6F800800023337130462AB0BDE8F08750
:104FF0002C5500203C05002030B585B005460C46F8
:1050000010680123039302930C4B01930C4B009304
:1050100001F110030A22002100F026FB094B1B6856
:10502000B4F85020E1685B1A9A423ABF064B2B60F5
:105030002C6000232B71284605B030BD2C55002074
:105040003C5200203C5400203C050020F8B50746A7
:105050000D461646FF230B741D49106800F044FAF4
:105060000822002105F1110006F072FD1122002135
:1050700005F1190006F06CFD164C31220021204686
:1050800006F066FD144A204602F1310ED41D014699
:1050900012F9013B643B01F8013BA242F8D1073011
:1050A0002246A645F2D1002385F82A30FF2285F852
:1050B0002B2072691380B368DB682BB9074B0A2277
:1050C0000021306800F008FE00233B703846F8BD30
:1050D0002C55002080100020DC62010818620108B5
:1050E00010B504460349106800F0FEF90023237050
:1050F000204610BD2C55002010B5044606F0F2FCE9
:10510000204610BD10B5044606F0ECFC204610BD4C
:1051100010B5044606F0E6FC204610BD70B5064604
:105120000C4600230B84D36893F90C30C3B15F2B7A
:1051300019D115E00123A386254BA3630223A4F80C
:105140004830244BE3640323A4F85C30224B93F8EB
:10515000D43213F0800F14BF204B214B236605E09F
:10516000204B6362E6E7204B4B62E3E70423A4F89D
:1051700070301E4B63670523A4F884301C4BC4F8C1
:1051800088300623A4F898301A4BC4F89C300723C3
:10519000A4F8AC30184BC4F8B0300823A4F8C030E1
:1051A000164BC4F8C4300923A4F8D430144BC4F807
:1051B000D8301546134955F8040B00F095F904F161
:1051C0001001284600F0B0FA00233370304670BD5D
:1051D0002C620108E05F01086402002034620108CB
:1051E00044620108A0620108AC620108546201082F
:1051F000586201086862010874620108806201084F
:10520000906201082C550020704700BF704700BF16
:1052100008B54022103006F0F5FD08BDF8B504468B
:105220000D4616460F469268D3790A2B46D8DFE81A
:1052300003F015454545060E454545451800EB8BE1
:1052400013B90923EB834BE0013BEB8348E0EB8B85
:10525000092B0CBF00230133EB8341E00023EB83D8
:105260003EE0E98B0A2929D8DFE801F03408063648
:10527000181A1C1E202226001E4F25E0F36893F901
:105280000C305BBB1C4F1D493846FFF7C1FF1C4B60
:105290007B6540F6B833A7F8503021E0194F13E092
:1052A000194F11E0194F0FE0194F0DE0194F0BE0A6
:1052B000194BD360174F13E0184F05E0B268D2794D
:1052C000FF2A11D0092B0FD005F11001301D00F07D
:1052D0002BFA09E0124FF7E7124FF5E7124FF3E709
:1052E000B368DB79FF2BEFD12760002323712046C1
:1052F000F8BD00BFC80900206C060020B862010894
:105300003C050020AC0F0020AC000020900B0020DA
:10531000B8080020B80E0020B4100020940000202F
:10532000E80E002064020020C4060020704700BF81
:10533000054A026000220271416862F31F21416048
:105340008260C260704700BF606001080022027086
:10535000704700BF30B583B08488A1420EDAC5889B
:10536000AA420BDA5D18013DAC42DCBF641A23B2DD
:1053700040690468069D00952469A04703B030BDCC
:1053800030B583B08488A1420EDAC488A2420BDA19
:105390009D18013DAC42DCBFA31A1BB240690468F2
:1053A000069D0095E468A04703B030BD704700BF7C
:1053B00010B50446037A13F0010F1DD0C36813B96A
:1053C0000F4B1B68C3600E4B1B68E2689A1A238957
:1053D000C3F34B039A420DD9094B1B68E360237C4E
:1053E00001332374606806F005FD237C98429CBF5E
:1053F00000232374237C00E000236068184410BD60
:105400003C54002010B5044606F06CFB204610BD4D
:1054100010B5044606F066FB204610BD2DE9F041AC
:105420008046114DEE6A114F01233B70104C20460F
:10543000FFF788FA00236B62C5F82C8023686FF0B1
:1054400001021A612046FFF7BDFA3B78DBB2012B5F
:1054500005D13A4630BF1378DBB2012BFAD0024BAC
:10546000DE62BDE8F08100BF00040040205500204E
:105470009454002010B50446406806F0BBFC00EBD5
:1054800040004000782807D9237A43F001032372B3
:105490000023E360237410BD237A6FF300032372AB
:1054A00010BD00BF704700BFF0B583B0BDF92050FC
:1054B0008488A14215DAC688B24212DA5F18013F29
:1054C000BC42DCBF641A23B2AC18013CA642DCBF6C
:1054D000B51A2DB240690468099E01960095A4682A
:1054E000A04703B0F0BD00BF00B583B0B0F90430F1
:1054F0000191B0F90620009200221146FFF7D4FF77
:1055000003B05DF804FB00BF38B5044600250D74F8
:1055100003491068FFF7E8FF2570204638BD00BF3B
:105520002C55002010B540690468A469A04710BD3F
:105530002DE9F04F8DB0DDF858B09DF860A084885B
:10554000A14280F28E80C488A24280F28A800AEB57
:105550008A040C44012C00F1848002EBCA04012C63
:105560007FD405692C78002C7BD00B930A91039093
:105570000023069393B21946089308331FFA83F960
:105580000991013C06998C4206D0AB786A680B9869
:1055900000FB03235F5C00E000271FFA8AF8BDF8D8
:1055A0001820BDF8283018FB02F1194409B2049103
:1055B000089C099D2E460FFA8AF1059113449BB26F
:1055C000079317F0010F13D0BAF1010F06D15B4614
:1055D000224607990398FFF7A5FF2CE0CDF804B009
:1055E000059B00932AB204990398FFF75DFF22E020
:1055F0009BF80020179B1B789A422ED19BF8012024
:10560000179B5B789A4228D19BF80220179B9B78C6
:105610009A4222D10FE0179B224607990398FFF781
:1056200081FF08E0179B0193059B009332B2049918
:105630000398FFF739FF7F080134A4B24544ADB2A7
:105640004644B6B2A145BCD1069B01330693039AEA
:1056500015692C789C4294DC03E0BAF1010FE1D18A
:10566000D9E70DB0BDE8F08F2DE9F04F87B00646C1
:105670000D4614461F460593DDF840A0DDF844B002
:105680009DF848809DF84C9093F9003033B3B28870
:10569000AA4241D2B9F1000F3AD1059BF81A3FE076
:1056A0000D2B06D133695B7803FB0844A4B20025B7
:1056B0000FE0CDF80880CDF804B0CDF800A022B2FC
:1056C00029B23046FFF734FF33691B7803FB0855D6
:1056D000ADB217F9013F002BD9D100E0059F059B22
:1056E000F81A1DE03269527802FB0844A4B2CDF8E2
:1056F0000880CDF804B0CDF800A022B200213046D9
:10570000FFF716FF33691D78E3E70A2BC8D1C9E715
:10571000F288A242E6D2C0E7F288A242F5D2BCE704
:1057200007B0BDE8F08F00BF002900F0E7812DE948
:10573000F04F89B00C4607460B7BCA7A897AB94884
:105740000190607B00903868FFF7AEFE3E6894F8E9
:105750000A900FFA89F3194694F80BA00FFA8AF30E
:105760001A46257B013DADB22BB2079394F80D800C
:105770000FFA88F00690DFF8B4B2CDF800B00592C9
:1057800004913046FFF7E6FDCDF800B0069B059A80
:1057900004993046FFF7F4FDF2880AEB08039342C0
:1057A000A6BF02F1FF3212B20AEB0802DFF87CB2A8
:1057B000CDF800B0079B04993046FFF7CBFD05EB11
:1057C0000901CDF800B0069B059A09B23046FFF7F3
:1057D000D7FDE67A0236F6B294F80A9009F1040988
:1057E0005FFA89F923688BB10022039201220292A9
:1057F0008C4A01928C4A0092324649463868FFF73B
:1058000033FF3B681B695A781644F6B294F80D8052
:10581000A8F103033A68126992F8018093FBF8F843
:105820002368002B18BFA8F101085FFA88F81FFA57
:1058300088F5228995424CD3002A00F04F8100253B
:105840001FFA89F30493DFF8E0A1DFF8D891E38928
:10585000AB4218D03868636805EB850203EB82031E
:105860005B680269527812FB05F232440021039111
:1058700001210291CDF80490CDF800A092B20499D4
:10588000FFF7F2FE1FE0D7F800B0DBF8103093F816
:10589000018018FB05F8B0441FFA88F805EB850075
:1058A000636803EB8000FFF783FD0023039301236C
:1058B0000293CDF804A0CDF8009003464246049927
:1058C0005846FFF7D1FE0135ADB22389AB42BED8B1
:1058D00004E1E38919464FEA5800824602F1FF3E8F
:1058E000C3EB0E0E864550DA551BADB2AA4240F20C
:1058F000F5801FFA89F30493DFF828A1DFF82891D7
:10590000E389AB421AD03868636805EB850103EB85
:1059100081035B68AA1A42440169497811FB02F2CB
:1059200032440021039101210291CDF804A0CDF869
:10593000009092B20499FFF797FE20E0D7F800B0EC
:10594000AA1A4244DBF810305B7813FB02F33344AD
:105950009BB2059305EB8500636803EB8000FFF7BE
:1059600027FD0023039301230293CDF80490CDF883
:1059700000A00346059A04995846FFF775FE0135C5
:10598000ADB22289AA42BBD8A8E082B293424FD2DC
:10599000002D00F0A3804FF0000AD0461FFA89F3D3
:1059A0000493DFF88490DFF87CB0E389434515D099
:1059B0003868636853445B680269527812FB08F2E6
:1059C00032440021039101210291CDF804B0CDF8B9
:1059D000009092B20499FFF747FE1AE03B680593E6
:1059E0001B695B7813FB08F333449BB20693606832
:1059F0005044FFF7DDFC0023039301230293CDF80D
:105A00000490CDF800B00346069A04990598FFF774
:105A10002BFE08F101081FFA88F80AF1140A45451F
:105A2000C3D15BE02C5500203C520020F4530020F1
:105A30009D1AADB22A46C346181A804445454DDA30
:105A40001FFA89F00490DFF8BC90DFF8B4809D4223
:105A50001AD03868636805EB850E03EB8E035B682C
:105A6000521A52440169497811FB02F23244002172
:105A7000039101210291CDF80490CDF8008092B2FB
:105A80000499FFF7F1FD1FE03B68521A5244059359
:105A90001B695B7813FB02F333449BB2069305EB5F
:105AA0008500636803EB8000FFF782FC002303930B
:105AB00001230293CDF80480CDF800900346069AA6
:105AC00004990598FFF7D0FD0135ADB22A46E38968
:105AD0001946CAEB030058448542B8DBA17A237B00
